{
  "_format": "hh-sol-artifact-1",
  "contractName": "AcademicVerification",
  "sourceName": "contracts/AcademicVerification.sol",
  "abi": [
    {
      "anonymous": false,
      "inputs": [
        {
          "indexed": true,
          "internalType": "string",
          "name": "studentId",
          "type": "string"
        },
        {
          "indexed": false,
          "internalType": "string",
          "name": "docType",
          "type": "string"
        },
        {
          "indexed": false,
          "internalType": "string",
          "name": "fileHash",
          "type": "string"
        },
        {
          "indexed": false,
          "internalType": "uint256",
          "name": "timestamp",
          "type": "uint256"
        },
        {
          "indexed": false,
          "internalType": "address",
          "name": "uploadedBy",
          "type": "address"
        }
      ],
      "name": "DocumentStored",
      "type": "event"
    },
    {
      "anonymous": false,
      "inputs": [
        {
          "indexed": true,
          "internalType": "string",
          "name": "studentId",
          "type": "string"
        },
        {
          "indexed": false,
          "internalType": "string",
          "name": "verificationId",
          "type": "string"
        },
        {
          "indexed": false,
          "internalType": "uint256",
          "name": "timestamp",
          "type": "uint256"
        }
      ],
      "name": "VerificationIssued",
      "type": "event"
    },
    {
      "inputs": [
        {
          "internalType": "string",
          "name": "studentId",
          "type": "string"
        },
        {
          "internalType": "string",
          "name": "docType",
          "type": "string"
        }
      ],
      "name": "checkDocumentExists",
      "outputs": [
        {
          "internalType": "bool",
          "name": "",
          "type": "bool"
        }
      ],
      "stateMutability": "view",
      "type": "function"
    },
    {
      "inputs": [
        {
          "internalType": "string",
          "name": "studentId",
          "type": "string"
        },
        {
          "internalType": "string",
          "name": "docType",
          "type": "string"
        }
      ],
      "name": "getHash",
      "outputs": [
        {
          "internalType": "string",
          "name": "fileHash",
          "type": "string"
        },
        {
          "internalType": "uint256",
          "name": "timestamp",
          "type": "uint256"
        },
        {
          "internalType": "address",
          "name": "uploadedBy",
          "type": "address"
        }
      ],
      "stateMutability": "view",
      "type": "function"
    },
    {
      "inputs": [
        {
          "internalType": "string",
          "name": "verificationId",
          "type": "string"
        }
      ],
      "name": "lookupVerification",
      "outputs": [
        {
          "internalType": "string",
          "name": "",
          "type": "string"
        }
      ],
      "stateMutability": "view",
      "type": "function"
    },
    {
      "inputs": [
        {
          "internalType": "string",
          "name": "studentId",
          "type": "string"
        },
        {
          "internalType": "string",
          "name": "verificationId",
          "type": "string"
        }
      ],
      "name": "recordVerification",
      "outputs": [],
      "stateMutability": "nonpayable",
      "type": "function"
    },
    {
      "inputs": [
        {
          "internalType": "string",
          "name": "studentId",
          "type": "string"
        },
        {
          "internalType": "string",
          "name": "docType",
          "type": "string"
        },
        {
          "internalType": "string",
          "name": "fileHash",
          "type": "string"
        }
      ],
      "name": "storeHash",
      "outputs": [],
      "stateMutability": "nonpayable",
      "type": "function"
    },
    {
      "inputs": [
        {
          "internalType": "string",
          "name": "studentId",
          "type": "string"
        },
        {
          "internalType": "string",
          "name": "docType",
          "type": "string"
        },
        {
          "internalType": "string",
          "name": "fileHash",
          "type": "string"
        }
      ],
      "name": "verifyHash",
      "outputs": [
        {
          "internalType": "bool",
          "name": "",
          "type": "bool"
        }
      ],
      "stateMutability": "view",
      "type": "function"
    }
  ],
  "bytecode": "0x608060405234801561001057600080fd5b50610d73806100206000396000f3fe608060405234801561001057600080fd5b50600436106100625760003560e01c8063138bbbfd1461006757806327cf399a1461007c578063532c13c2146100a75780635c2949f1146100ca5780638a723575146100dd578063dee0b9b2146100f0575b600080fd5b61007a61007536600461089a565b610110565b005b61008f61008a366004610934565b610329565b60405161009e939291906109e6565b60405180910390f35b6100ba6100b5366004610934565b61045f565b604051901515815260200161009e565b6100ba6100d836600461089a565b6104b8565b61007a6100eb366004610934565b61060b565b6101036100fe366004610a19565b61079e565b60405161009e9190610a5b565b846101585760405162461bcd60e51b815260206004820152601360248201527214dd1d59195b9d081251081c995c5d5a5c9959606a1b60448201526064015b60405180910390fd5b826101995760405162461bcd60e51b8152602060048201526011602482015270111bd8c81d1e5c19481c995c5d5a5c9959607a1b604482015260640161014f565b806101db5760405162461bcd60e51b8152602060048201526012602482015271119a5b19481a185cda081c995c5d5a5c995960721b604482015260640161014f565b604051806080016040528083838080601f016020809104026020016040519081016040528093929190818152602001838380828437600092018290525093855250504260208401525033604080840191909152600160609093019290925290516102489089908990610a75565b90815260200160405180910390208585604051610266929190610a75565b908152604051908190036020019020815181906102839082610b24565b5060208201516001820155604080830151600290920180546060909401511515600160a01b026001600160a81b03199094166001600160a01b0390931692909217929092179055516102d89087908790610a75565b60405180910390207f9559ce50500262769919c5de30a2949af236f13cc54c1f993dc025d0902c486c85858585423360405161031996959493929190610c0d565b60405180910390a2505050505050565b60606000806000808888604051610341929190610a75565b9081526020016040518091039020868660405161035f929190610a75565b908152602001604051809103902060405180608001604052908160008201805461038890610a9b565b80601f01602080910402602001604051908101604052809291908181526020018280546103b490610a9b565b80156104015780601f106103d657610100808354040283529160200191610401565b820191906000526020600020905b8154815290600101906020018083116103e457829003601f168201915b505050918352505060018201546020808301919091526002909201546001600160a01b038116604080840191909152600160a01b90910460ff161515606090920191909152825191830151920151909a919950975095505050505050565b6000808585604051610472929190610a75565b90815260200160405180910390208383604051610490929190610a75565b9081526040519081900360200190206002015460ff600160a01b909104169050949350505050565b600080600088886040516104cd929190610a75565b908152602001604051809103902086866040516104eb929190610a75565b908152602001604051809103902060405180608001604052908160008201805461051490610a9b565b80601f016020809104026020016040519081016040528092919081815260200182805461054090610a9b565b801561058d5780601f106105625761010080835404028352916020019161058d565b820191906000526020600020905b81548152906001019060200180831161057057829003601f168201915b5050509183525050600182015460208201526002909101546001600160a01b0381166040830152600160a01b900460ff1615156060918201528101519091506105da576000915050610601565b83836040516105ea929190610a75565b604051908190039020905180516020909101201490505b9695505050505050565b8261064e5760405162461bcd60e51b815260206004820152601360248201527214dd1d59195b9d081251081c995c5d5a5c9959606a1b604482015260640161014f565b8061069b5760405162461bcd60e51b815260206004820152601860248201527f566572696669636174696f6e2049442072657175697265640000000000000000604482015260640161014f565b600182826040516106ad929190610a75565b908152602001604051809103902080546106c690610a9b565b1590506107155760405162461bcd60e51b815260206004820152601c60248201527f566572696669636174696f6e20494420616c7265616479207573656400000000604482015260640161014f565b838360018484604051610729929190610a75565b90815260200160405180910390209182610744929190610c58565b508383604051610755929190610a75565b60405180910390207fb22558090a607c997b4bb6f1c6b323f55e65cf7d8eae600ea1331f53dc08f0ca83834260405161079093929190610d19565b60405180910390a250505050565b6060600183836040516107b2929190610a75565b908152602001604051809103902080546107cb90610a9b565b80601f01602080910402602001604051908101604052809291908181526020018280546107f790610a9b565b80156108445780601f1061081957610100808354040283529160200191610844565b820191906000526020600020905b81548152906001019060200180831161082757829003601f168201915b5050505050905092915050565b60008083601f84011261086357600080fd5b50813567ffffffffffffffff81111561087b57600080fd5b60208301915083602082850101111561089357600080fd5b9250929050565b600080600080600080606087890312156108b357600080fd5b863567ffffffffffffffff808211156108cb57600080fd5b6108d78a838b01610851565b909850965060208901359150808211156108f057600080fd5b6108fc8a838b01610851565b9096509450604089013591508082111561091557600080fd5b5061092289828a01610851565b979a9699509497509295939492505050565b6000806000806040858703121561094a57600080fd5b843567ffffffffffffffff8082111561096257600080fd5b61096e88838901610851565b9096509450602087013591508082111561098757600080fd5b5061099487828801610851565b95989497509550505050565b6000815180845260005b818110156109c6576020818501810151868301820152016109aa565b506000602082860101526020601f19601f83011685010191505092915050565b6060815260006109f960608301866109a0565b6020830194909452506001600160a01b0391909116604090910152919050565b60008060208385031215610a2c57600080fd5b823567ffffffffffffffff811115610a4357600080fd5b610a4f85828601610851565b90969095509350505050565b602081526000610a6e60208301846109a0565b9392505050565b8183823760009101908152919050565b634e487b7160e01b600052604160045260246000fd5b600181811c90821680610aaf57607f821691505b602082108103610acf57634e487b7160e01b600052602260045260246000fd5b50919050565b601f821115610b1f57600081815260208120601f850160051c81016020861015610afc5750805b601f850160051c820191505b81811015610b1b57828155600101610b08565b5050505b505050565b815167ffffffffffffffff811115610b3e57610b3e610a85565b610b5281610b4c8454610a9b565b84610ad5565b602080601f831160018114610b875760008415610b6f5750858301515b600019600386901b1c1916600185901b178555610b1b565b600085815260208120601f198616915b82811015610bb657888601518255948401946001909101908401610b97565b5085821015610bd45787850151600019600388901b60f8161c191681555b5050505050600190811b01905550565b81835281816020850137506000828201602090810191909152601f909101601f19169091010190565b608081526000610c2160808301888a610be4565b8281036020840152610c34818789610be4565b604084019590955250506001600160a01b0391909116606090910152949350505050565b67ffffffffffffffff831115610c7057610c70610a85565b610c8483610c7e8354610a9b565b83610ad5565b6000601f841160018114610cb85760008515610ca05750838201355b600019600387901b1c1916600186901b178355610d12565b600083815260209020601f19861690835b82811015610ce95786850135825560209485019460019092019101610cc9565b5086821015610d065760001960f88860031b161c19848701351681555b505060018560011b0183555b5050505050565b604081526000610d2d604083018587610be4565b905082602083015294935050505056fea26469706673582212200d31b1f4c42f397d667f57ca0a8db48d9cef59071455ae0ac1ea59b90f98eb2d64736f6c63430008130033",
  "linkReferences": {},
  "deployedLinkReferences": {}
}