{
	"AcademicVerification.sol": {
		"AcademicVerification": {
			"abi": [
				{
					"anonymous": false,
					"inputs": [
						{
							"indexed": true,
							"internalType": "string",
							"name": "studentId",
							"type": "string"
						},
						{
							"indexed": false,
							"internalType": "string",
							"name": "docType",
							"type": "string"
						},
						{
							"indexed": false,
							"internalType": "string",
							"name": "fileHash",
							"type": "string"
						},
						{
							"indexed": false,
							"internalType": "uint256",
							"name": "timestamp",
							"type": "uint256"
						},
						{
							"indexed": false,
							"internalType": "address",
							"name": "uploadedBy",
							"type": "address"
						}
					],
					"name": "DocumentStored",
					"type": "event"
				},
				{
					"anonymous": false,
					"inputs": [
						{
							"indexed": true,
							"internalType": "string",
							"name": "studentId",
							"type": "string"
						},
						{
							"indexed": false,
							"internalType": "string",
							"name": "verificationId",
							"type": "string"
						},
						{
							"indexed": false,
							"internalType": "uint256",
							"name": "timestamp",
							"type": "uint256"
						}
					],
					"name": "VerificationIssued",
					"type": "event"
				},
				{
					"inputs": [
						{
							"internalType": "string",
							"name": "studentId",
							"type": "string"
						},
						{
							"internalType": "string",
							"name": "docType",
							"type": "string"
						}
					],
					"name": "checkDocumentExists",
					"outputs": [
						{
							"internalType": "bool",
							"name": "",
							"type": "bool"
						}
					],
					"stateMutability": "view",
					"type": "function"
				},
				{
					"inputs": [
						{
							"internalType": "string",
							"name": "studentId",
							"type": "string"
						},
						{
							"internalType": "string",
							"name": "docType",
							"type": "string"
						}
					],
					"name": "getHash",
					"outputs": [
						{
							"internalType": "string",
							"name": "fileHash",
							"type": "string"
						},
						{
							"internalType": "uint256",
							"name": "timestamp",
							"type": "uint256"
						},
						{
							"internalType": "address",
							"name": "uploadedBy",
							"type": "address"
						}
					],
					"stateMutability": "view",
					"type": "function"
				},
				{
					"inputs": [
						{
							"internalType": "string",
							"name": "verificationId",
							"type": "string"
						}
					],
					"name": "lookupVerification",
					"outputs": [
						{
							"internalType": "string",
							"name": "",
							"type": "string"
						}
					],
					"stateMutability": "view",
					"type": "function"
				},
				{
					"inputs": [
						{
							"internalType": "string",
							"name": "studentId",
							"type": "string"
						},
						{
							"internalType": "string",
							"name": "verificationId",
							"type": "string"
						}
					],
					"name": "recordVerification",
					"outputs": [],
					"stateMutability": "nonpayable",
					"type": "function"
				},
				{
					"inputs": [
						{
							"internalType": "string",
							"name": "studentId",
							"type": "string"
						},
						{
							"internalType": "string",
							"name": "docType",
							"type": "string"
						},
						{
							"internalType": "string",
							"name": "fileHash",
							"type": "string"
						}
					],
					"name": "storeHash",
					"outputs": [],
					"stateMutability": "nonpayable",
					"type": "function"
				},
				{
					"inputs": [
						{
							"internalType": "string",
							"name": "studentId",
							"type": "string"
						},
						{
							"internalType": "string",
							"name": "docType",
							"type": "string"
						},
						{
							"internalType": "string",
							"name": "fileHash",
							"type": "string"
						}
					],
					"name": "verifyHash",
					"outputs": [
						{
							"internalType": "bool",
							"name": "",
							"type": "bool"
						}
					],
					"stateMutability": "view",
					"type": "function"
				}
			],
			"devdoc": {
				"kind": "dev",
				"methods": {},
				"version": 1
			},
			"evm": {
				"assembly": "    /* \"AcademicVerification.sol\":184:4221  contract AcademicVerification {... */\n  mstore(0x40, 0x80)\n  callvalue\n  dup1\n  iszero\n  tag_1\n  jumpi\n  revert(0x00, 0x00)\ntag_1:\n  pop\n  dataSize(sub_0)\n  dup1\n  dataOffset(sub_0)\n  0x00\n  codecopy\n  0x00\n  return\nstop\n\nsub_0: assembly {\n        /* \"AcademicVerification.sol\":184:4221  contract AcademicVerification {... */\n      mstore(0x40, 0x80)\n      callvalue\n      dup1\n      iszero\n      tag_1\n      jumpi\n      revert(0x00, 0x00)\n    tag_1:\n      pop\n      jumpi(tag_2, lt(calldatasize, 0x04))\n      shr(0xe0, calldataload(0x00))\n      dup1\n      0x138bbbfd\n      eq\n      tag_3\n      jumpi\n      dup1\n      0x27cf399a\n      eq\n      tag_4\n      jumpi\n      dup1\n      0x532c13c2\n      eq\n      tag_5\n      jumpi\n      dup1\n      0x5c2949f1\n      eq\n      tag_6\n      jumpi\n      dup1\n      0x8a723575\n      eq\n      tag_7\n      jumpi\n      dup1\n      0xdee0b9b2\n      eq\n      tag_8\n      jumpi\n    tag_2:\n      revert(0x00, 0x00)\n        /* \"AcademicVerification.sol\":1268:1908  function storeHash(... */\n    tag_3:\n      tag_9\n      0x04\n      dup1\n      calldatasize\n      sub\n      dup2\n      add\n      swap1\n      tag_10\n      swap2\n      swap1\n      tag_11\n      jump\t// in\n    tag_10:\n      tag_12\n      jump\t// in\n    tag_9:\n      stop\n        /* \"AcademicVerification.sol\":3363:3670  function getHash(... */\n    tag_4:\n      tag_13\n      0x04\n      dup1\n      calldatasize\n      sub\n      dup2\n      add\n      swap1\n      tag_14\n      swap2\n      swap1\n      tag_15\n      jump\t// in\n    tag_14:\n      tag_16\n      jump\t// in\n    tag_13:\n      mload(0x40)\n      tag_17\n      swap4\n      swap3\n      swap2\n      swap1\n      tag_18\n      jump\t// in\n    tag_17:\n      mload(0x40)\n      dup1\n      swap2\n      sub\n      swap1\n      return\n        /* \"AcademicVerification.sol\":4027:4219  function checkDocumentExists(... */\n    tag_5:\n      tag_19\n      0x04\n      dup1\n      calldatasize\n      sub\n      dup2\n      add\n      swap1\n      tag_20\n      swap2\n      swap1\n      tag_15\n      jump\t// in\n    tag_20:\n      tag_21\n      jump\t// in\n    tag_19:\n      mload(0x40)\n      tag_22\n      swap2\n      swap1\n      tag_23\n      jump\t// in\n    tag_22:\n      mload(0x40)\n      dup1\n      swap2\n      sub\n      swap1\n      return\n        /* \"AcademicVerification.sol\":2942:3283  function verifyHash(... */\n    tag_6:\n      tag_24\n      0x04\n      dup1\n      calldatasize\n      sub\n      dup2\n      add\n      swap1\n      tag_25\n      swap2\n      swap1\n      tag_11\n      jump\t// in\n    tag_25:\n      tag_26\n      jump\t// in\n    tag_24:\n      mload(0x40)\n      tag_27\n      swap2\n      swap1\n      tag_23\n      jump\t// in\n    tag_27:\n      mload(0x40)\n      dup1\n      swap2\n      sub\n      swap1\n      return\n        /* \"AcademicVerification.sol\":2043:2591  function recordVerification(... */\n    tag_7:\n      tag_28\n      0x04\n      dup1\n      calldatasize\n      sub\n      dup2\n      add\n      swap1\n      tag_29\n      swap2\n      swap1\n      tag_15\n      jump\t// in\n    tag_29:\n      tag_30\n      jump\t// in\n    tag_28:\n      stop\n        /* \"AcademicVerification.sol\":3770:3939  function lookupVerification(... */\n    tag_8:\n      tag_31\n      0x04\n      dup1\n      calldatasize\n      sub\n      dup2\n      add\n      swap1\n      tag_32\n      swap2\n      swap1\n      tag_33\n      jump\t// in\n    tag_32:\n      tag_34\n      jump\t// in\n    tag_31:\n      mload(0x40)\n      tag_35\n      swap2\n      swap1\n      tag_36\n      jump\t// in\n    tag_35:\n      mload(0x40)\n      dup1\n      swap2\n      sub\n      swap1\n      return\n        /* \"AcademicVerification.sol\":1268:1908  function storeHash(... */\n    tag_12:\n        /* \"AcademicVerification.sol\":1448:1449  0 */\n      0x00\n        /* \"AcademicVerification.sol\":1428:1437  studentId */\n      dup7\n      dup7\n        /* \"AcademicVerification.sol\":1422:1445  bytes(studentId).length */\n      swap1\n      pop\n        /* \"AcademicVerification.sol\":1422:1449  bytes(studentId).length > 0 */\n      gt\n        /* \"AcademicVerification.sol\":1414:1473  require(bytes(studentId).length > 0, \"Student ID required\") */\n      tag_38\n      jumpi\n      mload(0x40)\n      0x08c379a000000000000000000000000000000000000000000000000000000000\n      dup2\n      mstore\n      0x04\n      add\n      tag_39\n      swap1\n      tag_40\n      jump\t// in\n    tag_39:\n      mload(0x40)\n      dup1\n      swap2\n      sub\n      swap1\n      revert\n    tag_38:\n        /* \"AcademicVerification.sol\":1517:1518  0 */\n      0x00\n        /* \"AcademicVerification.sol\":1497:1504  docType */\n      dup5\n      dup5\n        /* \"AcademicVerification.sol\":1491:1512  bytes(docType).length */\n      swap1\n      pop\n        /* \"AcademicVerification.sol\":1491:1518  bytes(docType).length   > 0 */\n      gt\n        /* \"AcademicVerification.sol\":1483:1540  require(bytes(docType).length   > 0, \"Doc type required\") */\n      tag_41\n      jumpi\n      mload(0x40)\n      0x08c379a000000000000000000000000000000000000000000000000000000000\n      dup2\n      mstore\n      0x04\n      add\n      tag_42\n      swap1\n      tag_43\n      jump\t// in\n    tag_42:\n      mload(0x40)\n      dup1\n      swap2\n      sub\n      swap1\n      revert\n    tag_41:\n        /* \"AcademicVerification.sol\":1584:1585  0 */\n      0x00\n        /* \"AcademicVerification.sol\":1564:1572  fileHash */\n      dup3\n      dup3\n        /* \"AcademicVerification.sol\":1558:1580  bytes(fileHash).length */\n      swap1\n      pop\n        /* \"AcademicVerification.sol\":1558:1585  bytes(fileHash).length  > 0 */\n      gt\n        /* \"AcademicVerification.sol\":1550:1608  require(bytes(fileHash).length  > 0, \"File hash required\") */\n      tag_44\n      jumpi\n      mload(0x40)\n      0x08c379a000000000000000000000000000000000000000000000000000000000\n      dup2\n      mstore\n      0x04\n      add\n      tag_45\n      swap1\n      tag_46\n      jump\t// in\n    tag_45:\n      mload(0x40)\n      dup1\n      swap2\n      sub\n      swap1\n      revert\n    tag_44:\n        /* \"AcademicVerification.sol\":1651:1812  Document({... */\n      mload(0x40)\n      dup1\n      0x80\n      add\n      0x40\n      mstore\n      dup1\n        /* \"AcademicVerification.sol\":1686:1694  fileHash */\n      dup4\n      dup4\n        /* \"AcademicVerification.sol\":1651:1812  Document({... */\n      dup1\n      dup1\n      0x1f\n      add\n      0x20\n      dup1\n      swap2\n      div\n      mul\n      0x20\n      add\n      mload(0x40)\n      swap1\n      dup2\n      add\n      0x40\n      mstore\n      dup1\n      swap4\n      swap3\n      swap2\n      swap1\n      dup2\n      dup2\n      mstore\n      0x20\n      add\n      dup4\n      dup4\n      dup1\n      dup3\n      dup5\n      calldatacopy\n      0x00\n      dup2\n      dup5\n      add\n      mstore\n      not(0x1f)\n      0x1f\n      dup3\n      add\n      and\n      swap1\n      pop\n      dup1\n      dup4\n      add\n      swap3\n      pop\n      pop\n      pop\n      pop\n      pop\n      pop\n      pop\n      dup2\n      mstore\n      0x20\n      add\n        /* \"AcademicVerification.sol\":1720:1735  block.timestamp */\n      timestamp\n        /* \"AcademicVerification.sol\":1651:1812  Document({... */\n      dup2\n      mstore\n      0x20\n      add\n        /* \"AcademicVerification.sol\":1761:1771  msg.sender */\n      caller\n        /* \"AcademicVerification.sol\":1651:1812  Document({... */\n      0xffffffffffffffffffffffffffffffffffffffff\n      and\n      dup2\n      mstore\n      0x20\n      add\n        /* \"AcademicVerification.sol\":1797:1801  true */\n      0x01\n        /* \"AcademicVerification.sol\":1651:1812  Document({... */\n      iszero\n      iszero\n      dup2\n      mstore\n      pop\n        /* \"AcademicVerification.sol\":1619:1628  documents */\n      0x00\n        /* \"AcademicVerification.sol\":1629:1638  studentId */\n      dup8\n      dup8\n        /* \"AcademicVerification.sol\":1619:1639  documents[studentId] */\n      mload(0x40)\n      tag_47\n      swap3\n      swap2\n      swap1\n      tag_48\n      jump\t// in\n    tag_47:\n      swap1\n      dup2\n      mstore\n      0x20\n      add\n      mload(0x40)\n      dup1\n      swap2\n      sub\n      swap1\n      keccak256\n        /* \"AcademicVerification.sol\":1640:1647  docType */\n      dup6\n      dup6\n        /* \"AcademicVerification.sol\":1619:1648  documents[studentId][docType] */\n      mload(0x40)\n      tag_49\n      swap3\n      swap2\n      swap1\n      tag_48\n      jump\t// in\n    tag_49:\n      swap1\n      dup2\n      mstore\n      0x20\n      add\n      mload(0x40)\n      dup1\n      swap2\n      sub\n      swap1\n      keccak256\n        /* \"AcademicVerification.sol\":1619:1812  documents[studentId][docType] = Document({... */\n      0x00\n      dup3\n      add\n      mload\n      dup2\n      0x00\n      add\n      swap1\n      dup2\n      tag_50\n      swap2\n      swap1\n      tag_51\n      jump\t// in\n    tag_50:\n      pop\n      0x20\n      dup3\n      add\n      mload\n      dup2\n      0x01\n      add\n      sstore\n      0x40\n      dup3\n      add\n      mload\n      dup2\n      0x02\n      add\n      exp(0x0100, 0x00)\n      dup2\n      sload\n      dup2\n      0xffffffffffffffffffffffffffffffffffffffff\n      mul\n      not\n      and\n      swap1\n      dup4\n      0xffffffffffffffffffffffffffffffffffffffff\n      and\n      mul\n      or\n      swap1\n      sstore\n      pop\n      0x60\n      dup3\n      add\n      mload\n      dup2\n      0x02\n      add\n      exp(0x0100, 0x14)\n      dup2\n      sload\n      dup2\n      0xff\n      mul\n      not\n      and\n      swap1\n      dup4\n      iszero\n      iszero\n      mul\n      or\n      swap1\n      sstore\n      pop\n      swap1\n      pop\n      pop\n        /* \"AcademicVerification.sol\":1843:1852  studentId */\n      dup6\n      dup6\n        /* \"AcademicVerification.sol\":1828:1901  DocumentStored(studentId, docType, fileHash, block.timestamp, msg.sender) */\n      mload(0x40)\n      tag_52\n      swap3\n      swap2\n      swap1\n      tag_48\n      jump\t// in\n    tag_52:\n      mload(0x40)\n      dup1\n      swap2\n      sub\n      swap1\n      keccak256\n      0x9559ce50500262769919c5de30a2949af236f13cc54c1f993dc025d0902c486c\n        /* \"AcademicVerification.sol\":1854:1861  docType */\n      dup6\n      dup6\n        /* \"AcademicVerification.sol\":1863:1871  fileHash */\n      dup6\n      dup6\n        /* \"AcademicVerification.sol\":1873:1888  block.timestamp */\n      timestamp\n        /* \"AcademicVerification.sol\":1890:1900  msg.sender */\n      caller\n        /* \"AcademicVerification.sol\":1828:1901  DocumentStored(studentId, docType, fileHash, block.timestamp, msg.sender) */\n      mload(0x40)\n      tag_53\n      swap7\n      swap6\n      swap5\n      swap4\n      swap3\n      swap2\n      swap1\n      tag_54\n      jump\t// in\n    tag_53:\n      mload(0x40)\n      dup1\n      swap2\n      sub\n      swap1\n      log2\n        /* \"AcademicVerification.sol\":1268:1908  function storeHash(... */\n      pop\n      pop\n      pop\n      pop\n      pop\n      pop\n      jump\t// out\n        /* \"AcademicVerification.sol\":3363:3670  function getHash(... */\n    tag_16:\n        /* \"AcademicVerification.sol\":3477:3499  string memory fileHash */\n      0x60\n        /* \"AcademicVerification.sol\":3501:3518  uint256 timestamp */\n      0x00\n        /* \"AcademicVerification.sol\":3520:3538  address uploadedBy */\n      0x00\n        /* \"AcademicVerification.sol\":3550:3569  Document memory doc */\n      0x00\n        /* \"AcademicVerification.sol\":3572:3581  documents */\n      0x00\n        /* \"AcademicVerification.sol\":3582:3591  studentId */\n      dup9\n      dup9\n        /* \"AcademicVerification.sol\":3572:3592  documents[studentId] */\n      mload(0x40)\n      tag_56\n      swap3\n      swap2\n      swap1\n      tag_48\n      jump\t// in\n    tag_56:\n      swap1\n      dup2\n      mstore\n      0x20\n      add\n      mload(0x40)\n      dup1\n      swap2\n      sub\n      swap1\n      keccak256\n        /* \"AcademicVerification.sol\":3593:3600  docType */\n      dup7\n      dup7\n        /* \"AcademicVerification.sol\":3572:3601  documents[studentId][docType] */\n      mload(0x40)\n      tag_57\n      swap3\n      swap2\n      swap1\n      tag_48\n      jump\t// in\n    tag_57:\n      swap1\n      dup2\n      mstore\n      0x20\n      add\n      mload(0x40)\n      dup1\n      swap2\n      sub\n      swap1\n      keccak256\n        /* \"AcademicVerification.sol\":3550:3601  Document memory doc = documents[studentId][docType] */\n      mload(0x40)\n      dup1\n      0x80\n      add\n      0x40\n      mstore\n      swap1\n      dup2\n      0x00\n      dup3\n      add\n      dup1\n      sload\n      tag_58\n      swap1\n      tag_59\n      jump\t// in\n    tag_58:\n      dup1\n      0x1f\n      add\n      0x20\n      dup1\n      swap2\n      div\n      mul\n      0x20\n      add\n      mload(0x40)\n      swap1\n      dup2\n      add\n      0x40\n      mstore\n      dup1\n      swap3\n      swap2\n      swap1\n      dup2\n      dup2\n      mstore\n      0x20\n      add\n      dup3\n      dup1\n      sload\n      tag_60\n      swap1\n      tag_59\n      jump\t// in\n    tag_60:\n      dup1\n      iszero\n      tag_61\n      jumpi\n      dup1\n      0x1f\n      lt\n      tag_62\n      jumpi\n      0x0100\n      dup1\n      dup4\n      sload\n      div\n      mul\n      dup4\n      mstore\n      swap2\n      0x20\n      add\n      swap2\n      jump(tag_61)\n    tag_62:\n      dup3\n      add\n      swap2\n      swap1\n      0x00\n      mstore\n      keccak256(0x00, 0x20)\n      swap1\n    tag_63:\n      dup2\n      sload\n      dup2\n      mstore\n      swap1\n      0x01\n      add\n      swap1\n      0x20\n      add\n      dup1\n      dup4\n      gt\n      tag_63\n      jumpi\n      dup3\n      swap1\n      sub\n      0x1f\n      and\n      dup3\n      add\n      swap2\n    tag_61:\n      pop\n      pop\n      pop\n      pop\n      pop\n      dup2\n      mstore\n      0x20\n      add\n      0x01\n      dup3\n      add\n      sload\n      dup2\n      mstore\n      0x20\n      add\n      0x02\n      dup3\n      add\n      0x00\n      swap1\n      sload\n      swap1\n      0x0100\n      exp\n      swap1\n      div\n      0xffffffffffffffffffffffffffffffffffffffff\n      and\n      0xffffffffffffffffffffffffffffffffffffffff\n      and\n      0xffffffffffffffffffffffffffffffffffffffff\n      and\n      dup2\n      mstore\n      0x20\n      add\n      0x02\n      dup3\n      add\n      0x14\n      swap1\n      sload\n      swap1\n      0x0100\n      exp\n      swap1\n      div\n      0xff\n      and\n      iszero\n      iszero\n      iszero\n      iszero\n      dup2\n      mstore\n      pop\n      pop\n      swap1\n      pop\n        /* \"AcademicVerification.sol\":3619:3622  doc */\n      dup1\n        /* \"AcademicVerification.sol\":3619:3631  doc.fileHash */\n      0x00\n      add\n      mload\n        /* \"AcademicVerification.sol\":3633:3636  doc */\n      dup2\n        /* \"AcademicVerification.sol\":3633:3646  doc.timestamp */\n      0x20\n      add\n      mload\n        /* \"AcademicVerification.sol\":3648:3651  doc */\n      dup3\n        /* \"AcademicVerification.sol\":3648:3662  doc.uploadedBy */\n      0x40\n      add\n      mload\n        /* \"AcademicVerification.sol\":3611:3663  return (doc.fileHash, doc.timestamp, doc.uploadedBy) */\n      swap4\n      pop\n      swap4\n      pop\n      swap4\n      pop\n      pop\n        /* \"AcademicVerification.sol\":3363:3670  function getHash(... */\n      swap5\n      pop\n      swap5\n      pop\n      swap5\n      swap2\n      pop\n      pop\n      jump\t// out\n        /* \"AcademicVerification.sol\":4027:4219  function checkDocumentExists(... */\n    tag_21:\n        /* \"AcademicVerification.sol\":4153:4157  bool */\n      0x00\n        /* \"AcademicVerification.sol\":4176:4185  documents */\n      0x00\n        /* \"AcademicVerification.sol\":4186:4195  studentId */\n      dup6\n      dup6\n        /* \"AcademicVerification.sol\":4176:4196  documents[studentId] */\n      mload(0x40)\n      tag_65\n      swap3\n      swap2\n      swap1\n      tag_48\n      jump\t// in\n    tag_65:\n      swap1\n      dup2\n      mstore\n      0x20\n      add\n      mload(0x40)\n      dup1\n      swap2\n      sub\n      swap1\n      keccak256\n        /* \"AcademicVerification.sol\":4197:4204  docType */\n      dup4\n      dup4\n        /* \"AcademicVerification.sol\":4176:4205  documents[studentId][docType] */\n      mload(0x40)\n      tag_66\n      swap3\n      swap2\n      swap1\n      tag_48\n      jump\t// in\n    tag_66:\n      swap1\n      dup2\n      mstore\n      0x20\n      add\n      mload(0x40)\n      dup1\n      swap2\n      sub\n      swap1\n      keccak256\n        /* \"AcademicVerification.sol\":4176:4212  documents[studentId][docType].exists */\n      0x02\n      add\n      0x14\n      swap1\n      sload\n      swap1\n      0x0100\n      exp\n      swap1\n      div\n      0xff\n      and\n        /* \"AcademicVerification.sol\":4169:4212  return documents[studentId][docType].exists */\n      swap1\n      pop\n        /* \"AcademicVerification.sol\":4027:4219  function checkDocumentExists(... */\n      swap5\n      swap4\n      pop\n      pop\n      pop\n      pop\n      jump\t// out\n        /* \"AcademicVerification.sol\":2942:3283  function verifyHash(... */\n    tag_26:\n        /* \"AcademicVerification.sol\":3093:3097  bool */\n      0x00\n        /* \"AcademicVerification.sol\":3109:3128  Document memory doc */\n      0x00\n        /* \"AcademicVerification.sol\":3131:3140  documents */\n      0x00\n        /* \"AcademicVerification.sol\":3141:3150  studentId */\n      dup9\n      dup9\n        /* \"AcademicVerification.sol\":3131:3151  documents[studentId] */\n      mload(0x40)\n      tag_68\n      swap3\n      swap2\n      swap1\n      tag_48\n      jump\t// in\n    tag_68:\n      swap1\n      dup2\n      mstore\n      0x20\n      add\n      mload(0x40)\n      dup1\n      swap2\n      sub\n      swap1\n      keccak256\n        /* \"AcademicVerification.sol\":3152:3159  docType */\n      dup7\n      dup7\n        /* \"AcademicVerification.sol\":3131:3160  documents[studentId][docType] */\n      mload(0x40)\n      tag_69\n      swap3\n      swap2\n      swap1\n      tag_48\n      jump\t// in\n    tag_69:\n      swap1\n      dup2\n      mstore\n      0x20\n      add\n      mload(0x40)\n      dup1\n      swap2\n      sub\n      swap1\n      keccak256\n        /* \"AcademicVerification.sol\":3109:3160  Document memory doc = documents[studentId][docType] */\n      mload(0x40)\n      dup1\n      0x80\n      add\n      0x40\n      mstore\n      swap1\n      dup2\n      0x00\n      dup3\n      add\n      dup1\n      sload\n      tag_70\n      swap1\n      tag_59\n      jump\t// in\n    tag_70:\n      dup1\n      0x1f\n      add\n      0x20\n      dup1\n      swap2\n      div\n      mul\n      0x20\n      add\n      mload(0x40)\n      swap1\n      dup2\n      add\n      0x40\n      mstore\n      dup1\n      swap3\n      swap2\n      swap1\n      dup2\n      dup2\n      mstore\n      0x20\n      add\n      dup3\n      dup1\n      sload\n      tag_71\n      swap1\n      tag_59\n      jump\t// in\n    tag_71:\n      dup1\n      iszero\n      tag_72\n      jumpi\n      dup1\n      0x1f\n      lt\n      tag_73\n      jumpi\n      0x0100\n      dup1\n      dup4\n      sload\n      div\n      mul\n      dup4\n      mstore\n      swap2\n      0x20\n      add\n      swap2\n      jump(tag_72)\n    tag_73:\n      dup3\n      add\n      swap2\n      swap1\n      0x00\n      mstore\n      keccak256(0x00, 0x20)\n      swap1\n    tag_74:\n      dup2\n      sload\n      dup2\n      mstore\n      swap1\n      0x01\n      add\n      swap1\n      0x20\n      add\n      dup1\n      dup4\n      gt\n      tag_74\n      jumpi\n      dup3\n      swap1\n      sub\n      0x1f\n      and\n      dup3\n      add\n      swap2\n    tag_72:\n      pop\n      pop\n      pop\n      pop\n      pop\n      dup2\n      mstore\n      0x20\n      add\n      0x01\n      dup3\n      add\n      sload\n      dup2\n      mstore\n      0x20\n      add\n      0x02\n      dup3\n      add\n      0x00\n      swap1\n      sload\n      swap1\n      0x0100\n      exp\n      swap1\n      div\n      0xffffffffffffffffffffffffffffffffffffffff\n      and\n      0xffffffffffffffffffffffffffffffffffffffff\n      and\n      0xffffffffffffffffffffffffffffffffffffffff\n      and\n      dup2\n      mstore\n      0x20\n      add\n      0x02\n      dup3\n      add\n      0x14\n      swap1\n      sload\n      swap1\n      0x0100\n      exp\n      swap1\n      div\n      0xff\n      and\n      iszero\n      iszero\n      iszero\n      iszero\n      dup2\n      mstore\n      pop\n      pop\n      swap1\n      pop\n        /* \"AcademicVerification.sol\":3175:3178  doc */\n      dup1\n        /* \"AcademicVerification.sol\":3175:3185  doc.exists */\n      0x60\n      add\n      mload\n        /* \"AcademicVerification.sol\":3170:3199  if (!doc.exists) return false */\n      tag_75\n      jumpi\n        /* \"AcademicVerification.sol\":3194:3199  false */\n      0x00\n        /* \"AcademicVerification.sol\":3187:3199  return false */\n      swap2\n      pop\n      pop\n      jump(tag_67)\n        /* \"AcademicVerification.sol\":3170:3199  if (!doc.exists) return false */\n    tag_75:\n        /* \"AcademicVerification.sol\":3266:3274  fileHash */\n      dup4\n      dup4\n        /* \"AcademicVerification.sol\":3250:3276  keccak256(bytes(fileHash)) */\n      mload(0x40)\n      tag_76\n      swap3\n      swap2\n      swap1\n      tag_77\n      jump\t// in\n    tag_76:\n      mload(0x40)\n      dup1\n      swap2\n      sub\n      swap1\n      keccak256\n        /* \"AcademicVerification.sol\":3232:3235  doc */\n      dup2\n        /* \"AcademicVerification.sol\":3232:3244  doc.fileHash */\n      0x00\n      add\n      mload\n        /* \"AcademicVerification.sol\":3216:3246  keccak256(bytes(doc.fileHash)) */\n      dup1\n      mload\n      swap1\n      0x20\n      add\n      keccak256\n        /* \"AcademicVerification.sol\":3216:3276  keccak256(bytes(doc.fileHash)) == keccak256(bytes(fileHash)) */\n      eq\n        /* \"AcademicVerification.sol\":3209:3276  return keccak256(bytes(doc.fileHash)) == keccak256(bytes(fileHash)) */\n      swap2\n      pop\n      pop\n        /* \"AcademicVerification.sol\":2942:3283  function verifyHash(... */\n    tag_67:\n      swap7\n      swap6\n      pop\n      pop\n      pop\n      pop\n      pop\n      pop\n      jump\t// out\n        /* \"AcademicVerification.sol\":2043:2591  function recordVerification(... */\n    tag_30:\n        /* \"AcademicVerification.sol\":2210:2211  0 */\n      0x00\n        /* \"AcademicVerification.sol\":2185:2194  studentId */\n      dup5\n      dup5\n        /* \"AcademicVerification.sol\":2179:2202  bytes(studentId).length */\n      swap1\n      pop\n        /* \"AcademicVerification.sol\":2179:2211  bytes(studentId).length      > 0 */\n      gt\n        /* \"AcademicVerification.sol\":2171:2235  require(bytes(studentId).length      > 0, \"Student ID required\") */\n      tag_79\n      jumpi\n      mload(0x40)\n      0x08c379a000000000000000000000000000000000000000000000000000000000\n      dup2\n      mstore\n      0x04\n      add\n      tag_80\n      swap1\n      tag_40\n      jump\t// in\n    tag_80:\n      mload(0x40)\n      dup1\n      swap2\n      sub\n      swap1\n      revert\n    tag_79:\n        /* \"AcademicVerification.sol\":2284:2285  0 */\n      0x00\n        /* \"AcademicVerification.sol\":2259:2273  verificationId */\n      dup3\n      dup3\n        /* \"AcademicVerification.sol\":2253:2281  bytes(verificationId).length */\n      swap1\n      pop\n        /* \"AcademicVerification.sol\":2253:2285  bytes(verificationId).length > 0 */\n      gt\n        /* \"AcademicVerification.sol\":2245:2314  require(bytes(verificationId).length > 0, \"Verification ID required\") */\n      tag_81\n      jumpi\n      mload(0x40)\n      0x08c379a000000000000000000000000000000000000000000000000000000000\n      dup2\n      mstore\n      0x04\n      add\n      tag_82\n      swap1\n      tag_83\n      jump\t// in\n    tag_82:\n      mload(0x40)\n      dup1\n      swap2\n      sub\n      swap1\n      revert\n    tag_81:\n        /* \"AcademicVerification.sol\":2396:2397  0 */\n      0x00\n        /* \"AcademicVerification.sol\":2351:2368  verificationIndex */\n      0x01\n        /* \"AcademicVerification.sol\":2369:2383  verificationId */\n      dup4\n      dup4\n        /* \"AcademicVerification.sol\":2351:2384  verificationIndex[verificationId] */\n      mload(0x40)\n      tag_84\n      swap3\n      swap2\n      swap1\n      tag_48\n      jump\t// in\n    tag_84:\n      swap1\n      dup2\n      mstore\n      0x20\n      add\n      mload(0x40)\n      dup1\n      swap2\n      sub\n      swap1\n      keccak256\n        /* \"AcademicVerification.sol\":2345:2392  bytes(verificationIndex[verificationId]).length */\n      dup1\n      sload\n      tag_85\n      swap1\n      tag_59\n      jump\t// in\n    tag_85:\n      swap1\n      pop\n        /* \"AcademicVerification.sol\":2345:2397  bytes(verificationIndex[verificationId]).length == 0 */\n      eq\n        /* \"AcademicVerification.sol\":2324:2451  require(... */\n      tag_86\n      jumpi\n      mload(0x40)\n      0x08c379a000000000000000000000000000000000000000000000000000000000\n      dup2\n      mstore\n      0x04\n      add\n      tag_87\n      swap1\n      tag_88\n      jump\t// in\n    tag_87:\n      mload(0x40)\n      dup1\n      swap2\n      sub\n      swap1\n      revert\n    tag_86:\n        /* \"AcademicVerification.sol\":2498:2507  studentId */\n      dup4\n      dup4\n        /* \"AcademicVerification.sol\":2462:2479  verificationIndex */\n      0x01\n        /* \"AcademicVerification.sol\":2480:2494  verificationId */\n      dup5\n      dup5\n        /* \"AcademicVerification.sol\":2462:2495  verificationIndex[verificationId] */\n      mload(0x40)\n      tag_89\n      swap3\n      swap2\n      swap1\n      tag_48\n      jump\t// in\n    tag_89:\n      swap1\n      dup2\n      mstore\n      0x20\n      add\n      mload(0x40)\n      dup1\n      swap2\n      sub\n      swap1\n      keccak256\n        /* \"AcademicVerification.sol\":2462:2507  verificationIndex[verificationId] = studentId */\n      swap2\n      dup3\n      tag_90\n      swap3\n      swap2\n      swap1\n      tag_91\n      jump\t// in\n    tag_90:\n      pop\n        /* \"AcademicVerification.sol\":2541:2550  studentId */\n      dup4\n      dup4\n        /* \"AcademicVerification.sol\":2522:2584  VerificationIssued(studentId, verificationId, block.timestamp) */\n      mload(0x40)\n      tag_92\n      swap3\n      swap2\n      swap1\n      tag_48\n      jump\t// in\n    tag_92:\n      mload(0x40)\n      dup1\n      swap2\n      sub\n      swap1\n      keccak256\n      0xb22558090a607c997b4bb6f1c6b323f55e65cf7d8eae600ea1331f53dc08f0ca\n        /* \"AcademicVerification.sol\":2552:2566  verificationId */\n      dup4\n      dup4\n        /* \"AcademicVerification.sol\":2568:2583  block.timestamp */\n      timestamp\n        /* \"AcademicVerification.sol\":2522:2584  VerificationIssued(studentId, verificationId, block.timestamp) */\n      mload(0x40)\n      tag_93\n      swap4\n      swap3\n      swap2\n      swap1\n      tag_94\n      jump\t// in\n    tag_93:\n      mload(0x40)\n      dup1\n      swap2\n      sub\n      swap1\n      log2\n        /* \"AcademicVerification.sol\":2043:2591  function recordVerification(... */\n      pop\n      pop\n      pop\n      pop\n      jump\t// out\n        /* \"AcademicVerification.sol\":3770:3939  function lookupVerification(... */\n    tag_34:\n        /* \"AcademicVerification.sol\":3867:3880  string memory */\n      0x60\n        /* \"AcademicVerification.sol\":3899:3916  verificationIndex */\n      0x01\n        /* \"AcademicVerification.sol\":3917:3931  verificationId */\n      dup4\n      dup4\n        /* \"AcademicVerification.sol\":3899:3932  verificationIndex[verificationId] */\n      mload(0x40)\n      tag_96\n      swap3\n      swap2\n      swap1\n      tag_48\n      jump\t// in\n    tag_96:\n      swap1\n      dup2\n      mstore\n      0x20\n      add\n      mload(0x40)\n      dup1\n      swap2\n      sub\n      swap1\n      keccak256\n        /* \"AcademicVerification.sol\":3892:3932  return verificationIndex[verificationId] */\n      dup1\n      sload\n      tag_97\n      swap1\n      tag_59\n      jump\t// in\n    tag_97:\n      dup1\n      0x1f\n      add\n      0x20\n      dup1\n      swap2\n      div\n      mul\n      0x20\n      add\n      mload(0x40)\n      swap1\n      dup2\n      add\n      0x40\n      mstore\n      dup1\n      swap3\n      swap2\n      swap1\n      dup2\n      dup2\n      mstore\n      0x20\n      add\n      dup3\n      dup1\n      sload\n      tag_98\n      swap1\n      tag_59\n      jump\t// in\n    tag_98:\n      dup1\n      iszero\n      tag_99\n      jumpi\n      dup1\n      0x1f\n      lt\n      tag_100\n      jumpi\n      0x0100\n      dup1\n      dup4\n      sload\n      div\n      mul\n      dup4\n      mstore\n      swap2\n      0x20\n      add\n      swap2\n      jump(tag_99)\n    tag_100:\n      dup3\n      add\n      swap2\n      swap1\n      0x00\n      mstore\n      keccak256(0x00, 0x20)\n      swap1\n    tag_101:\n      dup2\n      sload\n      dup2\n      mstore\n      swap1\n      0x01\n      add\n      swap1\n      0x20\n      add\n      dup1\n      dup4\n      gt\n      tag_101\n      jumpi\n      dup3\n      swap1\n      sub\n      0x1f\n      and\n      dup3\n      add\n      swap2\n    tag_99:\n      pop\n      pop\n      pop\n      pop\n      pop\n      swap1\n      pop\n        /* \"AcademicVerification.sol\":3770:3939  function lookupVerification(... */\n      swap3\n      swap2\n      pop\n      pop\n      jump\t// out\n        /* \"#utility.yul\":88:205   */\n    tag_103:\n        /* \"#utility.yul\":197:198   */\n      0x00\n        /* \"#utility.yul\":194:195   */\n      0x00\n        /* \"#utility.yul\":187:199   */\n      revert\n        /* \"#utility.yul\":211:328   */\n    tag_104:\n        /* \"#utility.yul\":320:321   */\n      0x00\n        /* \"#utility.yul\":317:318   */\n      0x00\n        /* \"#utility.yul\":310:322   */\n      revert\n        /* \"#utility.yul\":334:451   */\n    tag_105:\n        /* \"#utility.yul\":443:444   */\n      0x00\n        /* \"#utility.yul\":440:441   */\n      0x00\n        /* \"#utility.yul\":433:445   */\n      revert\n        /* \"#utility.yul\":457:574   */\n    tag_106:\n        /* \"#utility.yul\":566:567   */\n      0x00\n        /* \"#utility.yul\":563:564   */\n      0x00\n        /* \"#utility.yul\":556:568   */\n      revert\n        /* \"#utility.yul\":580:697   */\n    tag_107:\n        /* \"#utility.yul\":689:690   */\n      0x00\n        /* \"#utility.yul\":686:687   */\n      0x00\n        /* \"#utility.yul\":679:691   */\n      revert\n        /* \"#utility.yul\":717:1270   */\n    tag_108:\n        /* \"#utility.yul\":775:783   */\n      0x00\n        /* \"#utility.yul\":785:791   */\n      0x00\n        /* \"#utility.yul\":835:838   */\n      dup4\n        /* \"#utility.yul\":828:832   */\n      0x1f\n        /* \"#utility.yul\":820:826   */\n      dup5\n        /* \"#utility.yul\":816:833   */\n      add\n        /* \"#utility.yul\":812:839   */\n      slt\n        /* \"#utility.yul\":802:924   */\n      tag_163\n      jumpi\n        /* \"#utility.yul\":843:922   */\n      tag_164\n      tag_105\n      jump\t// in\n    tag_164:\n        /* \"#utility.yul\":802:924   */\n    tag_163:\n        /* \"#utility.yul\":956:962   */\n      dup3\n        /* \"#utility.yul\":943:963   */\n      calldataload\n        /* \"#utility.yul\":933:963   */\n      swap1\n      pop\n        /* \"#utility.yul\":986:1004   */\n      0xffffffffffffffff\n        /* \"#utility.yul\":978:984   */\n      dup2\n        /* \"#utility.yul\":975:1005   */\n      gt\n        /* \"#utility.yul\":972:1089   */\n      iszero\n      tag_165\n      jumpi\n        /* \"#utility.yul\":1008:1087   */\n      tag_166\n      tag_106\n      jump\t// in\n    tag_166:\n        /* \"#utility.yul\":972:1089   */\n    tag_165:\n        /* \"#utility.yul\":1122:1126   */\n      0x20\n        /* \"#utility.yul\":1114:1120   */\n      dup4\n        /* \"#utility.yul\":1110:1127   */\n      add\n        /* \"#utility.yul\":1098:1127   */\n      swap2\n      pop\n        /* \"#utility.yul\":1176:1179   */\n      dup4\n        /* \"#utility.yul\":1168:1172   */\n      0x01\n        /* \"#utility.yul\":1160:1166   */\n      dup3\n        /* \"#utility.yul\":1156:1173   */\n      mul\n        /* \"#utility.yul\":1146:1154   */\n      dup4\n        /* \"#utility.yul\":1142:1174   */\n      add\n        /* \"#utility.yul\":1139:1180   */\n      gt\n        /* \"#utility.yul\":1136:1264   */\n      iszero\n      tag_167\n      jumpi\n        /* \"#utility.yul\":1183:1262   */\n      tag_168\n      tag_107\n      jump\t// in\n    tag_168:\n        /* \"#utility.yul\":1136:1264   */\n    tag_167:\n        /* \"#utility.yul\":717:1270   */\n      swap3\n      pop\n      swap3\n      swap1\n      pop\n      jump\t// out\n        /* \"#utility.yul\":1276:2495   */\n    tag_11:\n        /* \"#utility.yul\":1389:1395   */\n      0x00\n        /* \"#utility.yul\":1397:1403   */\n      0x00\n        /* \"#utility.yul\":1405:1411   */\n      0x00\n        /* \"#utility.yul\":1413:1419   */\n      0x00\n        /* \"#utility.yul\":1421:1427   */\n      0x00\n        /* \"#utility.yul\":1429:1435   */\n      0x00\n        /* \"#utility.yul\":1478:1480   */\n      0x60\n        /* \"#utility.yul\":1466:1475   */\n      dup8\n        /* \"#utility.yul\":1457:1464   */\n      dup10\n        /* \"#utility.yul\":1453:1476   */\n      sub\n        /* \"#utility.yul\":1449:1481   */\n      slt\n        /* \"#utility.yul\":1446:1565   */\n      iszero\n      tag_170\n      jumpi\n        /* \"#utility.yul\":1484:1563   */\n      tag_171\n      tag_103\n      jump\t// in\n    tag_171:\n        /* \"#utility.yul\":1446:1565   */\n    tag_170:\n        /* \"#utility.yul\":1632:1633   */\n      0x00\n        /* \"#utility.yul\":1621:1630   */\n      dup8\n        /* \"#utility.yul\":1617:1634   */\n      add\n        /* \"#utility.yul\":1604:1635   */\n      calldataload\n        /* \"#utility.yul\":1662:1680   */\n      0xffffffffffffffff\n        /* \"#utility.yul\":1654:1660   */\n      dup2\n        /* \"#utility.yul\":1651:1681   */\n      gt\n        /* \"#utility.yul\":1648:1765   */\n      iszero\n      tag_172\n      jumpi\n        /* \"#utility.yul\":1684:1763   */\n      tag_173\n      tag_104\n      jump\t// in\n    tag_173:\n        /* \"#utility.yul\":1648:1765   */\n    tag_172:\n        /* \"#utility.yul\":1797:1862   */\n      tag_174\n        /* \"#utility.yul\":1854:1861   */\n      dup10\n        /* \"#utility.yul\":1845:1851   */\n      dup3\n        /* \"#utility.yul\":1834:1843   */\n      dup11\n        /* \"#utility.yul\":1830:1852   */\n      add\n        /* \"#utility.yul\":1797:1862   */\n      tag_108\n      jump\t// in\n    tag_174:\n        /* \"#utility.yul\":1779:1862   */\n      swap7\n      pop\n      swap7\n      pop\n        /* \"#utility.yul\":1575:1872   */\n      pop\n        /* \"#utility.yul\":1939:1941   */\n      0x20\n        /* \"#utility.yul\":1928:1937   */\n      dup8\n        /* \"#utility.yul\":1924:1942   */\n      add\n        /* \"#utility.yul\":1911:1943   */\n      calldataload\n        /* \"#utility.yul\":1970:1988   */\n      0xffffffffffffffff\n        /* \"#utility.yul\":1962:1968   */\n      dup2\n        /* \"#utility.yul\":1959:1989   */\n      gt\n        /* \"#utility.yul\":1956:2073   */\n      iszero\n      tag_175\n      jumpi\n        /* \"#utility.yul\":1992:2071   */\n      tag_176\n      tag_104\n      jump\t// in\n    tag_176:\n        /* \"#utility.yul\":1956:2073   */\n    tag_175:\n        /* \"#utility.yul\":2105:2170   */\n      tag_177\n        /* \"#utility.yul\":2162:2169   */\n      dup10\n        /* \"#utility.yul\":2153:2159   */\n      dup3\n        /* \"#utility.yul\":2142:2151   */\n      dup11\n        /* \"#utility.yul\":2138:2160   */\n      add\n        /* \"#utility.yul\":2105:2170   */\n      tag_108\n      jump\t// in\n    tag_177:\n        /* \"#utility.yul\":2087:2170   */\n      swap5\n      pop\n      swap5\n      pop\n        /* \"#utility.yul\":1882:2180   */\n      pop\n        /* \"#utility.yul\":2247:2249   */\n      0x40\n        /* \"#utility.yul\":2236:2245   */\n      dup8\n        /* \"#utility.yul\":2232:2250   */\n      add\n        /* \"#utility.yul\":2219:2251   */\n      calldataload\n        /* \"#utility.yul\":2278:2296   */\n      0xffffffffffffffff\n        /* \"#utility.yul\":2270:2276   */\n      dup2\n        /* \"#utility.yul\":2267:2297   */\n      gt\n        /* \"#utility.yul\":2264:2381   */\n      iszero\n      tag_178\n      jumpi\n        /* \"#utility.yul\":2300:2379   */\n      tag_179\n      tag_104\n      jump\t// in\n    tag_179:\n        /* \"#utility.yul\":2264:2381   */\n    tag_178:\n        /* \"#utility.yul\":2413:2478   */\n      tag_180\n        /* \"#utility.yul\":2470:2477   */\n      dup10\n        /* \"#utility.yul\":2461:2467   */\n      dup3\n        /* \"#utility.yul\":2450:2459   */\n      dup11\n        /* \"#utility.yul\":2446:2468   */\n      add\n        /* \"#utility.yul\":2413:2478   */\n      tag_108\n      jump\t// in\n    tag_180:\n        /* \"#utility.yul\":2395:2478   */\n      swap3\n      pop\n      swap3\n      pop\n        /* \"#utility.yul\":2190:2488   */\n      pop\n        /* \"#utility.yul\":1276:2495   */\n      swap3\n      swap6\n      pop\n      swap3\n      swap6\n      pop\n      swap3\n      swap6\n      jump\t// out\n        /* \"#utility.yul\":2501:3375   */\n    tag_15:\n        /* \"#utility.yul\":2593:2599   */\n      0x00\n        /* \"#utility.yul\":2601:2607   */\n      0x00\n        /* \"#utility.yul\":2609:2615   */\n      0x00\n        /* \"#utility.yul\":2617:2623   */\n      0x00\n        /* \"#utility.yul\":2666:2668   */\n      0x40\n        /* \"#utility.yul\":2654:2663   */\n      dup6\n        /* \"#utility.yul\":2645:2652   */\n      dup8\n        /* \"#utility.yul\":2641:2664   */\n      sub\n        /* \"#utility.yul\":2637:2669   */\n      slt\n        /* \"#utility.yul\":2634:2753   */\n      iszero\n      tag_182\n      jumpi\n        /* \"#utility.yul\":2672:2751   */\n      tag_183\n      tag_103\n      jump\t// in\n    tag_183:\n        /* \"#utility.yul\":2634:2753   */\n    tag_182:\n        /* \"#utility.yul\":2820:2821   */\n      0x00\n        /* \"#utility.yul\":2809:2818   */\n      dup6\n        /* \"#utility.yul\":2805:2822   */\n      add\n        /* \"#utility.yul\":2792:2823   */\n      calldataload\n        /* \"#utility.yul\":2850:2868   */\n      0xffffffffffffffff\n        /* \"#utility.yul\":2842:2848   */\n      dup2\n        /* \"#utility.yul\":2839:2869   */\n      gt\n        /* \"#utility.yul\":2836:2953   */\n      iszero\n      tag_184\n      jumpi\n        /* \"#utility.yul\":2872:2951   */\n      tag_185\n      tag_104\n      jump\t// in\n    tag_185:\n        /* \"#utility.yul\":2836:2953   */\n    tag_184:\n        /* \"#utility.yul\":2985:3050   */\n      tag_186\n        /* \"#utility.yul\":3042:3049   */\n      dup8\n        /* \"#utility.yul\":3033:3039   */\n      dup3\n        /* \"#utility.yul\":3022:3031   */\n      dup9\n        /* \"#utility.yul\":3018:3040   */\n      add\n        /* \"#utility.yul\":2985:3050   */\n      tag_108\n      jump\t// in\n    tag_186:\n        /* \"#utility.yul\":2967:3050   */\n      swap5\n      pop\n      swap5\n      pop\n        /* \"#utility.yul\":2763:3060   */\n      pop\n        /* \"#utility.yul\":3127:3129   */\n      0x20\n        /* \"#utility.yul\":3116:3125   */\n      dup6\n        /* \"#utility.yul\":3112:3130   */\n      add\n        /* \"#utility.yul\":3099:3131   */\n      calldataload\n        /* \"#utility.yul\":3158:3176   */\n      0xffffffffffffffff\n        /* \"#utility.yul\":3150:3156   */\n      dup2\n        /* \"#utility.yul\":3147:3177   */\n      gt\n        /* \"#utility.yul\":3144:3261   */\n      iszero\n      tag_187\n      jumpi\n        /* \"#utility.yul\":3180:3259   */\n      tag_188\n      tag_104\n      jump\t// in\n    tag_188:\n        /* \"#utility.yul\":3144:3261   */\n    tag_187:\n        /* \"#utility.yul\":3293:3358   */\n      tag_189\n        /* \"#utility.yul\":3350:3357   */\n      dup8\n        /* \"#utility.yul\":3341:3347   */\n      dup3\n        /* \"#utility.yul\":3330:3339   */\n      dup9\n        /* \"#utility.yul\":3326:3348   */\n      add\n        /* \"#utility.yul\":3293:3358   */\n      tag_108\n      jump\t// in\n    tag_189:\n        /* \"#utility.yul\":3275:3358   */\n      swap3\n      pop\n      swap3\n      pop\n        /* \"#utility.yul\":3070:3368   */\n      pop\n        /* \"#utility.yul\":2501:3375   */\n      swap3\n      swap6\n      swap2\n      swap5\n      pop\n      swap3\n      pop\n      jump\t// out\n        /* \"#utility.yul\":3381:3480   */\n    tag_109:\n        /* \"#utility.yul\":3433:3439   */\n      0x00\n        /* \"#utility.yul\":3467:3472   */\n      dup2\n        /* \"#utility.yul\":3461:3473   */\n      mload\n        /* \"#utility.yul\":3451:3473   */\n      swap1\n      pop\n        /* \"#utility.yul\":3381:3480   */\n      swap2\n      swap1\n      pop\n      jump\t// out\n        /* \"#utility.yul\":3486:3655   */\n    tag_110:\n        /* \"#utility.yul\":3570:3581   */\n      0x00\n        /* \"#utility.yul\":3604:3610   */\n      dup3\n        /* \"#utility.yul\":3599:3602   */\n      dup3\n        /* \"#utility.yul\":3592:3611   */\n      mstore\n        /* \"#utility.yul\":3644:3648   */\n      0x20\n        /* \"#utility.yul\":3639:3642   */\n      dup3\n        /* \"#utility.yul\":3635:3649   */\n      add\n        /* \"#utility.yul\":3620:3649   */\n      swap1\n      pop\n        /* \"#utility.yul\":3486:3655   */\n      swap3\n      swap2\n      pop\n      pop\n      jump\t// out\n        /* \"#utility.yul\":3661:3800   */\n    tag_111:\n        /* \"#utility.yul\":3750:3756   */\n      dup3\n        /* \"#utility.yul\":3745:3748   */\n      dup2\n        /* \"#utility.yul\":3740:3743   */\n      dup4\n        /* \"#utility.yul\":3734:3757   */\n      mcopy\n        /* \"#utility.yul\":3791:3792   */\n      0x00\n        /* \"#utility.yul\":3782:3788   */\n      dup4\n        /* \"#utility.yul\":3777:3780   */\n      dup4\n        /* \"#utility.yul\":3773:3789   */\n      add\n        /* \"#utility.yul\":3766:3793   */\n      mstore\n        /* \"#utility.yul\":3661:3800   */\n      pop\n      pop\n      pop\n      jump\t// out\n        /* \"#utility.yul\":3806:3908   */\n    tag_112:\n        /* \"#utility.yul\":3847:3853   */\n      0x00\n        /* \"#utility.yul\":3898:3900   */\n      0x1f\n        /* \"#utility.yul\":3894:3901   */\n      not\n        /* \"#utility.yul\":3889:3891   */\n      0x1f\n        /* \"#utility.yul\":3882:3887   */\n      dup4\n        /* \"#utility.yul\":3878:3892   */\n      add\n        /* \"#utility.yul\":3874:3902   */\n      and\n        /* \"#utility.yul\":3864:3902   */\n      swap1\n      pop\n        /* \"#utility.yul\":3806:3908   */\n      swap2\n      swap1\n      pop\n      jump\t// out\n        /* \"#utility.yul\":3914:4291   */\n    tag_113:\n        /* \"#utility.yul\":4002:4005   */\n      0x00\n        /* \"#utility.yul\":4030:4069   */\n      tag_195\n        /* \"#utility.yul\":4063:4068   */\n      dup3\n        /* \"#utility.yul\":4030:4069   */\n      tag_109\n      jump\t// in\n    tag_195:\n        /* \"#utility.yul\":4085:4156   */\n      tag_196\n        /* \"#utility.yul\":4149:4155   */\n      dup2\n        /* \"#utility.yul\":4144:4147   */\n      dup6\n        /* \"#utility.yul\":4085:4156   */\n      tag_110\n      jump\t// in\n    tag_196:\n        /* \"#utility.yul\":4078:4156   */\n      swap4\n      pop\n        /* \"#utility.yul\":4165:4230   */\n      tag_197\n        /* \"#utility.yul\":4223:4229   */\n      dup2\n        /* \"#utility.yul\":4218:4221   */\n      dup6\n        /* \"#utility.yul\":4211:4215   */\n      0x20\n        /* \"#utility.yul\":4204:4209   */\n      dup7\n        /* \"#utility.yul\":4200:4216   */\n      add\n        /* \"#utility.yul\":4165:4230   */\n      tag_111\n      jump\t// in\n    tag_197:\n        /* \"#utility.yul\":4255:4284   */\n      tag_198\n        /* \"#utility.yul\":4277:4283   */\n      dup2\n        /* \"#utility.yul\":4255:4284   */\n      tag_112\n      jump\t// in\n    tag_198:\n        /* \"#utility.yul\":4250:4253   */\n      dup5\n        /* \"#utility.yul\":4246:4285   */\n      add\n        /* \"#utility.yul\":4239:4285   */\n      swap2\n      pop\n        /* \"#utility.yul\":4006:4291   */\n      pop\n        /* \"#utility.yul\":3914:4291   */\n      swap3\n      swap2\n      pop\n      pop\n      jump\t// out\n        /* \"#utility.yul\":4297:4374   */\n    tag_114:\n        /* \"#utility.yul\":4334:4341   */\n      0x00\n        /* \"#utility.yul\":4363:4368   */\n      dup2\n        /* \"#utility.yul\":4352:4368   */\n      swap1\n      pop\n        /* \"#utility.yul\":4297:4374   */\n      swap2\n      swap1\n      pop\n      jump\t// out\n        /* \"#utility.yul\":4380:4498   */\n    tag_115:\n        /* \"#utility.yul\":4467:4491   */\n      tag_201\n        /* \"#utility.yul\":4485:4490   */\n      dup2\n        /* \"#utility.yul\":4467:4491   */\n      tag_114\n      jump\t// in\n    tag_201:\n        /* \"#utility.yul\":4462:4465   */\n      dup3\n        /* \"#utility.yul\":4455:4492   */\n      mstore\n        /* \"#utility.yul\":4380:4498   */\n      pop\n      pop\n      jump\t// out\n        /* \"#utility.yul\":4504:4630   */\n    tag_116:\n        /* \"#utility.yul\":4541:4548   */\n      0x00\n        /* \"#utility.yul\":4581:4623   */\n      0xffffffffffffffffffffffffffffffffffffffff\n        /* \"#utility.yul\":4574:4579   */\n      dup3\n        /* \"#utility.yul\":4570:4624   */\n      and\n        /* \"#utility.yul\":4559:4624   */\n      swap1\n      pop\n        /* \"#utility.yul\":4504:4630   */\n      swap2\n      swap1\n      pop\n      jump\t// out\n        /* \"#utility.yul\":4636:4732   */\n    tag_117:\n        /* \"#utility.yul\":4673:4680   */\n      0x00\n        /* \"#utility.yul\":4702:4726   */\n      tag_204\n        /* \"#utility.yul\":4720:4725   */\n      dup3\n        /* \"#utility.yul\":4702:4726   */\n      tag_116\n      jump\t// in\n    tag_204:\n        /* \"#utility.yul\":4691:4726   */\n      swap1\n      pop\n        /* \"#utility.yul\":4636:4732   */\n      swap2\n      swap1\n      pop\n      jump\t// out\n        /* \"#utility.yul\":4738:4856   */\n    tag_118:\n        /* \"#utility.yul\":4825:4849   */\n      tag_206\n        /* \"#utility.yul\":4843:4848   */\n      dup2\n        /* \"#utility.yul\":4825:4849   */\n      tag_117\n      jump\t// in\n    tag_206:\n        /* \"#utility.yul\":4820:4823   */\n      dup3\n        /* \"#utility.yul\":4813:4850   */\n      mstore\n        /* \"#utility.yul\":4738:4856   */\n      pop\n      pop\n      jump\t// out\n        /* \"#utility.yul\":4862:5395   */\n    tag_18:\n        /* \"#utility.yul\":5031:5035   */\n      0x00\n        /* \"#utility.yul\":5069:5071   */\n      0x60\n        /* \"#utility.yul\":5058:5067   */\n      dup3\n        /* \"#utility.yul\":5054:5072   */\n      add\n        /* \"#utility.yul\":5046:5072   */\n      swap1\n      pop\n        /* \"#utility.yul\":5118:5127   */\n      dup2\n        /* \"#utility.yul\":5112:5116   */\n      dup2\n        /* \"#utility.yul\":5108:5128   */\n      sub\n        /* \"#utility.yul\":5104:5105   */\n      0x00\n        /* \"#utility.yul\":5093:5102   */\n      dup4\n        /* \"#utility.yul\":5089:5106   */\n      add\n        /* \"#utility.yul\":5082:5129   */\n      mstore\n        /* \"#utility.yul\":5146:5224   */\n      tag_208\n        /* \"#utility.yul\":5219:5223   */\n      dup2\n        /* \"#utility.yul\":5210:5216   */\n      dup7\n        /* \"#utility.yul\":5146:5224   */\n      tag_113\n      jump\t// in\n    tag_208:\n        /* \"#utility.yul\":5138:5224   */\n      swap1\n      pop\n        /* \"#utility.yul\":5234:5306   */\n      tag_209\n        /* \"#utility.yul\":5302:5304   */\n      0x20\n        /* \"#utility.yul\":5291:5300   */\n      dup4\n        /* \"#utility.yul\":5287:5305   */\n      add\n        /* \"#utility.yul\":5278:5284   */\n      dup6\n        /* \"#utility.yul\":5234:5306   */\n      tag_115\n      jump\t// in\n    tag_209:\n        /* \"#utility.yul\":5316:5388   */\n      tag_210\n        /* \"#utility.yul\":5384:5386   */\n      0x40\n        /* \"#utility.yul\":5373:5382   */\n      dup4\n        /* \"#utility.yul\":5369:5387   */\n      add\n        /* \"#utility.yul\":5360:5366   */\n      dup5\n        /* \"#utility.yul\":5316:5388   */\n      tag_118\n      jump\t// in\n    tag_210:\n        /* \"#utility.yul\":4862:5395   */\n      swap5\n      swap4\n      pop\n      pop\n      pop\n      pop\n      jump\t// out\n        /* \"#utility.yul\":5401:5491   */\n    tag_119:\n        /* \"#utility.yul\":5435:5442   */\n      0x00\n        /* \"#utility.yul\":5478:5483   */\n      dup2\n        /* \"#utility.yul\":5471:5484   */\n      iszero\n        /* \"#utility.yul\":5464:5485   */\n      iszero\n        /* \"#utility.yul\":5453:5485   */\n      swap1\n      pop\n        /* \"#utility.yul\":5401:5491   */\n      swap2\n      swap1\n      pop\n      jump\t// out\n        /* \"#utility.yul\":5497:5606   */\n    tag_120:\n        /* \"#utility.yul\":5578:5599   */\n      tag_213\n        /* \"#utility.yul\":5593:5598   */\n      dup2\n        /* \"#utility.yul\":5578:5599   */\n      tag_119\n      jump\t// in\n    tag_213:\n        /* \"#utility.yul\":5573:5576   */\n      dup3\n        /* \"#utility.yul\":5566:5600   */\n      mstore\n        /* \"#utility.yul\":5497:5606   */\n      pop\n      pop\n      jump\t// out\n        /* \"#utility.yul\":5612:5822   */\n    tag_23:\n        /* \"#utility.yul\":5699:5703   */\n      0x00\n        /* \"#utility.yul\":5737:5739   */\n      0x20\n        /* \"#utility.yul\":5726:5735   */\n      dup3\n        /* \"#utility.yul\":5722:5740   */\n      add\n        /* \"#utility.yul\":5714:5740   */\n      swap1\n      pop\n        /* \"#utility.yul\":5750:5815   */\n      tag_215\n        /* \"#utility.yul\":5812:5813   */\n      0x00\n        /* \"#utility.yul\":5801:5810   */\n      dup4\n        /* \"#utility.yul\":5797:5814   */\n      add\n        /* \"#utility.yul\":5788:5794   */\n      dup5\n        /* \"#utility.yul\":5750:5815   */\n      tag_120\n      jump\t// in\n    tag_215:\n        /* \"#utility.yul\":5612:5822   */\n      swap3\n      swap2\n      pop\n      pop\n      jump\t// out\n        /* \"#utility.yul\":5828:6357   */\n    tag_33:\n        /* \"#utility.yul\":5899:5905   */\n      0x00\n        /* \"#utility.yul\":5907:5913   */\n      0x00\n        /* \"#utility.yul\":5956:5958   */\n      0x20\n        /* \"#utility.yul\":5944:5953   */\n      dup4\n        /* \"#utility.yul\":5935:5942   */\n      dup6\n        /* \"#utility.yul\":5931:5954   */\n      sub\n        /* \"#utility.yul\":5927:5959   */\n      slt\n        /* \"#utility.yul\":5924:6043   */\n      iszero\n      tag_217\n      jumpi\n        /* \"#utility.yul\":5962:6041   */\n      tag_218\n      tag_103\n      jump\t// in\n    tag_218:\n        /* \"#utility.yul\":5924:6043   */\n    tag_217:\n        /* \"#utility.yul\":6110:6111   */\n      0x00\n        /* \"#utility.yul\":6099:6108   */\n      dup4\n        /* \"#utility.yul\":6095:6112   */\n      add\n        /* \"#utility.yul\":6082:6113   */\n      calldataload\n        /* \"#utility.yul\":6140:6158   */\n      0xffffffffffffffff\n        /* \"#utility.yul\":6132:6138   */\n      dup2\n        /* \"#utility.yul\":6129:6159   */\n      gt\n        /* \"#utility.yul\":6126:6243   */\n      iszero\n      tag_219\n      jumpi\n        /* \"#utility.yul\":6162:6241   */\n      tag_220\n      tag_104\n      jump\t// in\n    tag_220:\n        /* \"#utility.yul\":6126:6243   */\n    tag_219:\n        /* \"#utility.yul\":6275:6340   */\n      tag_221\n        /* \"#utility.yul\":6332:6339   */\n      dup6\n        /* \"#utility.yul\":6323:6329   */\n      dup3\n        /* \"#utility.yul\":6312:6321   */\n      dup7\n        /* \"#utility.yul\":6308:6330   */\n      add\n        /* \"#utility.yul\":6275:6340   */\n      tag_108\n      jump\t// in\n    tag_221:\n        /* \"#utility.yul\":6257:6340   */\n      swap3\n      pop\n      swap3\n      pop\n        /* \"#utility.yul\":6053:6350   */\n      pop\n        /* \"#utility.yul\":5828:6357   */\n      swap3\n      pop\n      swap3\n      swap1\n      pop\n      jump\t// out\n        /* \"#utility.yul\":6363:6676   */\n    tag_36:\n        /* \"#utility.yul\":6476:6480   */\n      0x00\n        /* \"#utility.yul\":6514:6516   */\n      0x20\n        /* \"#utility.yul\":6503:6512   */\n      dup3\n        /* \"#utility.yul\":6499:6517   */\n      add\n        /* \"#utility.yul\":6491:6517   */\n      swap1\n      pop\n        /* \"#utility.yul\":6563:6572   */\n      dup2\n        /* \"#utility.yul\":6557:6561   */\n      dup2\n        /* \"#utility.yul\":6553:6573   */\n      sub\n        /* \"#utility.yul\":6549:6550   */\n      0x00\n        /* \"#utility.yul\":6538:6547   */\n      dup4\n        /* \"#utility.yul\":6534:6551   */\n      add\n        /* \"#utility.yul\":6527:6574   */\n      mstore\n        /* \"#utility.yul\":6591:6669   */\n      tag_223\n        /* \"#utility.yul\":6664:6668   */\n      dup2\n        /* \"#utility.yul\":6655:6661   */\n      dup5\n        /* \"#utility.yul\":6591:6669   */\n      tag_113\n      jump\t// in\n    tag_223:\n        /* \"#utility.yul\":6583:6669   */\n      swap1\n      pop\n        /* \"#utility.yul\":6363:6676   */\n      swap3\n      swap2\n      pop\n      pop\n      jump\t// out\n        /* \"#utility.yul\":6682:6851   */\n    tag_121:\n        /* \"#utility.yul\":6822:6843   */\n      0x53747564656e7420494420726571756972656400000000000000000000000000\n        /* \"#utility.yul\":6818:6819   */\n      0x00\n        /* \"#utility.yul\":6810:6816   */\n      dup3\n        /* \"#utility.yul\":6806:6820   */\n      add\n        /* \"#utility.yul\":6799:6844   */\n      mstore\n        /* \"#utility.yul\":6682:6851   */\n      pop\n      jump\t// out\n        /* \"#utility.yul\":6857:7223   */\n    tag_122:\n        /* \"#utility.yul\":6999:7002   */\n      0x00\n        /* \"#utility.yul\":7020:7087   */\n      tag_226\n        /* \"#utility.yul\":7084:7086   */\n      0x13\n        /* \"#utility.yul\":7079:7082   */\n      dup4\n        /* \"#utility.yul\":7020:7087   */\n      tag_110\n      jump\t// in\n    tag_226:\n        /* \"#utility.yul\":7013:7087   */\n      swap2\n      pop\n        /* \"#utility.yul\":7096:7189   */\n      tag_227\n        /* \"#utility.yul\":7185:7188   */\n      dup3\n        /* \"#utility.yul\":7096:7189   */\n      tag_121\n      jump\t// in\n    tag_227:\n        /* \"#utility.yul\":7214:7216   */\n      0x20\n        /* \"#utility.yul\":7209:7212   */\n      dup3\n        /* \"#utility.yul\":7205:7217   */\n      add\n        /* \"#utility.yul\":7198:7217   */\n      swap1\n      pop\n        /* \"#utility.yul\":6857:7223   */\n      swap2\n      swap1\n      pop\n      jump\t// out\n        /* \"#utility.yul\":7229:7648   */\n    tag_40:\n        /* \"#utility.yul\":7395:7399   */\n      0x00\n        /* \"#utility.yul\":7433:7435   */\n      0x20\n        /* \"#utility.yul\":7422:7431   */\n      dup3\n        /* \"#utility.yul\":7418:7436   */\n      add\n        /* \"#utility.yul\":7410:7436   */\n      swap1\n      pop\n        /* \"#utility.yul\":7482:7491   */\n      dup2\n        /* \"#utility.yul\":7476:7480   */\n      dup2\n        /* \"#utility.yul\":7472:7492   */\n      sub\n        /* \"#utility.yul\":7468:7469   */\n      0x00\n        /* \"#utility.yul\":7457:7466   */\n      dup4\n        /* \"#utility.yul\":7453:7470   */\n      add\n        /* \"#utility.yul\":7446:7493   */\n      mstore\n        /* \"#utility.yul\":7510:7641   */\n      tag_229\n        /* \"#utility.yul\":7636:7640   */\n      dup2\n        /* \"#utility.yul\":7510:7641   */\n      tag_122\n      jump\t// in\n    tag_229:\n        /* \"#utility.yul\":7502:7641   */\n      swap1\n      pop\n        /* \"#utility.yul\":7229:7648   */\n      swap2\n      swap1\n      pop\n      jump\t// out\n        /* \"#utility.yul\":7654:7821   */\n    tag_123:\n        /* \"#utility.yul\":7794:7813   */\n      0x446f632074797065207265717569726564000000000000000000000000000000\n        /* \"#utility.yul\":7790:7791   */\n      0x00\n        /* \"#utility.yul\":7782:7788   */\n      dup3\n        /* \"#utility.yul\":7778:7792   */\n      add\n        /* \"#utility.yul\":7771:7814   */\n      mstore\n        /* \"#utility.yul\":7654:7821   */\n      pop\n      jump\t// out\n        /* \"#utility.yul\":7827:8193   */\n    tag_124:\n        /* \"#utility.yul\":7969:7972   */\n      0x00\n        /* \"#utility.yul\":7990:8057   */\n      tag_232\n        /* \"#utility.yul\":8054:8056   */\n      0x11\n        /* \"#utility.yul\":8049:8052   */\n      dup4\n        /* \"#utility.yul\":7990:8057   */\n      tag_110\n      jump\t// in\n    tag_232:\n        /* \"#utility.yul\":7983:8057   */\n      swap2\n      pop\n        /* \"#utility.yul\":8066:8159   */\n      tag_233\n        /* \"#utility.yul\":8155:8158   */\n      dup3\n        /* \"#utility.yul\":8066:8159   */\n      tag_123\n      jump\t// in\n    tag_233:\n        /* \"#utility.yul\":8184:8186   */\n      0x20\n        /* \"#utility.yul\":8179:8182   */\n      dup3\n        /* \"#utility.yul\":8175:8187   */\n      add\n        /* \"#utility.yul\":8168:8187   */\n      swap1\n      pop\n        /* \"#utility.yul\":7827:8193   */\n      swap2\n      swap1\n      pop\n      jump\t// out\n        /* \"#utility.yul\":8199:8618   */\n    tag_43:\n        /* \"#utility.yul\":8365:8369   */\n      0x00\n        /* \"#utility.yul\":8403:8405   */\n      0x20\n        /* \"#utility.yul\":8392:8401   */\n      dup3\n        /* \"#utility.yul\":8388:8406   */\n      add\n        /* \"#utility.yul\":8380:8406   */\n      swap1\n      pop\n        /* \"#utility.yul\":8452:8461   */\n      dup2\n        /* \"#utility.yul\":8446:8450   */\n      dup2\n        /* \"#utility.yul\":8442:8462   */\n      sub\n        /* \"#utility.yul\":8438:8439   */\n      0x00\n        /* \"#utility.yul\":8427:8436   */\n      dup4\n        /* \"#utility.yul\":8423:8440   */\n      add\n        /* \"#utility.yul\":8416:8463   */\n      mstore\n        /* \"#utility.yul\":8480:8611   */\n      tag_235\n        /* \"#utility.yul\":8606:8610   */\n      dup2\n        /* \"#utility.yul\":8480:8611   */\n      tag_124\n      jump\t// in\n    tag_235:\n        /* \"#utility.yul\":8472:8611   */\n      swap1\n      pop\n        /* \"#utility.yul\":8199:8618   */\n      swap2\n      swap1\n      pop\n      jump\t// out\n        /* \"#utility.yul\":8624:8792   */\n    tag_125:\n        /* \"#utility.yul\":8764:8784   */\n      0x46696c6520686173682072657175697265640000000000000000000000000000\n        /* \"#utility.yul\":8760:8761   */\n      0x00\n        /* \"#utility.yul\":8752:8758   */\n      dup3\n        /* \"#utility.yul\":8748:8762   */\n      add\n        /* \"#utility.yul\":8741:8785   */\n      mstore\n        /* \"#utility.yul\":8624:8792   */\n      pop\n      jump\t// out\n        /* \"#utility.yul\":8798:9164   */\n    tag_126:\n        /* \"#utility.yul\":8940:8943   */\n      0x00\n        /* \"#utility.yul\":8961:9028   */\n      tag_238\n        /* \"#utility.yul\":9025:9027   */\n      0x12\n        /* \"#utility.yul\":9020:9023   */\n      dup4\n        /* \"#utility.yul\":8961:9028   */\n      tag_110\n      jump\t// in\n    tag_238:\n        /* \"#utility.yul\":8954:9028   */\n      swap2\n      pop\n        /* \"#utility.yul\":9037:9130   */\n      tag_239\n        /* \"#utility.yul\":9126:9129   */\n      dup3\n        /* \"#utility.yul\":9037:9130   */\n      tag_125\n      jump\t// in\n    tag_239:\n        /* \"#utility.yul\":9155:9157   */\n      0x20\n        /* \"#utility.yul\":9150:9153   */\n      dup3\n        /* \"#utility.yul\":9146:9158   */\n      add\n        /* \"#utility.yul\":9139:9158   */\n      swap1\n      pop\n        /* \"#utility.yul\":8798:9164   */\n      swap2\n      swap1\n      pop\n      jump\t// out\n        /* \"#utility.yul\":9170:9589   */\n    tag_46:\n        /* \"#utility.yul\":9336:9340   */\n      0x00\n        /* \"#utility.yul\":9374:9376   */\n      0x20\n        /* \"#utility.yul\":9363:9372   */\n      dup3\n        /* \"#utility.yul\":9359:9377   */\n      add\n        /* \"#utility.yul\":9351:9377   */\n      swap1\n      pop\n        /* \"#utility.yul\":9423:9432   */\n      dup2\n        /* \"#utility.yul\":9417:9421   */\n      dup2\n        /* \"#utility.yul\":9413:9433   */\n      sub\n        /* \"#utility.yul\":9409:9410   */\n      0x00\n        /* \"#utility.yul\":9398:9407   */\n      dup4\n        /* \"#utility.yul\":9394:9411   */\n      add\n        /* \"#utility.yul\":9387:9434   */\n      mstore\n        /* \"#utility.yul\":9451:9582   */\n      tag_241\n        /* \"#utility.yul\":9577:9581   */\n      dup2\n        /* \"#utility.yul\":9451:9582   */\n      tag_126\n      jump\t// in\n    tag_241:\n        /* \"#utility.yul\":9443:9582   */\n      swap1\n      pop\n        /* \"#utility.yul\":9170:9589   */\n      swap2\n      swap1\n      pop\n      jump\t// out\n        /* \"#utility.yul\":9595:9743   */\n    tag_127:\n        /* \"#utility.yul\":9697:9708   */\n      0x00\n        /* \"#utility.yul\":9734:9737   */\n      dup2\n        /* \"#utility.yul\":9719:9737   */\n      swap1\n      pop\n        /* \"#utility.yul\":9595:9743   */\n      swap3\n      swap2\n      pop\n      pop\n      jump\t// out\n        /* \"#utility.yul\":9749:9897   */\n    tag_128:\n        /* \"#utility.yul\":9847:9853   */\n      dup3\n        /* \"#utility.yul\":9842:9845   */\n      dup2\n        /* \"#utility.yul\":9837:9840   */\n      dup4\n        /* \"#utility.yul\":9824:9854   */\n      calldatacopy\n        /* \"#utility.yul\":9888:9889   */\n      0x00\n        /* \"#utility.yul\":9879:9885   */\n      dup4\n        /* \"#utility.yul\":9874:9877   */\n      dup4\n        /* \"#utility.yul\":9870:9886   */\n      add\n        /* \"#utility.yul\":9863:9890   */\n      mstore\n        /* \"#utility.yul\":9749:9897   */\n      pop\n      pop\n      pop\n      jump\t// out\n        /* \"#utility.yul\":9927:10257   */\n    tag_129:\n        /* \"#utility.yul\":10043:10046   */\n      0x00\n        /* \"#utility.yul\":10064:10153   */\n      tag_245\n        /* \"#utility.yul\":10146:10152   */\n      dup4\n        /* \"#utility.yul\":10141:10144   */\n      dup6\n        /* \"#utility.yul\":10064:10153   */\n      tag_127\n      jump\t// in\n    tag_245:\n        /* \"#utility.yul\":10057:10153   */\n      swap4\n      pop\n        /* \"#utility.yul\":10163:10219   */\n      tag_246\n        /* \"#utility.yul\":10212:10218   */\n      dup4\n        /* \"#utility.yul\":10207:10210   */\n      dup6\n        /* \"#utility.yul\":10200:10205   */\n      dup5\n        /* \"#utility.yul\":10163:10219   */\n      tag_128\n      jump\t// in\n    tag_246:\n        /* \"#utility.yul\":10244:10250   */\n      dup3\n        /* \"#utility.yul\":10239:10242   */\n      dup5\n        /* \"#utility.yul\":10235:10251   */\n      add\n        /* \"#utility.yul\":10228:10251   */\n      swap1\n      pop\n        /* \"#utility.yul\":9927:10257   */\n      swap4\n      swap3\n      pop\n      pop\n      pop\n      jump\t// out\n        /* \"#utility.yul\":10263:10558   */\n    tag_48:\n        /* \"#utility.yul\":10405:10408   */\n      0x00\n        /* \"#utility.yul\":10427:10532   */\n      tag_248\n        /* \"#utility.yul\":10528:10531   */\n      dup3\n        /* \"#utility.yul\":10519:10525   */\n      dup5\n        /* \"#utility.yul\":10511:10517   */\n      dup7\n        /* \"#utility.yul\":10427:10532   */\n      tag_129\n      jump\t// in\n    tag_248:\n        /* \"#utility.yul\":10420:10532   */\n      swap2\n      pop\n        /* \"#utility.yul\":10549:10552   */\n      dup2\n        /* \"#utility.yul\":10542:10552   */\n      swap1\n      pop\n        /* \"#utility.yul\":10263:10558   */\n      swap4\n      swap3\n      pop\n      pop\n      pop\n      jump\t// out\n        /* \"#utility.yul\":10564:10744   */\n    tag_130:\n        /* \"#utility.yul\":10612:10689   */\n      0x4e487b7100000000000000000000000000000000000000000000000000000000\n        /* \"#utility.yul\":10609:10610   */\n      0x00\n        /* \"#utility.yul\":10602:10690   */\n      mstore\n        /* \"#utility.yul\":10709:10713   */\n      0x41\n        /* \"#utility.yul\":10706:10707   */\n      0x04\n        /* \"#utility.yul\":10699:10714   */\n      mstore\n        /* \"#utility.yul\":10733:10737   */\n      0x24\n        /* \"#utility.yul\":10730:10731   */\n      0x00\n        /* \"#utility.yul\":10723:10738   */\n      revert\n        /* \"#utility.yul\":10750:10930   */\n    tag_131:\n        /* \"#utility.yul\":10798:10875   */\n      0x4e487b7100000000000000000000000000000000000000000000000000000000\n        /* \"#utility.yul\":10795:10796   */\n      0x00\n        /* \"#utility.yul\":10788:10876   */\n      mstore\n        /* \"#utility.yul\":10895:10899   */\n      0x22\n        /* \"#utility.yul\":10892:10893   */\n      0x04\n        /* \"#utility.yul\":10885:10900   */\n      mstore\n        /* \"#utility.yul\":10919:10923   */\n      0x24\n        /* \"#utility.yul\":10916:10917   */\n      0x00\n        /* \"#utility.yul\":10909:10924   */\n      revert\n        /* \"#utility.yul\":10936:11256   */\n    tag_59:\n        /* \"#utility.yul\":10980:10986   */\n      0x00\n        /* \"#utility.yul\":11017:11018   */\n      0x02\n        /* \"#utility.yul\":11011:11015   */\n      dup3\n        /* \"#utility.yul\":11007:11019   */\n      div\n        /* \"#utility.yul\":10997:11019   */\n      swap1\n      pop\n        /* \"#utility.yul\":11064:11065   */\n      0x01\n        /* \"#utility.yul\":11058:11062   */\n      dup3\n        /* \"#utility.yul\":11054:11066   */\n      and\n        /* \"#utility.yul\":11085:11103   */\n      dup1\n        /* \"#utility.yul\":11075:11156   */\n      tag_252\n      jumpi\n        /* \"#utility.yul\":11141:11145   */\n      0x7f\n        /* \"#utility.yul\":11133:11139   */\n      dup3\n        /* \"#utility.yul\":11129:11146   */\n      and\n        /* \"#utility.yul\":11119:11146   */\n      swap2\n      pop\n        /* \"#utility.yul\":11075:11156   */\n    tag_252:\n        /* \"#utility.yul\":11203:11205   */\n      0x20\n        /* \"#utility.yul\":11195:11201   */\n      dup3\n        /* \"#utility.yul\":11192:11206   */\n      lt\n        /* \"#utility.yul\":11172:11190   */\n      dup2\n        /* \"#utility.yul\":11169:11207   */\n      sub\n        /* \"#utility.yul\":11166:11250   */\n      tag_253\n      jumpi\n        /* \"#utility.yul\":11222:11240   */\n      tag_254\n      tag_131\n      jump\t// in\n    tag_254:\n        /* \"#utility.yul\":11166:11250   */\n    tag_253:\n        /* \"#utility.yul\":10987:11256   */\n      pop\n        /* \"#utility.yul\":10936:11256   */\n      swap2\n      swap1\n      pop\n      jump\t// out\n        /* \"#utility.yul\":11262:11403   */\n    tag_132:\n        /* \"#utility.yul\":11311:11315   */\n      0x00\n        /* \"#utility.yul\":11334:11337   */\n      dup2\n        /* \"#utility.yul\":11326:11337   */\n      swap1\n      pop\n        /* \"#utility.yul\":11357:11360   */\n      dup2\n        /* \"#utility.yul\":11354:11355   */\n      0x00\n        /* \"#utility.yul\":11347:11361   */\n      mstore\n        /* \"#utility.yul\":11391:11395   */\n      0x20\n        /* \"#utility.yul\":11388:11389   */\n      0x00\n        /* \"#utility.yul\":11378:11396   */\n      keccak256\n        /* \"#utility.yul\":11370:11396   */\n      swap1\n      pop\n        /* \"#utility.yul\":11262:11403   */\n      swap2\n      swap1\n      pop\n      jump\t// out\n        /* \"#utility.yul\":11409:11502   */\n    tag_133:\n        /* \"#utility.yul\":11446:11452   */\n      0x00\n        /* \"#utility.yul\":11493:11495   */\n      0x20\n        /* \"#utility.yul\":11488:11490   */\n      0x1f\n        /* \"#utility.yul\":11481:11486   */\n      dup4\n        /* \"#utility.yul\":11477:11491   */\n      add\n        /* \"#utility.yul\":11473:11496   */\n      div\n        /* \"#utility.yul\":11463:11496   */\n      swap1\n      pop\n        /* \"#utility.yul\":11409:11502   */\n      swap2\n      swap1\n      pop\n      jump\t// out\n        /* \"#utility.yul\":11508:11615   */\n    tag_134:\n        /* \"#utility.yul\":11552:11560   */\n      0x00\n        /* \"#utility.yul\":11602:11607   */\n      dup3\n        /* \"#utility.yul\":11596:11600   */\n      dup3\n        /* \"#utility.yul\":11592:11608   */\n      shl\n        /* \"#utility.yul\":11571:11608   */\n      swap1\n      pop\n        /* \"#utility.yul\":11508:11615   */\n      swap3\n      swap2\n      pop\n      pop\n      jump\t// out\n        /* \"#utility.yul\":11621:12014   */\n    tag_135:\n        /* \"#utility.yul\":11690:11696   */\n      0x00\n        /* \"#utility.yul\":11740:11741   */\n      0x08\n        /* \"#utility.yul\":11728:11738   */\n      dup4\n        /* \"#utility.yul\":11724:11742   */\n      mul\n        /* \"#utility.yul\":11763:11860   */\n      tag_259\n        /* \"#utility.yul\":11793:11859   */\n      0xffffffffffffffffffffffffffffffffffffffffffffffffffffffffffffffff\n        /* \"#utility.yul\":11782:11791   */\n      dup3\n        /* \"#utility.yul\":11763:11860   */\n      tag_134\n      jump\t// in\n    tag_259:\n        /* \"#utility.yul\":11881:11920   */\n      tag_260\n        /* \"#utility.yul\":11911:11919   */\n      dup7\n        /* \"#utility.yul\":11900:11909   */\n      dup4\n        /* \"#utility.yul\":11881:11920   */\n      tag_134\n      jump\t// in\n    tag_260:\n        /* \"#utility.yul\":11869:11920   */\n      swap6\n      pop\n        /* \"#utility.yul\":11953:11957   */\n      dup1\n        /* \"#utility.yul\":11949:11958   */\n      not\n        /* \"#utility.yul\":11942:11947   */\n      dup5\n        /* \"#utility.yul\":11938:11959   */\n      and\n        /* \"#utility.yul\":11929:11959   */\n      swap4\n      pop\n        /* \"#utility.yul\":12002:12006   */\n      dup1\n        /* \"#utility.yul\":11992:12000   */\n      dup7\n        /* \"#utility.yul\":11988:12007   */\n      and\n        /* \"#utility.yul\":11981:11986   */\n      dup5\n        /* \"#utility.yul\":11978:12008   */\n      or\n        /* \"#utility.yul\":11968:12008   */\n      swap3\n      pop\n        /* \"#utility.yul\":11697:12014   */\n      pop\n      pop\n        /* \"#utility.yul\":11621:12014   */\n      swap4\n      swap3\n      pop\n      pop\n      pop\n      jump\t// out\n        /* \"#utility.yul\":12020:12080   */\n    tag_136:\n        /* \"#utility.yul\":12048:12051   */\n      0x00\n        /* \"#utility.yul\":12069:12074   */\n      dup2\n        /* \"#utility.yul\":12062:12074   */\n      swap1\n      pop\n        /* \"#utility.yul\":12020:12080   */\n      swap2\n      swap1\n      pop\n      jump\t// out\n        /* \"#utility.yul\":12086:12228   */\n    tag_137:\n        /* \"#utility.yul\":12136:12145   */\n      0x00\n        /* \"#utility.yul\":12169:12222   */\n      tag_263\n        /* \"#utility.yul\":12187:12221   */\n      tag_264\n        /* \"#utility.yul\":12196:12220   */\n      tag_265\n        /* \"#utility.yul\":12214:12219   */\n      dup5\n        /* \"#utility.yul\":12196:12220   */\n      tag_114\n      jump\t// in\n    tag_265:\n        /* \"#utility.yul\":12187:12221   */\n      tag_136\n      jump\t// in\n    tag_264:\n        /* \"#utility.yul\":12169:12222   */\n      tag_114\n      jump\t// in\n    tag_263:\n        /* \"#utility.yul\":12156:12222   */\n      swap1\n      pop\n        /* \"#utility.yul\":12086:12228   */\n      swap2\n      swap1\n      pop\n      jump\t// out\n        /* \"#utility.yul\":12234:12309   */\n    tag_138:\n        /* \"#utility.yul\":12277:12280   */\n      0x00\n        /* \"#utility.yul\":12298:12303   */\n      dup2\n        /* \"#utility.yul\":12291:12303   */\n      swap1\n      pop\n        /* \"#utility.yul\":12234:12309   */\n      swap2\n      swap1\n      pop\n      jump\t// out\n        /* \"#utility.yul\":12315:12584   */\n    tag_139:\n        /* \"#utility.yul\":12425:12464   */\n      tag_268\n        /* \"#utility.yul\":12456:12463   */\n      dup4\n        /* \"#utility.yul\":12425:12464   */\n      tag_137\n      jump\t// in\n    tag_268:\n        /* \"#utility.yul\":12486:12577   */\n      tag_269\n        /* \"#utility.yul\":12535:12576   */\n      tag_270\n        /* \"#utility.yul\":12559:12575   */\n      dup3\n        /* \"#utility.yul\":12535:12576   */\n      tag_138\n      jump\t// in\n    tag_270:\n        /* \"#utility.yul\":12527:12533   */\n      dup5\n        /* \"#utility.yul\":12520:12524   */\n      dup5\n        /* \"#utility.yul\":12514:12525   */\n      sload\n        /* \"#utility.yul\":12486:12577   */\n      tag_135\n      jump\t// in\n    tag_269:\n        /* \"#utility.yul\":12480:12484   */\n      dup3\n        /* \"#utility.yul\":12473:12578   */\n      sstore\n        /* \"#utility.yul\":12391:12584   */\n      pop\n        /* \"#utility.yul\":12315:12584   */\n      pop\n      pop\n      pop\n      jump\t// out\n        /* \"#utility.yul\":12590:12663   */\n    tag_140:\n        /* \"#utility.yul\":12635:12638   */\n      0x00\n        /* \"#utility.yul\":12656:12657   */\n      0x00\n        /* \"#utility.yul\":12649:12657   */\n      swap1\n      pop\n        /* \"#utility.yul\":12590:12663   */\n      swap1\n      jump\t// out\n        /* \"#utility.yul\":12669:12858   */\n    tag_141:\n        /* \"#utility.yul\":12746:12778   */\n      tag_273\n      tag_140\n      jump\t// in\n    tag_273:\n        /* \"#utility.yul\":12787:12852   */\n      tag_274\n        /* \"#utility.yul\":12845:12851   */\n      dup2\n        /* \"#utility.yul\":12837:12843   */\n      dup5\n        /* \"#utility.yul\":12831:12835   */\n      dup5\n        /* \"#utility.yul\":12787:12852   */\n      tag_139\n      jump\t// in\n    tag_274:\n        /* \"#utility.yul\":12722:12858   */\n      pop\n        /* \"#utility.yul\":12669:12858   */\n      pop\n      pop\n      jump\t// out\n        /* \"#utility.yul\":12864:13050   */\n    tag_142:\n        /* \"#utility.yul\":12924:13044   */\n    tag_276:\n        /* \"#utility.yul\":12941:12944   */\n      dup2\n        /* \"#utility.yul\":12934:12939   */\n      dup2\n        /* \"#utility.yul\":12931:12945   */\n      lt\n        /* \"#utility.yul\":12924:13044   */\n      iszero\n      tag_278\n      jumpi\n        /* \"#utility.yul\":12995:13034   */\n      tag_279\n        /* \"#utility.yul\":13032:13033   */\n      0x00\n        /* \"#utility.yul\":13025:13030   */\n      dup3\n        /* \"#utility.yul\":12995:13034   */\n      tag_141\n      jump\t// in\n    tag_279:\n        /* \"#utility.yul\":12968:12969   */\n      0x01\n        /* \"#utility.yul\":12961:12966   */\n      dup2\n        /* \"#utility.yul\":12957:12970   */\n      add\n        /* \"#utility.yul\":12948:12970   */\n      swap1\n      pop\n        /* \"#utility.yul\":12924:13044   */\n      jump(tag_276)\n    tag_278:\n        /* \"#utility.yul\":12864:13050   */\n      pop\n      pop\n      jump\t// out\n        /* \"#utility.yul\":13056:13599   */\n    tag_143:\n        /* \"#utility.yul\":13157:13159   */\n      0x1f\n        /* \"#utility.yul\":13152:13155   */\n      dup3\n        /* \"#utility.yul\":13149:13160   */\n      gt\n        /* \"#utility.yul\":13146:13592   */\n      iszero\n      tag_281\n      jumpi\n        /* \"#utility.yul\":13191:13229   */\n      tag_282\n        /* \"#utility.yul\":13223:13228   */\n      dup2\n        /* \"#utility.yul\":13191:13229   */\n      tag_132\n      jump\t// in\n    tag_282:\n        /* \"#utility.yul\":13275:13304   */\n      tag_283\n        /* \"#utility.yul\":13293:13303   */\n      dup5\n        /* \"#utility.yul\":13275:13304   */\n      tag_133\n      jump\t// in\n    tag_283:\n        /* \"#utility.yul\":13265:13273   */\n      dup2\n        /* \"#utility.yul\":13261:13305   */\n      add\n        /* \"#utility.yul\":13458:13460   */\n      0x20\n        /* \"#utility.yul\":13446:13456   */\n      dup6\n        /* \"#utility.yul\":13443:13461   */\n      lt\n        /* \"#utility.yul\":13440:13489   */\n      iszero\n      tag_284\n      jumpi\n        /* \"#utility.yul\":13479:13487   */\n      dup2\n        /* \"#utility.yul\":13464:13487   */\n      swap1\n      pop\n        /* \"#utility.yul\":13440:13489   */\n    tag_284:\n        /* \"#utility.yul\":13502:13582   */\n      tag_285\n        /* \"#utility.yul\":13558:13580   */\n      tag_286\n        /* \"#utility.yul\":13576:13579   */\n      dup6\n        /* \"#utility.yul\":13558:13580   */\n      tag_133\n      jump\t// in\n    tag_286:\n        /* \"#utility.yul\":13548:13556   */\n      dup4\n        /* \"#utility.yul\":13544:13581   */\n      add\n        /* \"#utility.yul\":13531:13542   */\n      dup3\n        /* \"#utility.yul\":13502:13582   */\n      tag_142\n      jump\t// in\n    tag_285:\n        /* \"#utility.yul\":13161:13592   */\n      pop\n      pop\n        /* \"#utility.yul\":13146:13592   */\n    tag_281:\n        /* \"#utility.yul\":13056:13599   */\n      pop\n      pop\n      pop\n      jump\t// out\n        /* \"#utility.yul\":13605:13722   */\n    tag_144:\n        /* \"#utility.yul\":13659:13667   */\n      0x00\n        /* \"#utility.yul\":13709:13714   */\n      dup3\n        /* \"#utility.yul\":13703:13707   */\n      dup3\n        /* \"#utility.yul\":13699:13715   */\n      shr\n        /* \"#utility.yul\":13678:13715   */\n      swap1\n      pop\n        /* \"#utility.yul\":13605:13722   */\n      swap3\n      swap2\n      pop\n      pop\n      jump\t// out\n        /* \"#utility.yul\":13728:13897   */\n    tag_145:\n        /* \"#utility.yul\":13772:13778   */\n      0x00\n        /* \"#utility.yul\":13805:13856   */\n      tag_289\n        /* \"#utility.yul\":13853:13854   */\n      0x00\n        /* \"#utility.yul\":13849:13855   */\n      not\n        /* \"#utility.yul\":13841:13846   */\n      dup5\n        /* \"#utility.yul\":13838:13839   */\n      0x08\n        /* \"#utility.yul\":13834:13847   */\n      mul\n        /* \"#utility.yul\":13805:13856   */\n      tag_144\n      jump\t// in\n    tag_289:\n        /* \"#utility.yul\":13801:13857   */\n      not\n        /* \"#utility.yul\":13886:13890   */\n      dup1\n        /* \"#utility.yul\":13880:13884   */\n      dup4\n        /* \"#utility.yul\":13876:13891   */\n      and\n        /* \"#utility.yul\":13866:13891   */\n      swap2\n      pop\n        /* \"#utility.yul\":13779:13897   */\n      pop\n        /* \"#utility.yul\":13728:13897   */\n      swap3\n      swap2\n      pop\n      pop\n      jump\t// out\n        /* \"#utility.yul\":13902:14197   */\n    tag_146:\n        /* \"#utility.yul\":13978:13982   */\n      0x00\n        /* \"#utility.yul\":14124:14153   */\n      tag_291\n        /* \"#utility.yul\":14149:14152   */\n      dup4\n        /* \"#utility.yul\":14143:14147   */\n      dup4\n        /* \"#utility.yul\":14124:14153   */\n      tag_145\n      jump\t// in\n    tag_291:\n        /* \"#utility.yul\":14116:14153   */\n      swap2\n      pop\n        /* \"#utility.yul\":14186:14189   */\n      dup3\n        /* \"#utility.yul\":14183:14184   */\n      0x02\n        /* \"#utility.yul\":14179:14190   */\n      mul\n        /* \"#utility.yul\":14173:14177   */\n      dup3\n        /* \"#utility.yul\":14170:14191   */\n      or\n        /* \"#utility.yul\":14162:14191   */\n      swap1\n      pop\n        /* \"#utility.yul\":13902:14197   */\n      swap3\n      swap2\n      pop\n      pop\n      jump\t// out\n        /* \"#utility.yul\":14202:15597   */\n    tag_51:\n        /* \"#utility.yul\":14319:14356   */\n      tag_293\n        /* \"#utility.yul\":14352:14355   */\n      dup3\n        /* \"#utility.yul\":14319:14356   */\n      tag_109\n      jump\t// in\n    tag_293:\n        /* \"#utility.yul\":14421:14439   */\n      0xffffffffffffffff\n        /* \"#utility.yul\":14413:14419   */\n      dup2\n        /* \"#utility.yul\":14410:14440   */\n      gt\n        /* \"#utility.yul\":14407:14463   */\n      iszero\n      tag_294\n      jumpi\n        /* \"#utility.yul\":14443:14461   */\n      tag_295\n      tag_130\n      jump\t// in\n    tag_295:\n        /* \"#utility.yul\":14407:14463   */\n    tag_294:\n        /* \"#utility.yul\":14487:14525   */\n      tag_296\n        /* \"#utility.yul\":14519:14523   */\n      dup3\n        /* \"#utility.yul\":14513:14524   */\n      sload\n        /* \"#utility.yul\":14487:14525   */\n      tag_59\n      jump\t// in\n    tag_296:\n        /* \"#utility.yul\":14572:14639   */\n      tag_297\n        /* \"#utility.yul\":14632:14638   */\n      dup3\n        /* \"#utility.yul\":14624:14630   */\n      dup3\n        /* \"#utility.yul\":14618:14622   */\n      dup6\n        /* \"#utility.yul\":14572:14639   */\n      tag_143\n      jump\t// in\n    tag_297:\n        /* \"#utility.yul\":14666:14667   */\n      0x00\n        /* \"#utility.yul\":14690:14694   */\n      0x20\n        /* \"#utility.yul\":14677:14694   */\n      swap1\n      pop\n        /* \"#utility.yul\":14722:14724   */\n      0x1f\n        /* \"#utility.yul\":14714:14720   */\n      dup4\n        /* \"#utility.yul\":14711:14725   */\n      gt\n        /* \"#utility.yul\":14739:14740   */\n      0x01\n        /* \"#utility.yul\":14734:15352   */\n      dup2\n      eq\n      tag_299\n      jumpi\n        /* \"#utility.yul\":15396:15397   */\n      0x00\n        /* \"#utility.yul\":15413:15419   */\n      dup5\n        /* \"#utility.yul\":15410:15487   */\n      iszero\n      tag_300\n      jumpi\n        /* \"#utility.yul\":15462:15471   */\n      dup3\n        /* \"#utility.yul\":15457:15460   */\n      dup8\n        /* \"#utility.yul\":15453:15472   */\n      add\n        /* \"#utility.yul\":15447:15473   */\n      mload\n        /* \"#utility.yul\":15438:15473   */\n      swap1\n      pop\n        /* \"#utility.yul\":15410:15487   */\n    tag_300:\n        /* \"#utility.yul\":15513:15580   */\n      tag_301\n        /* \"#utility.yul\":15573:15579   */\n      dup6\n        /* \"#utility.yul\":15566:15571   */\n      dup3\n        /* \"#utility.yul\":15513:15580   */\n      tag_146\n      jump\t// in\n    tag_301:\n        /* \"#utility.yul\":15507:15511   */\n      dup7\n        /* \"#utility.yul\":15500:15581   */\n      sstore\n        /* \"#utility.yul\":15369:15591   */\n      pop\n        /* \"#utility.yul\":14704:15591   */\n      jump(tag_298)\n        /* \"#utility.yul\":14734:15352   */\n    tag_299:\n        /* \"#utility.yul\":14786:14790   */\n      0x1f\n        /* \"#utility.yul\":14782:14791   */\n      not\n        /* \"#utility.yul\":14774:14780   */\n      dup5\n        /* \"#utility.yul\":14770:14792   */\n      and\n        /* \"#utility.yul\":14820:14857   */\n      tag_302\n        /* \"#utility.yul\":14852:14856   */\n      dup7\n        /* \"#utility.yul\":14820:14857   */\n      tag_132\n      jump\t// in\n    tag_302:\n        /* \"#utility.yul\":14879:14880   */\n      0x00\n        /* \"#utility.yul\":14893:15101   */\n    tag_303:\n        /* \"#utility.yul\":14907:14914   */\n      dup3\n        /* \"#utility.yul\":14904:14905   */\n      dup2\n        /* \"#utility.yul\":14901:14915   */\n      lt\n        /* \"#utility.yul\":14893:15101   */\n      iszero\n      tag_305\n      jumpi\n        /* \"#utility.yul\":14986:14995   */\n      dup5\n        /* \"#utility.yul\":14981:14984   */\n      dup10\n        /* \"#utility.yul\":14977:14996   */\n      add\n        /* \"#utility.yul\":14971:14997   */\n      mload\n        /* \"#utility.yul\":14963:14969   */\n      dup3\n        /* \"#utility.yul\":14956:14998   */\n      sstore\n        /* \"#utility.yul\":15037:15038   */\n      0x01\n        /* \"#utility.yul\":15029:15035   */\n      dup3\n        /* \"#utility.yul\":15025:15039   */\n      add\n        /* \"#utility.yul\":15015:15039   */\n      swap2\n      pop\n        /* \"#utility.yul\":15084:15086   */\n      0x20\n        /* \"#utility.yul\":15073:15082   */\n      dup6\n        /* \"#utility.yul\":15069:15087   */\n      add\n        /* \"#utility.yul\":15056:15087   */\n      swap5\n      pop\n        /* \"#utility.yul\":14930:14934   */\n      0x20\n        /* \"#utility.yul\":14927:14928   */\n      dup2\n        /* \"#utility.yul\":14923:14935   */\n      add\n        /* \"#utility.yul\":14918:14935   */\n      swap1\n      pop\n        /* \"#utility.yul\":14893:15101   */\n      jump(tag_303)\n    tag_305:\n        /* \"#utility.yul\":15129:15135   */\n      dup7\n        /* \"#utility.yul\":15120:15127   */\n      dup4\n        /* \"#utility.yul\":15117:15136   */\n      lt\n        /* \"#utility.yul\":15114:15293   */\n      iszero\n      tag_306\n      jumpi\n        /* \"#utility.yul\":15187:15196   */\n      dup5\n        /* \"#utility.yul\":15182:15185   */\n      dup10\n        /* \"#utility.yul\":15178:15197   */\n      add\n        /* \"#utility.yul\":15172:15198   */\n      mload\n        /* \"#utility.yul\":15230:15278   */\n      tag_307\n        /* \"#utility.yul\":15272:15276   */\n      0x1f\n        /* \"#utility.yul\":15264:15270   */\n      dup10\n        /* \"#utility.yul\":15260:15277   */\n      and\n        /* \"#utility.yul\":15249:15258   */\n      dup3\n        /* \"#utility.yul\":15230:15278   */\n      tag_145\n      jump\t// in\n    tag_307:\n        /* \"#utility.yul\":15222:15228   */\n      dup4\n        /* \"#utility.yul\":15215:15279   */\n      sstore\n        /* \"#utility.yul\":15137:15293   */\n      pop\n        /* \"#utility.yul\":15114:15293   */\n    tag_306:\n        /* \"#utility.yul\":15339:15340   */\n      0x01\n        /* \"#utility.yul\":15335:15336   */\n      0x02\n        /* \"#utility.yul\":15327:15333   */\n      dup9\n        /* \"#utility.yul\":15323:15337   */\n      mul\n        /* \"#utility.yul\":15319:15341   */\n      add\n        /* \"#utility.yul\":15313:15317   */\n      dup9\n        /* \"#utility.yul\":15306:15342   */\n      sstore\n        /* \"#utility.yul\":14741:15352   */\n      pop\n      pop\n      pop\n        /* \"#utility.yul\":14704:15591   */\n    tag_298:\n      pop\n        /* \"#utility.yul\":14294:15597   */\n      pop\n      pop\n      pop\n        /* \"#utility.yul\":14202:15597   */\n      pop\n      pop\n      jump\t// out\n        /* \"#utility.yul\":15627:15944   */\n    tag_147:\n        /* \"#utility.yul\":15725:15728   */\n      0x00\n        /* \"#utility.yul\":15746:15817   */\n      tag_309\n        /* \"#utility.yul\":15810:15816   */\n      dup4\n        /* \"#utility.yul\":15805:15808   */\n      dup6\n        /* \"#utility.yul\":15746:15817   */\n      tag_110\n      jump\t// in\n    tag_309:\n        /* \"#utility.yul\":15739:15817   */\n      swap4\n      pop\n        /* \"#utility.yul\":15827:15883   */\n      tag_310\n        /* \"#utility.yul\":15876:15882   */\n      dup4\n        /* \"#utility.yul\":15871:15874   */\n      dup6\n        /* \"#utility.yul\":15864:15869   */\n      dup5\n        /* \"#utility.yul\":15827:15883   */\n      tag_128\n      jump\t// in\n    tag_310:\n        /* \"#utility.yul\":15908:15937   */\n      tag_311\n        /* \"#utility.yul\":15930:15936   */\n      dup4\n        /* \"#utility.yul\":15908:15937   */\n      tag_112\n      jump\t// in\n    tag_311:\n        /* \"#utility.yul\":15903:15906   */\n      dup5\n        /* \"#utility.yul\":15899:15938   */\n      add\n        /* \"#utility.yul\":15892:15938   */\n      swap1\n      pop\n        /* \"#utility.yul\":15627:15944   */\n      swap4\n      swap3\n      pop\n      pop\n      pop\n      jump\t// out\n        /* \"#utility.yul\":15950:16725   */\n    tag_54:\n        /* \"#utility.yul\":16187:16191   */\n      0x00\n        /* \"#utility.yul\":16225:16228   */\n      0x80\n        /* \"#utility.yul\":16214:16223   */\n      dup3\n        /* \"#utility.yul\":16210:16229   */\n      add\n        /* \"#utility.yul\":16202:16229   */\n      swap1\n      pop\n        /* \"#utility.yul\":16275:16284   */\n      dup2\n        /* \"#utility.yul\":16269:16273   */\n      dup2\n        /* \"#utility.yul\":16265:16285   */\n      sub\n        /* \"#utility.yul\":16261:16262   */\n      0x00\n        /* \"#utility.yul\":16250:16259   */\n      dup4\n        /* \"#utility.yul\":16246:16263   */\n      add\n        /* \"#utility.yul\":16239:16286   */\n      mstore\n        /* \"#utility.yul\":16303:16391   */\n      tag_313\n        /* \"#utility.yul\":16386:16390   */\n      dup2\n        /* \"#utility.yul\":16377:16383   */\n      dup9\n        /* \"#utility.yul\":16369:16375   */\n      dup11\n        /* \"#utility.yul\":16303:16391   */\n      tag_147\n      jump\t// in\n    tag_313:\n        /* \"#utility.yul\":16295:16391   */\n      swap1\n      pop\n        /* \"#utility.yul\":16438:16447   */\n      dup2\n        /* \"#utility.yul\":16432:16436   */\n      dup2\n        /* \"#utility.yul\":16428:16448   */\n      sub\n        /* \"#utility.yul\":16423:16425   */\n      0x20\n        /* \"#utility.yul\":16412:16421   */\n      dup4\n        /* \"#utility.yul\":16408:16426   */\n      add\n        /* \"#utility.yul\":16401:16449   */\n      mstore\n        /* \"#utility.yul\":16466:16554   */\n      tag_314\n        /* \"#utility.yul\":16549:16553   */\n      dup2\n        /* \"#utility.yul\":16540:16546   */\n      dup7\n        /* \"#utility.yul\":16532:16538   */\n      dup9\n        /* \"#utility.yul\":16466:16554   */\n      tag_147\n      jump\t// in\n    tag_314:\n        /* \"#utility.yul\":16458:16554   */\n      swap1\n      pop\n        /* \"#utility.yul\":16564:16636   */\n      tag_315\n        /* \"#utility.yul\":16632:16634   */\n      0x40\n        /* \"#utility.yul\":16621:16630   */\n      dup4\n        /* \"#utility.yul\":16617:16635   */\n      add\n        /* \"#utility.yul\":16608:16614   */\n      dup6\n        /* \"#utility.yul\":16564:16636   */\n      tag_115\n      jump\t// in\n    tag_315:\n        /* \"#utility.yul\":16646:16718   */\n      tag_316\n        /* \"#utility.yul\":16714:16716   */\n      0x60\n        /* \"#utility.yul\":16703:16712   */\n      dup4\n        /* \"#utility.yul\":16699:16717   */\n      add\n        /* \"#utility.yul\":16690:16696   */\n      dup5\n        /* \"#utility.yul\":16646:16718   */\n      tag_118\n      jump\t// in\n    tag_316:\n        /* \"#utility.yul\":15950:16725   */\n      swap8\n      swap7\n      pop\n      pop\n      pop\n      pop\n      pop\n      pop\n      pop\n      jump\t// out\n        /* \"#utility.yul\":16731:16878   */\n    tag_148:\n        /* \"#utility.yul\":16832:16843   */\n      0x00\n        /* \"#utility.yul\":16869:16872   */\n      dup2\n        /* \"#utility.yul\":16854:16872   */\n      swap1\n      pop\n        /* \"#utility.yul\":16731:16878   */\n      swap3\n      swap2\n      pop\n      pop\n      jump\t// out\n        /* \"#utility.yul\":16906:17233   */\n    tag_149:\n        /* \"#utility.yul\":17020:17023   */\n      0x00\n        /* \"#utility.yul\":17041:17129   */\n      tag_319\n        /* \"#utility.yul\":17122:17128   */\n      dup4\n        /* \"#utility.yul\":17117:17120   */\n      dup6\n        /* \"#utility.yul\":17041:17129   */\n      tag_148\n      jump\t// in\n    tag_319:\n        /* \"#utility.yul\":17034:17129   */\n      swap4\n      pop\n        /* \"#utility.yul\":17139:17195   */\n      tag_320\n        /* \"#utility.yul\":17188:17194   */\n      dup4\n        /* \"#utility.yul\":17183:17186   */\n      dup6\n        /* \"#utility.yul\":17176:17181   */\n      dup5\n        /* \"#utility.yul\":17139:17195   */\n      tag_128\n      jump\t// in\n    tag_320:\n        /* \"#utility.yul\":17220:17226   */\n      dup3\n        /* \"#utility.yul\":17215:17218   */\n      dup5\n        /* \"#utility.yul\":17211:17227   */\n      add\n        /* \"#utility.yul\":17204:17227   */\n      swap1\n      pop\n        /* \"#utility.yul\":16906:17233   */\n      swap4\n      swap3\n      pop\n      pop\n      pop\n      jump\t// out\n        /* \"#utility.yul\":17239:17530   */\n    tag_77:\n        /* \"#utility.yul\":17379:17382   */\n      0x00\n        /* \"#utility.yul\":17401:17504   */\n      tag_322\n        /* \"#utility.yul\":17500:17503   */\n      dup3\n        /* \"#utility.yul\":17491:17497   */\n      dup5\n        /* \"#utility.yul\":17483:17489   */\n      dup7\n        /* \"#utility.yul\":17401:17504   */\n      tag_149\n      jump\t// in\n    tag_322:\n        /* \"#utility.yul\":17394:17504   */\n      swap2\n      pop\n        /* \"#utility.yul\":17521:17524   */\n      dup2\n        /* \"#utility.yul\":17514:17524   */\n      swap1\n      pop\n        /* \"#utility.yul\":17239:17530   */\n      swap4\n      swap3\n      pop\n      pop\n      pop\n      jump\t// out\n        /* \"#utility.yul\":17536:17710   */\n    tag_150:\n        /* \"#utility.yul\":17676:17702   */\n      0x566572696669636174696f6e2049442072657175697265640000000000000000\n        /* \"#utility.yul\":17672:17673   */\n      0x00\n        /* \"#utility.yul\":17664:17670   */\n      dup3\n        /* \"#utility.yul\":17660:17674   */\n      add\n        /* \"#utility.yul\":17653:17703   */\n      mstore\n        /* \"#utility.yul\":17536:17710   */\n      pop\n      jump\t// out\n        /* \"#utility.yul\":17716:18082   */\n    tag_151:\n        /* \"#utility.yul\":17858:17861   */\n      0x00\n        /* \"#utility.yul\":17879:17946   */\n      tag_325\n        /* \"#utility.yul\":17943:17945   */\n      0x18\n        /* \"#utility.yul\":17938:17941   */\n      dup4\n        /* \"#utility.yul\":17879:17946   */\n      tag_110\n      jump\t// in\n    tag_325:\n        /* \"#utility.yul\":17872:17946   */\n      swap2\n      pop\n        /* \"#utility.yul\":17955:18048   */\n      tag_326\n        /* \"#utility.yul\":18044:18047   */\n      dup3\n        /* \"#utility.yul\":17955:18048   */\n      tag_150\n      jump\t// in\n    tag_326:\n        /* \"#utility.yul\":18073:18075   */\n      0x20\n        /* \"#utility.yul\":18068:18071   */\n      dup3\n        /* \"#utility.yul\":18064:18076   */\n      add\n        /* \"#utility.yul\":18057:18076   */\n      swap1\n      pop\n        /* \"#utility.yul\":17716:18082   */\n      swap2\n      swap1\n      pop\n      jump\t// out\n        /* \"#utility.yul\":18088:18507   */\n    tag_83:\n        /* \"#utility.yul\":18254:18258   */\n      0x00\n        /* \"#utility.yul\":18292:18294   */\n      0x20\n        /* \"#utility.yul\":18281:18290   */\n      dup3\n        /* \"#utility.yul\":18277:18295   */\n      add\n        /* \"#utility.yul\":18269:18295   */\n      swap1\n      pop\n        /* \"#utility.yul\":18341:18350   */\n      dup2\n        /* \"#utility.yul\":18335:18339   */\n      dup2\n        /* \"#utility.yul\":18331:18351   */\n      sub\n        /* \"#utility.yul\":18327:18328   */\n      0x00\n        /* \"#utility.yul\":18316:18325   */\n      dup4\n        /* \"#utility.yul\":18312:18329   */\n      add\n        /* \"#utility.yul\":18305:18352   */\n      mstore\n        /* \"#utility.yul\":18369:18500   */\n      tag_328\n        /* \"#utility.yul\":18495:18499   */\n      dup2\n        /* \"#utility.yul\":18369:18500   */\n      tag_151\n      jump\t// in\n    tag_328:\n        /* \"#utility.yul\":18361:18500   */\n      swap1\n      pop\n        /* \"#utility.yul\":18088:18507   */\n      swap2\n      swap1\n      pop\n      jump\t// out\n        /* \"#utility.yul\":18513:18691   */\n    tag_152:\n        /* \"#utility.yul\":18653:18683   */\n      0x566572696669636174696f6e20494420616c7265616479207573656400000000\n        /* \"#utility.yul\":18649:18650   */\n      0x00\n        /* \"#utility.yul\":18641:18647   */\n      dup3\n        /* \"#utility.yul\":18637:18651   */\n      add\n        /* \"#utility.yul\":18630:18684   */\n      mstore\n        /* \"#utility.yul\":18513:18691   */\n      pop\n      jump\t// out\n        /* \"#utility.yul\":18697:19063   */\n    tag_153:\n        /* \"#utility.yul\":18839:18842   */\n      0x00\n        /* \"#utility.yul\":18860:18927   */\n      tag_331\n        /* \"#utility.yul\":18924:18926   */\n      0x1c\n        /* \"#utility.yul\":18919:18922   */\n      dup4\n        /* \"#utility.yul\":18860:18927   */\n      tag_110\n      jump\t// in\n    tag_331:\n        /* \"#utility.yul\":18853:18927   */\n      swap2\n      pop\n        /* \"#utility.yul\":18936:19029   */\n      tag_332\n        /* \"#utility.yul\":19025:19028   */\n      dup3\n        /* \"#utility.yul\":18936:19029   */\n      tag_152\n      jump\t// in\n    tag_332:\n        /* \"#utility.yul\":19054:19056   */\n      0x20\n        /* \"#utility.yul\":19049:19052   */\n      dup3\n        /* \"#utility.yul\":19045:19057   */\n      add\n        /* \"#utility.yul\":19038:19057   */\n      swap1\n      pop\n        /* \"#utility.yul\":18697:19063   */\n      swap2\n      swap1\n      pop\n      jump\t// out\n        /* \"#utility.yul\":19069:19488   */\n    tag_88:\n        /* \"#utility.yul\":19235:19239   */\n      0x00\n        /* \"#utility.yul\":19273:19275   */\n      0x20\n        /* \"#utility.yul\":19262:19271   */\n      dup3\n        /* \"#utility.yul\":19258:19276   */\n      add\n        /* \"#utility.yul\":19250:19276   */\n      swap1\n      pop\n        /* \"#utility.yul\":19322:19331   */\n      dup2\n        /* \"#utility.yul\":19316:19320   */\n      dup2\n        /* \"#utility.yul\":19312:19332   */\n      sub\n        /* \"#utility.yul\":19308:19309   */\n      0x00\n        /* \"#utility.yul\":19297:19306   */\n      dup4\n        /* \"#utility.yul\":19293:19310   */\n      add\n        /* \"#utility.yul\":19286:19333   */\n      mstore\n        /* \"#utility.yul\":19350:19481   */\n      tag_334\n        /* \"#utility.yul\":19476:19480   */\n      dup2\n        /* \"#utility.yul\":19350:19481   */\n      tag_153\n      jump\t// in\n    tag_334:\n        /* \"#utility.yul\":19342:19481   */\n      swap1\n      pop\n        /* \"#utility.yul\":19069:19488   */\n      swap2\n      swap1\n      pop\n      jump\t// out\n        /* \"#utility.yul\":19494:19591   */\n    tag_154:\n        /* \"#utility.yul\":19553:19559   */\n      0x00\n        /* \"#utility.yul\":19581:19584   */\n      dup3\n        /* \"#utility.yul\":19571:19584   */\n      swap1\n      pop\n        /* \"#utility.yul\":19494:19591   */\n      swap3\n      swap2\n      pop\n      pop\n      jump\t// out\n        /* \"#utility.yul\":19597:21000   */\n    tag_91:\n        /* \"#utility.yul\":19721:19765   */\n      tag_337\n        /* \"#utility.yul\":19761:19764   */\n      dup4\n        /* \"#utility.yul\":19756:19759   */\n      dup4\n        /* \"#utility.yul\":19721:19765   */\n      tag_154\n      jump\t// in\n    tag_337:\n        /* \"#utility.yul\":19830:19848   */\n      0xffffffffffffffff\n        /* \"#utility.yul\":19822:19828   */\n      dup2\n        /* \"#utility.yul\":19819:19849   */\n      gt\n        /* \"#utility.yul\":19816:19872   */\n      iszero\n      tag_338\n      jumpi\n        /* \"#utility.yul\":19852:19870   */\n      tag_339\n      tag_130\n      jump\t// in\n    tag_339:\n        /* \"#utility.yul\":19816:19872   */\n    tag_338:\n        /* \"#utility.yul\":19896:19934   */\n      tag_340\n        /* \"#utility.yul\":19928:19932   */\n      dup3\n        /* \"#utility.yul\":19922:19933   */\n      sload\n        /* \"#utility.yul\":19896:19934   */\n      tag_59\n      jump\t// in\n    tag_340:\n        /* \"#utility.yul\":19981:20048   */\n      tag_341\n        /* \"#utility.yul\":20041:20047   */\n      dup3\n        /* \"#utility.yul\":20033:20039   */\n      dup3\n        /* \"#utility.yul\":20027:20031   */\n      dup6\n        /* \"#utility.yul\":19981:20048   */\n      tag_143\n      jump\t// in\n    tag_341:\n        /* \"#utility.yul\":20075:20076   */\n      0x00\n        /* \"#utility.yul\":20104:20106   */\n      0x1f\n        /* \"#utility.yul\":20096:20102   */\n      dup4\n        /* \"#utility.yul\":20093:20107   */\n      gt\n        /* \"#utility.yul\":20121:20122   */\n      0x01\n        /* \"#utility.yul\":20116:20748   */\n      dup2\n      eq\n      tag_343\n      jumpi\n        /* \"#utility.yul\":20792:20793   */\n      0x00\n        /* \"#utility.yul\":20809:20815   */\n      dup5\n        /* \"#utility.yul\":20806:20890   */\n      iszero\n      tag_344\n      jumpi\n        /* \"#utility.yul\":20865:20874   */\n      dup3\n        /* \"#utility.yul\":20860:20863   */\n      dup8\n        /* \"#utility.yul\":20856:20875   */\n      add\n        /* \"#utility.yul\":20843:20876   */\n      calldataload\n        /* \"#utility.yul\":20834:20876   */\n      swap1\n      pop\n        /* \"#utility.yul\":20806:20890   */\n    tag_344:\n        /* \"#utility.yul\":20916:20983   */\n      tag_345\n        /* \"#utility.yul\":20976:20982   */\n      dup6\n        /* \"#utility.yul\":20969:20974   */\n      dup3\n        /* \"#utility.yul\":20916:20983   */\n      tag_146\n      jump\t// in\n    tag_345:\n        /* \"#utility.yul\":20910:20914   */\n      dup7\n        /* \"#utility.yul\":20903:20984   */\n      sstore\n        /* \"#utility.yul\":20765:20994   */\n      pop\n        /* \"#utility.yul\":20086:20994   */\n      jump(tag_342)\n        /* \"#utility.yul\":20116:20748   */\n    tag_343:\n        /* \"#utility.yul\":20168:20172   */\n      0x1f\n        /* \"#utility.yul\":20164:20173   */\n      not\n        /* \"#utility.yul\":20156:20162   */\n      dup5\n        /* \"#utility.yul\":20152:20174   */\n      and\n        /* \"#utility.yul\":20202:20239   */\n      tag_346\n        /* \"#utility.yul\":20234:20238   */\n      dup7\n        /* \"#utility.yul\":20202:20239   */\n      tag_132\n      jump\t// in\n    tag_346:\n        /* \"#utility.yul\":20261:20262   */\n      0x00\n        /* \"#utility.yul\":20275:20490   */\n    tag_347:\n        /* \"#utility.yul\":20289:20296   */\n      dup3\n        /* \"#utility.yul\":20286:20287   */\n      dup2\n        /* \"#utility.yul\":20283:20297   */\n      lt\n        /* \"#utility.yul\":20275:20490   */\n      iszero\n      tag_349\n      jumpi\n        /* \"#utility.yul\":20375:20384   */\n      dup5\n        /* \"#utility.yul\":20370:20373   */\n      dup10\n        /* \"#utility.yul\":20366:20385   */\n      add\n        /* \"#utility.yul\":20353:20386   */\n      calldataload\n        /* \"#utility.yul\":20345:20351   */\n      dup3\n        /* \"#utility.yul\":20338:20387   */\n      sstore\n        /* \"#utility.yul\":20426:20427   */\n      0x01\n        /* \"#utility.yul\":20418:20424   */\n      dup3\n        /* \"#utility.yul\":20414:20428   */\n      add\n        /* \"#utility.yul\":20404:20428   */\n      swap2\n      pop\n        /* \"#utility.yul\":20473:20475   */\n      0x20\n        /* \"#utility.yul\":20462:20471   */\n      dup6\n        /* \"#utility.yul\":20458:20476   */\n      add\n        /* \"#utility.yul\":20445:20476   */\n      swap5\n      pop\n        /* \"#utility.yul\":20312:20316   */\n      0x20\n        /* \"#utility.yul\":20309:20310   */\n      dup2\n        /* \"#utility.yul\":20305:20317   */\n      add\n        /* \"#utility.yul\":20300:20317   */\n      swap1\n      pop\n        /* \"#utility.yul\":20275:20490   */\n      jump(tag_347)\n    tag_349:\n        /* \"#utility.yul\":20518:20524   */\n      dup7\n        /* \"#utility.yul\":20509:20516   */\n      dup4\n        /* \"#utility.yul\":20506:20525   */\n      lt\n        /* \"#utility.yul\":20503:20689   */\n      iszero\n      tag_350\n      jumpi\n        /* \"#utility.yul\":20583:20592   */\n      dup5\n        /* \"#utility.yul\":20578:20581   */\n      dup10\n        /* \"#utility.yul\":20574:20593   */\n      add\n        /* \"#utility.yul\":20561:20594   */\n      calldataload\n        /* \"#utility.yul\":20626:20674   */\n      tag_351\n        /* \"#utility.yul\":20668:20672   */\n      0x1f\n        /* \"#utility.yul\":20660:20666   */\n      dup10\n        /* \"#utility.yul\":20656:20673   */\n      and\n        /* \"#utility.yul\":20645:20654   */\n      dup3\n        /* \"#utility.yul\":20626:20674   */\n      tag_145\n      jump\t// in\n    tag_351:\n        /* \"#utility.yul\":20618:20624   */\n      dup4\n        /* \"#utility.yul\":20611:20675   */\n      sstore\n        /* \"#utility.yul\":20526:20689   */\n      pop\n        /* \"#utility.yul\":20503:20689   */\n    tag_350:\n        /* \"#utility.yul\":20735:20736   */\n      0x01\n        /* \"#utility.yul\":20731:20732   */\n      0x02\n        /* \"#utility.yul\":20723:20729   */\n      dup9\n        /* \"#utility.yul\":20719:20733   */\n      mul\n        /* \"#utility.yul\":20715:20737   */\n      add\n        /* \"#utility.yul\":20709:20713   */\n      dup9\n        /* \"#utility.yul\":20702:20738   */\n      sstore\n        /* \"#utility.yul\":20123:20748   */\n      pop\n      pop\n      pop\n        /* \"#utility.yul\":20086:20994   */\n    tag_342:\n      pop\n        /* \"#utility.yul\":19696:21000   */\n      pop\n      pop\n      pop\n        /* \"#utility.yul\":19597:21000   */\n      pop\n      pop\n      pop\n      jump\t// out\n        /* \"#utility.yul\":21006:21449   */\n    tag_94:\n        /* \"#utility.yul\":21157:21161   */\n      0x00\n        /* \"#utility.yul\":21195:21197   */\n      0x40\n        /* \"#utility.yul\":21184:21193   */\n      dup3\n        /* \"#utility.yul\":21180:21198   */\n      add\n        /* \"#utility.yul\":21172:21198   */\n      swap1\n      pop\n        /* \"#utility.yul\":21244:21253   */\n      dup2\n        /* \"#utility.yul\":21238:21242   */\n      dup2\n        /* \"#utility.yul\":21234:21254   */\n      sub\n        /* \"#utility.yul\":21230:21231   */\n      0x00\n        /* \"#utility.yul\":21219:21228   */\n      dup4\n        /* \"#utility.yul\":21215:21232   */\n      add\n        /* \"#utility.yul\":21208:21255   */\n      mstore\n        /* \"#utility.yul\":21272:21360   */\n      tag_353\n        /* \"#utility.yul\":21355:21359   */\n      dup2\n        /* \"#utility.yul\":21346:21352   */\n      dup6\n        /* \"#utility.yul\":21338:21344   */\n      dup8\n        /* \"#utility.yul\":21272:21360   */\n      tag_147\n      jump\t// in\n    tag_353:\n        /* \"#utility.yul\":21264:21360   */\n      swap1\n      pop\n        /* \"#utility.yul\":21370:21442   */\n      tag_354\n        /* \"#utility.yul\":21438:21440   */\n      0x20\n        /* \"#utility.yul\":21427:21436   */\n      dup4\n        /* \"#utility.yul\":21423:21441   */\n      add\n        /* \"#utility.yul\":21414:21420   */\n      dup5\n        /* \"#utility.yul\":21370:21442   */\n      tag_115\n      jump\t// in\n    tag_354:\n        /* \"#utility.yul\":21006:21449   */\n      swap5\n      swap4\n      pop\n      pop\n      pop\n      pop\n      jump\t// out\n\n    auxdata: 0xa2646970667358221220cd7823c58f8ae13f1d10d82097b6c0c14b1bab0f05471ba3a21751971b5f7f1e64736f6c634300081e0033\n}\n",
				"bytecode": {
					"linkReferences": {},
					"object": "6080604052348015600e575f5ffd5b506113fb8061001c5f395ff3fe608060405234801561000f575f5ffd5b5060043610610060575f3560e01c8063138bbbfd1461006457806327cf399a14610080578063532c13c2146100b25780635c2949f1146100e25780638a72357514610112578063dee0b9b21461012e575b5f5ffd5b61007e600480360381019061007991906109d3565b61015e565b005b61009a60048036038101906100959190610a83565b6103cf565b6040516100a993929190610bc8565b60405180910390f35b6100cc60048036038101906100c79190610a83565b610546565b6040516100d99190610c1e565b60405180910390f35b6100fc60048036038101906100f791906109d3565b61059f565b6040516101099190610c1e565b60405180910390f35b61012c60048036038101906101279190610a83565b610738565b005b61014860048036038101906101439190610c37565b6108b9565b6040516101559190610c82565b60405180910390f35b5f86869050116101a3576040517f08c379a000000000000000000000000000000000000000000000000000000000815260040161019a90610cec565b60405180910390fd5b5f84849050116101e8576040517f08c379a00000000000000000000000000000000000000000000000000000000081526004016101df90610d54565b60405180910390fd5b5f828290501161022d576040517f08c379a000000000000000000000000000000000000000000000000000000000815260040161022490610dbc565b60405180910390fd5b604051806080016040528083838080601f0160208091040260200160405190810160405280939291908181526020018383808284375f81840152601f19601f8201169050808301925050505050505081526020014281526020013373ffffffffffffffffffffffffffffffffffffffff168152602001600115158152505f87876040516102bb929190610e16565b908152602001604051809103902085856040516102d9929190610e16565b90815260200160405180910390205f820151815f0190816102fa9190611058565b50602082015181600101556040820151816002015f6101000a81548173ffffffffffffffffffffffffffffffffffffffff021916908373ffffffffffffffffffffffffffffffffffffffff16021790555060608201518160020160146101000a81548160ff021916908315150217905550905050858560405161037e929190610e16565b60405180910390207f9559ce50500262769919c5de30a2949af236f13cc54c1f993dc025d0902c486c8585858542336040516103bf96959493929190611153565b60405180910390a2505050505050565b60605f5f5f5f88886040516103e5929190610e16565b90815260200160405180910390208686604051610403929190610e16565b90815260200160405180910390206040518060800160405290815f8201805461042b90610e88565b80601f016020809104026020016040519081016040528092919081815260200182805461045790610e88565b80156104a25780601f10610479576101008083540402835291602001916104a2565b820191905f5260205f20905b81548152906001019060200180831161048557829003601f168201915b5050505050815260200160018201548152602001600282015f9054906101000a900473ffffffffffffffffffffffffffffffffffffffff1673ffffffffffffffffffffffffffffffffffffffff1673ffffffffffffffffffffffffffffffffffffffff1681526020016002820160149054906101000a900460ff1615151515815250509050805f015181602001518260400151935093509350509450945094915050565b5f5f8585604051610558929190610e16565b90815260200160405180910390208383604051610576929190610e16565b908152602001604051809103902060020160149054906101000a900460ff169050949350505050565b5f5f5f88886040516105b2929190610e16565b908152602001604051809103902086866040516105d0929190610e16565b90815260200160405180910390206040518060800160405290815f820180546105f890610e88565b80601f016020809104026020016040519081016040528092919081815260200182805461062490610e88565b801561066f5780601f106106465761010080835404028352916020019161066f565b820191905f5260205f20905b81548152906001019060200180831161065257829003601f168201915b5050505050815260200160018201548152602001600282015f9054906101000a900473ffffffffffffffffffffffffffffffffffffffff1673ffffffffffffffffffffffffffffffffffffffff1673ffffffffffffffffffffffffffffffffffffffff1681526020016002820160149054906101000a900460ff16151515158152505090508060600151610706575f91505061072e565b83836040516107169291906111d6565b6040518091039020815f015180519060200120149150505b9695505050505050565b5f848490501161077d576040517f08c379a000000000000000000000000000000000000000000000000000000000815260040161077490610cec565b60405180910390fd5b5f82829050116107c2576040517f08c379a00000000000000000000000000000000000000000000000000000000081526004016107b990611238565b60405180910390fd5b5f600183836040516107d5929190610e16565b908152602001604051809103902080546107ee90610e88565b905014610830576040517f08c379a0000000000000000000000000000000000000000000000000000000008152600401610827906112a0565b60405180910390fd5b838360018484604051610844929190610e16565b9081526020016040518091039020918261085f9291906112c8565b508383604051610870929190610e16565b60405180910390207fb22558090a607c997b4bb6f1c6b323f55e65cf7d8eae600ea1331f53dc08f0ca8383426040516108ab93929190611395565b60405180910390a250505050565b6060600183836040516108cd929190610e16565b908152602001604051809103902080546108e690610e88565b80601f016020809104026020016040519081016040528092919081815260200182805461091290610e88565b801561095d5780601f106109345761010080835404028352916020019161095d565b820191905f5260205f20905b81548152906001019060200180831161094057829003601f168201915b5050505050905092915050565b5f5ffd5b5f5ffd5b5f5ffd5b5f5ffd5b5f5ffd5b5f5f83601f84011261099357610992610972565b5b8235905067ffffffffffffffff8111156109b0576109af610976565b5b6020830191508360018202830111156109cc576109cb61097a565b5b9250929050565b5f5f5f5f5f5f606087890312156109ed576109ec61096a565b5b5f87013567ffffffffffffffff811115610a0a57610a0961096e565b5b610a1689828a0161097e565b9650965050602087013567ffffffffffffffff811115610a3957610a3861096e565b5b610a4589828a0161097e565b9450945050604087013567ffffffffffffffff811115610a6857610a6761096e565b5b610a7489828a0161097e565b92509250509295509295509295565b5f5f5f5f60408587031215610a9b57610a9a61096a565b5b5f85013567ffffffffffffffff811115610ab857610ab761096e565b5b610ac48782880161097e565b9450945050602085013567ffffffffffffffff811115610ae757610ae661096e565b5b610af38782880161097e565b925092505092959194509250565b5f81519050919050565b5f82825260208201905092915050565b8281835e5f83830152505050565b5f601f19601f8301169050919050565b5f610b4382610b01565b610b4d8185610b0b565b9350610b5d818560208601610b1b565b610b6681610b29565b840191505092915050565b5f819050919050565b610b8381610b71565b82525050565b5f73ffffffffffffffffffffffffffffffffffffffff82169050919050565b5f610bb282610b89565b9050919050565b610bc281610ba8565b82525050565b5f6060820190508181035f830152610be08186610b39565b9050610bef6020830185610b7a565b610bfc6040830184610bb9565b949350505050565b5f8115159050919050565b610c1881610c04565b82525050565b5f602082019050610c315f830184610c0f565b92915050565b5f5f60208385031215610c4d57610c4c61096a565b5b5f83013567ffffffffffffffff811115610c6a57610c6961096e565b5b610c768582860161097e565b92509250509250929050565b5f6020820190508181035f830152610c9a8184610b39565b905092915050565b7f53747564656e74204944207265717569726564000000000000000000000000005f82015250565b5f610cd6601383610b0b565b9150610ce182610ca2565b602082019050919050565b5f6020820190508181035f830152610d0381610cca565b9050919050565b7f446f6320747970652072657175697265640000000000000000000000000000005f82015250565b5f610d3e601183610b0b565b9150610d4982610d0a565b602082019050919050565b5f6020820190508181035f830152610d6b81610d32565b9050919050565b7f46696c65206861736820726571756972656400000000000000000000000000005f82015250565b5f610da6601283610b0b565b9150610db182610d72565b602082019050919050565b5f6020820190508181035f830152610dd381610d9a565b9050919050565b5f81905092915050565b828183375f83830152505050565b5f610dfd8385610dda565b9350610e0a838584610de4565b82840190509392505050565b5f610e22828486610df2565b91508190509392505050565b7f4e487b71000000000000000000000000000000000000000000000000000000005f52604160045260245ffd5b7f4e487b71000000000000000000000000000000000000000000000000000000005f52602260045260245ffd5b5f6002820490506001821680610e9f57607f821691505b602082108103610eb257610eb1610e5b565b5b50919050565b5f819050815f5260205f209050919050565b5f6020601f8301049050919050565b5f82821b905092915050565b5f60088302610f147fffffffffffffffffffffffffffffffffffffffffffffffffffffffffffffffff82610ed9565b610f1e8683610ed9565b95508019841693508086168417925050509392505050565b5f819050919050565b5f610f59610f54610f4f84610b71565b610f36565b610b71565b9050919050565b5f819050919050565b610f7283610f3f565b610f86610f7e82610f60565b848454610ee5565b825550505050565b5f5f905090565b610f9d610f8e565b610fa8818484610f69565b505050565b5b81811015610fcb57610fc05f82610f95565b600181019050610fae565b5050565b601f82111561101057610fe181610eb8565b610fea84610eca565b81016020851015610ff9578190505b61100d61100585610eca565b830182610fad565b50505b505050565b5f82821c905092915050565b5f6110305f1984600802611015565b1980831691505092915050565b5f6110488383611021565b9150826002028217905092915050565b61106182610b01565b67ffffffffffffffff81111561107a57611079610e2e565b5b6110848254610e88565b61108f828285610fcf565b5f60209050601f8311600181146110c0575f84156110ae578287015190505b6110b8858261103d565b86555061111f565b601f1984166110ce86610eb8565b5f5b828110156110f5578489015182556001820191506020850194506020810190506110d0565b86831015611112578489015161110e601f891682611021565b8355505b6001600288020188555050505b505050505050565b5f6111328385610b0b565b935061113f838584610de4565b61114883610b29565b840190509392505050565b5f6080820190508181035f83015261116c81888a611127565b90508181036020830152611181818688611127565b90506111906040830185610b7a565b61119d6060830184610bb9565b979650505050505050565b5f81905092915050565b5f6111bd83856111a8565b93506111ca838584610de4565b82840190509392505050565b5f6111e28284866111b2565b91508190509392505050565b7f566572696669636174696f6e20494420726571756972656400000000000000005f82015250565b5f611222601883610b0b565b915061122d826111ee565b602082019050919050565b5f6020820190508181035f83015261124f81611216565b9050919050565b7f566572696669636174696f6e20494420616c72656164792075736564000000005f82015250565b5f61128a601c83610b0b565b915061129582611256565b602082019050919050565b5f6020820190508181035f8301526112b78161127e565b9050919050565b5f82905092915050565b6112d283836112be565b67ffffffffffffffff8111156112eb576112ea610e2e565b5b6112f58254610e88565b611300828285610fcf565b5f601f83116001811461132d575f841561131b578287013590505b611325858261103d565b86555061138c565b601f19841661133b86610eb8565b5f5b828110156113625784890135825560018201915060208501945060208101905061133d565b8683101561137f578489013561137b601f891682611021565b8355505b6001600288020188555050505b50505050505050565b5f6040820190508181035f8301526113ae818587611127565b90506113bd6020830184610b7a565b94935050505056fea2646970667358221220cd7823c58f8ae13f1d10d82097b6c0c14b1bab0f05471ba3a21751971b5f7f1e64736f6c634300081e0033",
					"opcodes": "PUSH1 0x80 PUSH1 0x40 MSTORE CALLVALUE DUP1 ISZERO PUSH1 0xE JUMPI PUSH0 PUSH0 REVERT JUMPDEST POP PUSH2 0x13FB DUP1 PUSH2 0x1C PUSH0 CODECOPY PUSH0 RETURN INVALID PUSH1 0x80 PUSH1 0x40 MSTORE CALLVALUE DUP1 ISZERO PUSH2 0xF JUMPI PUSH0 PUSH0 REVERT JUMPDEST POP PUSH1 0x4 CALLDATASIZE LT PUSH2 0x60 JUMPI PUSH0 CALLDATALOAD PUSH1 0xE0 SHR DUP1 PUSH4 0x138BBBFD EQ PUSH2 0x64 JUMPI DUP1 PUSH4 0x27CF399A EQ PUSH2 0x80 JUMPI DUP1 PUSH4 0x532C13C2 EQ PUSH2 0xB2 JUMPI DUP1 PUSH4 0x5C2949F1 EQ PUSH2 0xE2 JUMPI DUP1 PUSH4 0x8A723575 EQ PUSH2 0x112 JUMPI DUP1 PUSH4 0xDEE0B9B2 EQ PUSH2 0x12E JUMPI JUMPDEST PUSH0 PUSH0 REVERT JUMPDEST PUSH2 0x7E PUSH1 0x4 DUP1 CALLDATASIZE SUB DUP2 ADD SWAP1 PUSH2 0x79 SWAP2 SWAP1 PUSH2 0x9D3 JUMP JUMPDEST PUSH2 0x15E JUMP JUMPDEST STOP JUMPDEST PUSH2 0x9A PUSH1 0x4 DUP1 CALLDATASIZE SUB DUP2 ADD SWAP1 PUSH2 0x95 SWAP2 SWAP1 PUSH2 0xA83 JUMP JUMPDEST PUSH2 0x3CF JUMP JUMPDEST PUSH1 0x40 MLOAD PUSH2 0xA9 SWAP4 SWAP3 SWAP2 SWAP1 PUSH2 0xBC8 JUMP JUMPDEST PUSH1 0x40 MLOAD DUP1 SWAP2 SUB SWAP1 RETURN JUMPDEST PUSH2 0xCC PUSH1 0x4 DUP1 CALLDATASIZE SUB DUP2 ADD SWAP1 PUSH2 0xC7 SWAP2 SWAP1 PUSH2 0xA83 JUMP JUMPDEST PUSH2 0x546 JUMP JUMPDEST PUSH1 0x40 MLOAD PUSH2 0xD9 SWAP2 SWAP1 PUSH2 0xC1E JUMP JUMPDEST PUSH1 0x40 MLOAD DUP1 SWAP2 SUB SWAP1 RETURN JUMPDEST PUSH2 0xFC PUSH1 0x4 DUP1 CALLDATASIZE SUB DUP2 ADD SWAP1 PUSH2 0xF7 SWAP2 SWAP1 PUSH2 0x9D3 JUMP JUMPDEST PUSH2 0x59F JUMP JUMPDEST PUSH1 0x40 MLOAD PUSH2 0x109 SWAP2 SWAP1 PUSH2 0xC1E JUMP JUMPDEST PUSH1 0x40 MLOAD DUP1 SWAP2 SUB SWAP1 RETURN JUMPDEST PUSH2 0x12C PUSH1 0x4 DUP1 CALLDATASIZE SUB DUP2 ADD SWAP1 PUSH2 0x127 SWAP2 SWAP1 PUSH2 0xA83 JUMP JUMPDEST PUSH2 0x738 JUMP JUMPDEST STOP JUMPDEST PUSH2 0x148 PUSH1 0x4 DUP1 CALLDATASIZE SUB DUP2 ADD SWAP1 PUSH2 0x143 SWAP2 SWAP1 PUSH2 0xC37 JUMP JUMPDEST PUSH2 0x8B9 JUMP JUMPDEST PUSH1 0x40 MLOAD PUSH2 0x155 SWAP2 SWAP1 PUSH2 0xC82 JUMP JUMPDEST PUSH1 0x40 MLOAD DUP1 SWAP2 SUB SWAP1 RETURN JUMPDEST PUSH0 DUP7 DUP7 SWAP1 POP GT PUSH2 0x1A3 JUMPI PUSH1 0x40 MLOAD PUSH32 0x8C379A000000000000000000000000000000000000000000000000000000000 DUP2 MSTORE PUSH1 0x4 ADD PUSH2 0x19A SWAP1 PUSH2 0xCEC JUMP JUMPDEST PUSH1 0x40 MLOAD DUP1 SWAP2 SUB SWAP1 REVERT JUMPDEST PUSH0 DUP5 DUP5 SWAP1 POP GT PUSH2 0x1E8 JUMPI PUSH1 0x40 MLOAD PUSH32 0x8C379A000000000000000000000000000000000000000000000000000000000 DUP2 MSTORE PUSH1 0x4 ADD PUSH2 0x1DF SWAP1 PUSH2 0xD54 JUMP JUMPDEST PUSH1 0x40 MLOAD DUP1 SWAP2 SUB SWAP1 REVERT JUMPDEST PUSH0 DUP3 DUP3 SWAP1 POP GT PUSH2 0x22D JUMPI PUSH1 0x40 MLOAD PUSH32 0x8C379A000000000000000000000000000000000000000000000000000000000 DUP2 MSTORE PUSH1 0x4 ADD PUSH2 0x224 SWAP1 PUSH2 0xDBC JUMP JUMPDEST PUSH1 0x40 MLOAD DUP1 SWAP2 SUB SWAP1 REVERT JUMPDEST PUSH1 0x40 MLOAD DUP1 PUSH1 0x80 ADD PUSH1 0x40 MSTORE DUP1 DUP4 DUP4 DUP1 DUP1 PUSH1 0x1F ADD PUSH1 0x20 DUP1 SWAP2 DIV MUL PUSH1 0x20 ADD PUSH1 0x40 MLOAD SWAP1 DUP2 ADD PUSH1 0x40 MSTORE DUP1 SWAP4 SWAP3 SWAP2 SWAP1 DUP2 DUP2 MSTORE PUSH1 0x20 ADD DUP4 DUP4 DUP1 DUP3 DUP5 CALLDATACOPY PUSH0 DUP2 DUP5 ADD MSTORE PUSH1 0x1F NOT PUSH1 0x1F DUP3 ADD AND SWAP1 POP DUP1 DUP4 ADD SWAP3 POP POP POP POP POP POP POP DUP2 MSTORE PUSH1 0x20 ADD TIMESTAMP DUP2 MSTORE PUSH1 0x20 ADD CALLER PUSH20 0xFFFFFFFFFFFFFFFFFFFFFFFFFFFFFFFFFFFFFFFF AND DUP2 MSTORE PUSH1 0x20 ADD PUSH1 0x1 ISZERO ISZERO DUP2 MSTORE POP PUSH0 DUP8 DUP8 PUSH1 0x40 MLOAD PUSH2 0x2BB SWAP3 SWAP2 SWAP1 PUSH2 0xE16 JUMP JUMPDEST SWAP1 DUP2 MSTORE PUSH1 0x20 ADD PUSH1 0x40 MLOAD DUP1 SWAP2 SUB SWAP1 KECCAK256 DUP6 DUP6 PUSH1 0x40 MLOAD PUSH2 0x2D9 SWAP3 SWAP2 SWAP1 PUSH2 0xE16 JUMP JUMPDEST SWAP1 DUP2 MSTORE PUSH1 0x20 ADD PUSH1 0x40 MLOAD DUP1 SWAP2 SUB SWAP1 KECCAK256 PUSH0 DUP3 ADD MLOAD DUP2 PUSH0 ADD SWAP1 DUP2 PUSH2 0x2FA SWAP2 SWAP1 PUSH2 0x1058 JUMP JUMPDEST POP PUSH1 0x20 DUP3 ADD MLOAD DUP2 PUSH1 0x1 ADD SSTORE PUSH1 0x40 DUP3 ADD MLOAD DUP2 PUSH1 0x2 ADD PUSH0 PUSH2 0x100 EXP DUP2 SLOAD DUP2 PUSH20 0xFFFFFFFFFFFFFFFFFFFFFFFFFFFFFFFFFFFFFFFF MUL NOT AND SWAP1 DUP4 PUSH20 0xFFFFFFFFFFFFFFFFFFFFFFFFFFFFFFFFFFFFFFFF AND MUL OR SWAP1 SSTORE POP PUSH1 0x60 DUP3 ADD MLOAD DUP2 PUSH1 0x2 ADD PUSH1 0x14 PUSH2 0x100 EXP DUP2 SLOAD DUP2 PUSH1 0xFF MUL NOT AND SWAP1 DUP4 ISZERO ISZERO MUL OR SWAP1 SSTORE POP SWAP1 POP POP DUP6 DUP6 PUSH1 0x40 MLOAD PUSH2 0x37E SWAP3 SWAP2 SWAP1 PUSH2 0xE16 JUMP JUMPDEST PUSH1 0x40 MLOAD DUP1 SWAP2 SUB SWAP1 KECCAK256 PUSH32 0x9559CE50500262769919C5DE30A2949AF236F13CC54C1F993DC025D0902C486C DUP6 DUP6 DUP6 DUP6 TIMESTAMP CALLER PUSH1 0x40 MLOAD PUSH2 0x3BF SWAP7 SWAP6 SWAP5 SWAP4 SWAP3 SWAP2 SWAP1 PUSH2 0x1153 JUMP JUMPDEST PUSH1 0x40 MLOAD DUP1 SWAP2 SUB SWAP1 LOG2 POP POP POP POP POP POP JUMP JUMPDEST PUSH1 0x60 PUSH0 PUSH0 PUSH0 PUSH0 DUP9 DUP9 PUSH1 0x40 MLOAD PUSH2 0x3E5 SWAP3 SWAP2 SWAP1 PUSH2 0xE16 JUMP JUMPDEST SWAP1 DUP2 MSTORE PUSH1 0x20 ADD PUSH1 0x40 MLOAD DUP1 SWAP2 SUB SWAP1 KECCAK256 DUP7 DUP7 PUSH1 0x40 MLOAD PUSH2 0x403 SWAP3 SWAP2 SWAP1 PUSH2 0xE16 JUMP JUMPDEST SWAP1 DUP2 MSTORE PUSH1 0x20 ADD PUSH1 0x40 MLOAD DUP1 SWAP2 SUB SWAP1 KECCAK256 PUSH1 0x40 MLOAD DUP1 PUSH1 0x80 ADD PUSH1 0x40 MSTORE SWAP1 DUP2 PUSH0 DUP3 ADD DUP1 SLOAD PUSH2 0x42B SWAP1 PUSH2 0xE88 JUMP JUMPDEST DUP1 PUSH1 0x1F ADD PUSH1 0x20 DUP1 SWAP2 DIV MUL PUSH1 0x20 ADD PUSH1 0x40 MLOAD SWAP1 DUP2 ADD PUSH1 0x40 MSTORE DUP1 SWAP3 SWAP2 SWAP1 DUP2 DUP2 MSTORE PUSH1 0x20 ADD DUP3 DUP1 SLOAD PUSH2 0x457 SWAP1 PUSH2 0xE88 JUMP JUMPDEST DUP1 ISZERO PUSH2 0x4A2 JUMPI DUP1 PUSH1 0x1F LT PUSH2 0x479 JUMPI PUSH2 0x100 DUP1 DUP4 SLOAD DIV MUL DUP4 MSTORE SWAP2 PUSH1 0x20 ADD SWAP2 PUSH2 0x4A2 JUMP JUMPDEST DUP3 ADD SWAP2 SWAP1 PUSH0 MSTORE PUSH1 0x20 PUSH0 KECCAK256 SWAP1 JUMPDEST DUP2 SLOAD DUP2 MSTORE SWAP1 PUSH1 0x1 ADD SWAP1 PUSH1 0x20 ADD DUP1 DUP4 GT PUSH2 0x485 JUMPI DUP3 SWAP1 SUB PUSH1 0x1F AND DUP3 ADD SWAP2 JUMPDEST POP POP POP POP POP DUP2 MSTORE PUSH1 0x20 ADD PUSH1 0x1 DUP3 ADD SLOAD DUP2 MSTORE PUSH1 0x20 ADD PUSH1 0x2 DUP3 ADD PUSH0 SWAP1 SLOAD SWAP1 PUSH2 0x100 EXP SWAP1 DIV PUSH20 0xFFFFFFFFFFFFFFFFFFFFFFFFFFFFFFFFFFFFFFFF AND PUSH20 0xFFFFFFFFFFFFFFFFFFFFFFFFFFFFFFFFFFFFFFFF AND PUSH20 0xFFFFFFFFFFFFFFFFFFFFFFFFFFFFFFFFFFFFFFFF AND DUP2 MSTORE PUSH1 0x20 ADD PUSH1 0x2 DUP3 ADD PUSH1 0x14 SWAP1 SLOAD SWAP1 PUSH2 0x100 EXP SWAP1 DIV PUSH1 0xFF AND ISZERO ISZERO ISZERO ISZERO DUP2 MSTORE POP POP SWAP1 POP DUP1 PUSH0 ADD MLOAD DUP2 PUSH1 0x20 ADD MLOAD DUP3 PUSH1 0x40 ADD MLOAD SWAP4 POP SWAP4 POP SWAP4 POP POP SWAP5 POP SWAP5 POP SWAP5 SWAP2 POP POP JUMP JUMPDEST PUSH0 PUSH0 DUP6 DUP6 PUSH1 0x40 MLOAD PUSH2 0x558 SWAP3 SWAP2 SWAP1 PUSH2 0xE16 JUMP JUMPDEST SWAP1 DUP2 MSTORE PUSH1 0x20 ADD PUSH1 0x40 MLOAD DUP1 SWAP2 SUB SWAP1 KECCAK256 DUP4 DUP4 PUSH1 0x40 MLOAD PUSH2 0x576 SWAP3 SWAP2 SWAP1 PUSH2 0xE16 JUMP JUMPDEST SWAP1 DUP2 MSTORE PUSH1 0x20 ADD PUSH1 0x40 MLOAD DUP1 SWAP2 SUB SWAP1 KECCAK256 PUSH1 0x2 ADD PUSH1 0x14 SWAP1 SLOAD SWAP1 PUSH2 0x100 EXP SWAP1 DIV PUSH1 0xFF AND SWAP1 POP SWAP5 SWAP4 POP POP POP POP JUMP JUMPDEST PUSH0 PUSH0 PUSH0 DUP9 DUP9 PUSH1 0x40 MLOAD PUSH2 0x5B2 SWAP3 SWAP2 SWAP1 PUSH2 0xE16 JUMP JUMPDEST SWAP1 DUP2 MSTORE PUSH1 0x20 ADD PUSH1 0x40 MLOAD DUP1 SWAP2 SUB SWAP1 KECCAK256 DUP7 DUP7 PUSH1 0x40 MLOAD PUSH2 0x5D0 SWAP3 SWAP2 SWAP1 PUSH2 0xE16 JUMP JUMPDEST SWAP1 DUP2 MSTORE PUSH1 0x20 ADD PUSH1 0x40 MLOAD DUP1 SWAP2 SUB SWAP1 KECCAK256 PUSH1 0x40 MLOAD DUP1 PUSH1 0x80 ADD PUSH1 0x40 MSTORE SWAP1 DUP2 PUSH0 DUP3 ADD DUP1 SLOAD PUSH2 0x5F8 SWAP1 PUSH2 0xE88 JUMP JUMPDEST DUP1 PUSH1 0x1F ADD PUSH1 0x20 DUP1 SWAP2 DIV MUL PUSH1 0x20 ADD PUSH1 0x40 MLOAD SWAP1 DUP2 ADD PUSH1 0x40 MSTORE DUP1 SWAP3 SWAP2 SWAP1 DUP2 DUP2 MSTORE PUSH1 0x20 ADD DUP3 DUP1 SLOAD PUSH2 0x624 SWAP1 PUSH2 0xE88 JUMP JUMPDEST DUP1 ISZERO PUSH2 0x66F JUMPI DUP1 PUSH1 0x1F LT PUSH2 0x646 JUMPI PUSH2 0x100 DUP1 DUP4 SLOAD DIV MUL DUP4 MSTORE SWAP2 PUSH1 0x20 ADD SWAP2 PUSH2 0x66F JUMP JUMPDEST DUP3 ADD SWAP2 SWAP1 PUSH0 MSTORE PUSH1 0x20 PUSH0 KECCAK256 SWAP1 JUMPDEST DUP2 SLOAD DUP2 MSTORE SWAP1 PUSH1 0x1 ADD SWAP1 PUSH1 0x20 ADD DUP1 DUP4 GT PUSH2 0x652 JUMPI DUP3 SWAP1 SUB PUSH1 0x1F AND DUP3 ADD SWAP2 JUMPDEST POP POP POP POP POP DUP2 MSTORE PUSH1 0x20 ADD PUSH1 0x1 DUP3 ADD SLOAD DUP2 MSTORE PUSH1 0x20 ADD PUSH1 0x2 DUP3 ADD PUSH0 SWAP1 SLOAD SWAP1 PUSH2 0x100 EXP SWAP1 DIV PUSH20 0xFFFFFFFFFFFFFFFFFFFFFFFFFFFFFFFFFFFFFFFF AND PUSH20 0xFFFFFFFFFFFFFFFFFFFFFFFFFFFFFFFFFFFFFFFF AND PUSH20 0xFFFFFFFFFFFFFFFFFFFFFFFFFFFFFFFFFFFFFFFF AND DUP2 MSTORE PUSH1 0x20 ADD PUSH1 0x2 DUP3 ADD PUSH1 0x14 SWAP1 SLOAD SWAP1 PUSH2 0x100 EXP SWAP1 DIV PUSH1 0xFF AND ISZERO ISZERO ISZERO ISZERO DUP2 MSTORE POP POP SWAP1 POP DUP1 PUSH1 0x60 ADD MLOAD PUSH2 0x706 JUMPI PUSH0 SWAP2 POP POP PUSH2 0x72E JUMP JUMPDEST DUP4 DUP4 PUSH1 0x40 MLOAD PUSH2 0x716 SWAP3 SWAP2 SWAP1 PUSH2 0x11D6 JUMP JUMPDEST PUSH1 0x40 MLOAD DUP1 SWAP2 SUB SWAP1 KECCAK256 DUP2 PUSH0 ADD MLOAD DUP1 MLOAD SWAP1 PUSH1 0x20 ADD KECCAK256 EQ SWAP2 POP POP JUMPDEST SWAP7 SWAP6 POP POP POP POP POP POP JUMP JUMPDEST PUSH0 DUP5 DUP5 SWAP1 POP GT PUSH2 0x77D JUMPI PUSH1 0x40 MLOAD PUSH32 0x8C379A000000000000000000000000000000000000000000000000000000000 DUP2 MSTORE PUSH1 0x4 ADD PUSH2 0x774 SWAP1 PUSH2 0xCEC JUMP JUMPDEST PUSH1 0x40 MLOAD DUP1 SWAP2 SUB SWAP1 REVERT JUMPDEST PUSH0 DUP3 DUP3 SWAP1 POP GT PUSH2 0x7C2 JUMPI PUSH1 0x40 MLOAD PUSH32 0x8C379A000000000000000000000000000000000000000000000000000000000 DUP2 MSTORE PUSH1 0x4 ADD PUSH2 0x7B9 SWAP1 PUSH2 0x1238 JUMP JUMPDEST PUSH1 0x40 MLOAD DUP1 SWAP2 SUB SWAP1 REVERT JUMPDEST PUSH0 PUSH1 0x1 DUP4 DUP4 PUSH1 0x40 MLOAD PUSH2 0x7D5 SWAP3 SWAP2 SWAP1 PUSH2 0xE16 JUMP JUMPDEST SWAP1 DUP2 MSTORE PUSH1 0x20 ADD PUSH1 0x40 MLOAD DUP1 SWAP2 SUB SWAP1 KECCAK256 DUP1 SLOAD PUSH2 0x7EE SWAP1 PUSH2 0xE88 JUMP JUMPDEST SWAP1 POP EQ PUSH2 0x830 JUMPI PUSH1 0x40 MLOAD PUSH32 0x8C379A000000000000000000000000000000000000000000000000000000000 DUP2 MSTORE PUSH1 0x4 ADD PUSH2 0x827 SWAP1 PUSH2 0x12A0 JUMP JUMPDEST PUSH1 0x40 MLOAD DUP1 SWAP2 SUB SWAP1 REVERT JUMPDEST DUP4 DUP4 PUSH1 0x1 DUP5 DUP5 PUSH1 0x40 MLOAD PUSH2 0x844 SWAP3 SWAP2 SWAP1 PUSH2 0xE16 JUMP JUMPDEST SWAP1 DUP2 MSTORE PUSH1 0x20 ADD PUSH1 0x40 MLOAD DUP1 SWAP2 SUB SWAP1 KECCAK256 SWAP2 DUP3 PUSH2 0x85F SWAP3 SWAP2 SWAP1 PUSH2 0x12C8 JUMP JUMPDEST POP DUP4 DUP4 PUSH1 0x40 MLOAD PUSH2 0x870 SWAP3 SWAP2 SWAP1 PUSH2 0xE16 JUMP JUMPDEST PUSH1 0x40 MLOAD DUP1 SWAP2 SUB SWAP1 KECCAK256 PUSH32 0xB22558090A607C997B4BB6F1C6B323F55E65CF7D8EAE600EA1331F53DC08F0CA DUP4 DUP4 TIMESTAMP PUSH1 0x40 MLOAD PUSH2 0x8AB SWAP4 SWAP3 SWAP2 SWAP1 PUSH2 0x1395 JUMP JUMPDEST PUSH1 0x40 MLOAD DUP1 SWAP2 SUB SWAP1 LOG2 POP POP POP POP JUMP JUMPDEST PUSH1 0x60 PUSH1 0x1 DUP4 DUP4 PUSH1 0x40 MLOAD PUSH2 0x8CD SWAP3 SWAP2 SWAP1 PUSH2 0xE16 JUMP JUMPDEST SWAP1 DUP2 MSTORE PUSH1 0x20 ADD PUSH1 0x40 MLOAD DUP1 SWAP2 SUB SWAP1 KECCAK256 DUP1 SLOAD PUSH2 0x8E6 SWAP1 PUSH2 0xE88 JUMP JUMPDEST DUP1 PUSH1 0x1F ADD PUSH1 0x20 DUP1 SWAP2 DIV MUL PUSH1 0x20 ADD PUSH1 0x40 MLOAD SWAP1 DUP2 ADD PUSH1 0x40 MSTORE DUP1 SWAP3 SWAP2 SWAP1 DUP2 DUP2 MSTORE PUSH1 0x20 ADD DUP3 DUP1 SLOAD PUSH2 0x912 SWAP1 PUSH2 0xE88 JUMP JUMPDEST DUP1 ISZERO PUSH2 0x95D JUMPI DUP1 PUSH1 0x1F LT PUSH2 0x934 JUMPI PUSH2 0x100 DUP1 DUP4 SLOAD DIV MUL DUP4 MSTORE SWAP2 PUSH1 0x20 ADD SWAP2 PUSH2 0x95D JUMP JUMPDEST DUP3 ADD SWAP2 SWAP1 PUSH0 MSTORE PUSH1 0x20 PUSH0 KECCAK256 SWAP1 JUMPDEST DUP2 SLOAD DUP2 MSTORE SWAP1 PUSH1 0x1 ADD SWAP1 PUSH1 0x20 ADD DUP1 DUP4 GT PUSH2 0x940 JUMPI DUP3 SWAP1 SUB PUSH1 0x1F AND DUP3 ADD SWAP2 JUMPDEST POP POP POP POP POP SWAP1 POP SWAP3 SWAP2 POP POP JUMP JUMPDEST PUSH0 PUSH0 REVERT JUMPDEST PUSH0 PUSH0 REVERT JUMPDEST PUSH0 PUSH0 REVERT JUMPDEST PUSH0 PUSH0 REVERT JUMPDEST PUSH0 PUSH0 REVERT JUMPDEST PUSH0 PUSH0 DUP4 PUSH1 0x1F DUP5 ADD SLT PUSH2 0x993 JUMPI PUSH2 0x992 PUSH2 0x972 JUMP JUMPDEST JUMPDEST DUP3 CALLDATALOAD SWAP1 POP PUSH8 0xFFFFFFFFFFFFFFFF DUP2 GT ISZERO PUSH2 0x9B0 JUMPI PUSH2 0x9AF PUSH2 0x976 JUMP JUMPDEST JUMPDEST PUSH1 0x20 DUP4 ADD SWAP2 POP DUP4 PUSH1 0x1 DUP3 MUL DUP4 ADD GT ISZERO PUSH2 0x9CC JUMPI PUSH2 0x9CB PUSH2 0x97A JUMP JUMPDEST JUMPDEST SWAP3 POP SWAP3 SWAP1 POP JUMP JUMPDEST PUSH0 PUSH0 PUSH0 PUSH0 PUSH0 PUSH0 PUSH1 0x60 DUP8 DUP10 SUB SLT ISZERO PUSH2 0x9ED JUMPI PUSH2 0x9EC PUSH2 0x96A JUMP JUMPDEST JUMPDEST PUSH0 DUP8 ADD CALLDATALOAD PUSH8 0xFFFFFFFFFFFFFFFF DUP2 GT ISZERO PUSH2 0xA0A JUMPI PUSH2 0xA09 PUSH2 0x96E JUMP JUMPDEST JUMPDEST PUSH2 0xA16 DUP10 DUP3 DUP11 ADD PUSH2 0x97E JUMP JUMPDEST SWAP7 POP SWAP7 POP POP PUSH1 0x20 DUP8 ADD CALLDATALOAD PUSH8 0xFFFFFFFFFFFFFFFF DUP2 GT ISZERO PUSH2 0xA39 JUMPI PUSH2 0xA38 PUSH2 0x96E JUMP JUMPDEST JUMPDEST PUSH2 0xA45 DUP10 DUP3 DUP11 ADD PUSH2 0x97E JUMP JUMPDEST SWAP5 POP SWAP5 POP POP PUSH1 0x40 DUP8 ADD CALLDATALOAD PUSH8 0xFFFFFFFFFFFFFFFF DUP2 GT ISZERO PUSH2 0xA68 JUMPI PUSH2 0xA67 PUSH2 0x96E JUMP JUMPDEST JUMPDEST PUSH2 0xA74 DUP10 DUP3 DUP11 ADD PUSH2 0x97E JUMP JUMPDEST SWAP3 POP SWAP3 POP POP SWAP3 SWAP6 POP SWAP3 SWAP6 POP SWAP3 SWAP6 JUMP JUMPDEST PUSH0 PUSH0 PUSH0 PUSH0 PUSH1 0x40 DUP6 DUP8 SUB SLT ISZERO PUSH2 0xA9B JUMPI PUSH2 0xA9A PUSH2 0x96A JUMP JUMPDEST JUMPDEST PUSH0 DUP6 ADD CALLDATALOAD PUSH8 0xFFFFFFFFFFFFFFFF DUP2 GT ISZERO PUSH2 0xAB8 JUMPI PUSH2 0xAB7 PUSH2 0x96E JUMP JUMPDEST JUMPDEST PUSH2 0xAC4 DUP8 DUP3 DUP9 ADD PUSH2 0x97E JUMP JUMPDEST SWAP5 POP SWAP5 POP POP PUSH1 0x20 DUP6 ADD CALLDATALOAD PUSH8 0xFFFFFFFFFFFFFFFF DUP2 GT ISZERO PUSH2 0xAE7 JUMPI PUSH2 0xAE6 PUSH2 0x96E JUMP JUMPDEST JUMPDEST PUSH2 0xAF3 DUP8 DUP3 DUP9 ADD PUSH2 0x97E JUMP JUMPDEST SWAP3 POP SWAP3 POP POP SWAP3 SWAP6 SWAP2 SWAP5 POP SWAP3 POP JUMP JUMPDEST PUSH0 DUP2 MLOAD SWAP1 POP SWAP2 SWAP1 POP JUMP JUMPDEST PUSH0 DUP3 DUP3 MSTORE PUSH1 0x20 DUP3 ADD SWAP1 POP SWAP3 SWAP2 POP POP JUMP JUMPDEST DUP3 DUP2 DUP4 MCOPY PUSH0 DUP4 DUP4 ADD MSTORE POP POP POP JUMP JUMPDEST PUSH0 PUSH1 0x1F NOT PUSH1 0x1F DUP4 ADD AND SWAP1 POP SWAP2 SWAP1 POP JUMP JUMPDEST PUSH0 PUSH2 0xB43 DUP3 PUSH2 0xB01 JUMP JUMPDEST PUSH2 0xB4D DUP2 DUP6 PUSH2 0xB0B JUMP JUMPDEST SWAP4 POP PUSH2 0xB5D DUP2 DUP6 PUSH1 0x20 DUP7 ADD PUSH2 0xB1B JUMP JUMPDEST PUSH2 0xB66 DUP2 PUSH2 0xB29 JUMP JUMPDEST DUP5 ADD SWAP2 POP POP SWAP3 SWAP2 POP POP JUMP JUMPDEST PUSH0 DUP2 SWAP1 POP SWAP2 SWAP1 POP JUMP JUMPDEST PUSH2 0xB83 DUP2 PUSH2 0xB71 JUMP JUMPDEST DUP3 MSTORE POP POP JUMP JUMPDEST PUSH0 PUSH20 0xFFFFFFFFFFFFFFFFFFFFFFFFFFFFFFFFFFFFFFFF DUP3 AND SWAP1 POP SWAP2 SWAP1 POP JUMP JUMPDEST PUSH0 PUSH2 0xBB2 DUP3 PUSH2 0xB89 JUMP JUMPDEST SWAP1 POP SWAP2 SWAP1 POP JUMP JUMPDEST PUSH2 0xBC2 DUP2 PUSH2 0xBA8 JUMP JUMPDEST DUP3 MSTORE POP POP JUMP JUMPDEST PUSH0 PUSH1 0x60 DUP3 ADD SWAP1 POP DUP2 DUP2 SUB PUSH0 DUP4 ADD MSTORE PUSH2 0xBE0 DUP2 DUP7 PUSH2 0xB39 JUMP JUMPDEST SWAP1 POP PUSH2 0xBEF PUSH1 0x20 DUP4 ADD DUP6 PUSH2 0xB7A JUMP JUMPDEST PUSH2 0xBFC PUSH1 0x40 DUP4 ADD DUP5 PUSH2 0xBB9 JUMP JUMPDEST SWAP5 SWAP4 POP POP POP POP JUMP JUMPDEST PUSH0 DUP2 ISZERO ISZERO SWAP1 POP SWAP2 SWAP1 POP JUMP JUMPDEST PUSH2 0xC18 DUP2 PUSH2 0xC04 JUMP JUMPDEST DUP3 MSTORE POP POP JUMP JUMPDEST PUSH0 PUSH1 0x20 DUP3 ADD SWAP1 POP PUSH2 0xC31 PUSH0 DUP4 ADD DUP5 PUSH2 0xC0F JUMP JUMPDEST SWAP3 SWAP2 POP POP JUMP JUMPDEST PUSH0 PUSH0 PUSH1 0x20 DUP4 DUP6 SUB SLT ISZERO PUSH2 0xC4D JUMPI PUSH2 0xC4C PUSH2 0x96A JUMP JUMPDEST JUMPDEST PUSH0 DUP4 ADD CALLDATALOAD PUSH8 0xFFFFFFFFFFFFFFFF DUP2 GT ISZERO PUSH2 0xC6A JUMPI PUSH2 0xC69 PUSH2 0x96E JUMP JUMPDEST JUMPDEST PUSH2 0xC76 DUP6 DUP3 DUP7 ADD PUSH2 0x97E JUMP JUMPDEST SWAP3 POP SWAP3 POP POP SWAP3 POP SWAP3 SWAP1 POP JUMP JUMPDEST PUSH0 PUSH1 0x20 DUP3 ADD SWAP1 POP DUP2 DUP2 SUB PUSH0 DUP4 ADD MSTORE PUSH2 0xC9A DUP2 DUP5 PUSH2 0xB39 JUMP JUMPDEST SWAP1 POP SWAP3 SWAP2 POP POP JUMP JUMPDEST PUSH32 0x53747564656E7420494420726571756972656400000000000000000000000000 PUSH0 DUP3 ADD MSTORE POP JUMP JUMPDEST PUSH0 PUSH2 0xCD6 PUSH1 0x13 DUP4 PUSH2 0xB0B JUMP JUMPDEST SWAP2 POP PUSH2 0xCE1 DUP3 PUSH2 0xCA2 JUMP JUMPDEST PUSH1 0x20 DUP3 ADD SWAP1 POP SWAP2 SWAP1 POP JUMP JUMPDEST PUSH0 PUSH1 0x20 DUP3 ADD SWAP1 POP DUP2 DUP2 SUB PUSH0 DUP4 ADD MSTORE PUSH2 0xD03 DUP2 PUSH2 0xCCA JUMP JUMPDEST SWAP1 POP SWAP2 SWAP1 POP JUMP JUMPDEST PUSH32 0x446F632074797065207265717569726564000000000000000000000000000000 PUSH0 DUP3 ADD MSTORE POP JUMP JUMPDEST PUSH0 PUSH2 0xD3E PUSH1 0x11 DUP4 PUSH2 0xB0B JUMP JUMPDEST SWAP2 POP PUSH2 0xD49 DUP3 PUSH2 0xD0A JUMP JUMPDEST PUSH1 0x20 DUP3 ADD SWAP1 POP SWAP2 SWAP1 POP JUMP JUMPDEST PUSH0 PUSH1 0x20 DUP3 ADD SWAP1 POP DUP2 DUP2 SUB PUSH0 DUP4 ADD MSTORE PUSH2 0xD6B DUP2 PUSH2 0xD32 JUMP JUMPDEST SWAP1 POP SWAP2 SWAP1 POP JUMP JUMPDEST PUSH32 0x46696C6520686173682072657175697265640000000000000000000000000000 PUSH0 DUP3 ADD MSTORE POP JUMP JUMPDEST PUSH0 PUSH2 0xDA6 PUSH1 0x12 DUP4 PUSH2 0xB0B JUMP JUMPDEST SWAP2 POP PUSH2 0xDB1 DUP3 PUSH2 0xD72 JUMP JUMPDEST PUSH1 0x20 DUP3 ADD SWAP1 POP SWAP2 SWAP1 POP JUMP JUMPDEST PUSH0 PUSH1 0x20 DUP3 ADD SWAP1 POP DUP2 DUP2 SUB PUSH0 DUP4 ADD MSTORE PUSH2 0xDD3 DUP2 PUSH2 0xD9A JUMP JUMPDEST SWAP1 POP SWAP2 SWAP1 POP JUMP JUMPDEST PUSH0 DUP2 SWAP1 POP SWAP3 SWAP2 POP POP JUMP JUMPDEST DUP3 DUP2 DUP4 CALLDATACOPY PUSH0 DUP4 DUP4 ADD MSTORE POP POP POP JUMP JUMPDEST PUSH0 PUSH2 0xDFD DUP4 DUP6 PUSH2 0xDDA JUMP JUMPDEST SWAP4 POP PUSH2 0xE0A DUP4 DUP6 DUP5 PUSH2 0xDE4 JUMP JUMPDEST DUP3 DUP5 ADD SWAP1 POP SWAP4 SWAP3 POP POP POP JUMP JUMPDEST PUSH0 PUSH2 0xE22 DUP3 DUP5 DUP7 PUSH2 0xDF2 JUMP JUMPDEST SWAP2 POP DUP2 SWAP1 POP SWAP4 SWAP3 POP POP POP JUMP JUMPDEST PUSH32 0x4E487B7100000000000000000000000000000000000000000000000000000000 PUSH0 MSTORE PUSH1 0x41 PUSH1 0x4 MSTORE PUSH1 0x24 PUSH0 REVERT JUMPDEST PUSH32 0x4E487B7100000000000000000000000000000000000000000000000000000000 PUSH0 MSTORE PUSH1 0x22 PUSH1 0x4 MSTORE PUSH1 0x24 PUSH0 REVERT JUMPDEST PUSH0 PUSH1 0x2 DUP3 DIV SWAP1 POP PUSH1 0x1 DUP3 AND DUP1 PUSH2 0xE9F JUMPI PUSH1 0x7F DUP3 AND SWAP2 POP JUMPDEST PUSH1 0x20 DUP3 LT DUP2 SUB PUSH2 0xEB2 JUMPI PUSH2 0xEB1 PUSH2 0xE5B JUMP JUMPDEST JUMPDEST POP SWAP2 SWAP1 POP JUMP JUMPDEST PUSH0 DUP2 SWAP1 POP DUP2 PUSH0 MSTORE PUSH1 0x20 PUSH0 KECCAK256 SWAP1 POP SWAP2 SWAP1 POP JUMP JUMPDEST PUSH0 PUSH1 0x20 PUSH1 0x1F DUP4 ADD DIV SWAP1 POP SWAP2 SWAP1 POP JUMP JUMPDEST PUSH0 DUP3 DUP3 SHL SWAP1 POP SWAP3 SWAP2 POP POP JUMP JUMPDEST PUSH0 PUSH1 0x8 DUP4 MUL PUSH2 0xF14 PUSH32 0xFFFFFFFFFFFFFFFFFFFFFFFFFFFFFFFFFFFFFFFFFFFFFFFFFFFFFFFFFFFFFFFF DUP3 PUSH2 0xED9 JUMP JUMPDEST PUSH2 0xF1E DUP7 DUP4 PUSH2 0xED9 JUMP JUMPDEST SWAP6 POP DUP1 NOT DUP5 AND SWAP4 POP DUP1 DUP7 AND DUP5 OR SWAP3 POP POP POP SWAP4 SWAP3 POP POP POP JUMP JUMPDEST PUSH0 DUP2 SWAP1 POP SWAP2 SWAP1 POP JUMP JUMPDEST PUSH0 PUSH2 0xF59 PUSH2 0xF54 PUSH2 0xF4F DUP5 PUSH2 0xB71 JUMP JUMPDEST PUSH2 0xF36 JUMP JUMPDEST PUSH2 0xB71 JUMP JUMPDEST SWAP1 POP SWAP2 SWAP1 POP JUMP JUMPDEST PUSH0 DUP2 SWAP1 POP SWAP2 SWAP1 POP JUMP JUMPDEST PUSH2 0xF72 DUP4 PUSH2 0xF3F JUMP JUMPDEST PUSH2 0xF86 PUSH2 0xF7E DUP3 PUSH2 0xF60 JUMP JUMPDEST DUP5 DUP5 SLOAD PUSH2 0xEE5 JUMP JUMPDEST DUP3 SSTORE POP POP POP POP JUMP JUMPDEST PUSH0 PUSH0 SWAP1 POP SWAP1 JUMP JUMPDEST PUSH2 0xF9D PUSH2 0xF8E JUMP JUMPDEST PUSH2 0xFA8 DUP2 DUP5 DUP5 PUSH2 0xF69 JUMP JUMPDEST POP POP POP JUMP JUMPDEST JUMPDEST DUP2 DUP2 LT ISZERO PUSH2 0xFCB JUMPI PUSH2 0xFC0 PUSH0 DUP3 PUSH2 0xF95 JUMP JUMPDEST PUSH1 0x1 DUP2 ADD SWAP1 POP PUSH2 0xFAE JUMP JUMPDEST POP POP JUMP JUMPDEST PUSH1 0x1F DUP3 GT ISZERO PUSH2 0x1010 JUMPI PUSH2 0xFE1 DUP2 PUSH2 0xEB8 JUMP JUMPDEST PUSH2 0xFEA DUP5 PUSH2 0xECA JUMP JUMPDEST DUP2 ADD PUSH1 0x20 DUP6 LT ISZERO PUSH2 0xFF9 JUMPI DUP2 SWAP1 POP JUMPDEST PUSH2 0x100D PUSH2 0x1005 DUP6 PUSH2 0xECA JUMP JUMPDEST DUP4 ADD DUP3 PUSH2 0xFAD JUMP JUMPDEST POP POP JUMPDEST POP POP POP JUMP JUMPDEST PUSH0 DUP3 DUP3 SHR SWAP1 POP SWAP3 SWAP2 POP POP JUMP JUMPDEST PUSH0 PUSH2 0x1030 PUSH0 NOT DUP5 PUSH1 0x8 MUL PUSH2 0x1015 JUMP JUMPDEST NOT DUP1 DUP4 AND SWAP2 POP POP SWAP3 SWAP2 POP POP JUMP JUMPDEST PUSH0 PUSH2 0x1048 DUP4 DUP4 PUSH2 0x1021 JUMP JUMPDEST SWAP2 POP DUP3 PUSH1 0x2 MUL DUP3 OR SWAP1 POP SWAP3 SWAP2 POP POP JUMP JUMPDEST PUSH2 0x1061 DUP3 PUSH2 0xB01 JUMP JUMPDEST PUSH8 0xFFFFFFFFFFFFFFFF DUP2 GT ISZERO PUSH2 0x107A JUMPI PUSH2 0x1079 PUSH2 0xE2E JUMP JUMPDEST JUMPDEST PUSH2 0x1084 DUP3 SLOAD PUSH2 0xE88 JUMP JUMPDEST PUSH2 0x108F DUP3 DUP3 DUP6 PUSH2 0xFCF JUMP JUMPDEST PUSH0 PUSH1 0x20 SWAP1 POP PUSH1 0x1F DUP4 GT PUSH1 0x1 DUP2 EQ PUSH2 0x10C0 JUMPI PUSH0 DUP5 ISZERO PUSH2 0x10AE JUMPI DUP3 DUP8 ADD MLOAD SWAP1 POP JUMPDEST PUSH2 0x10B8 DUP6 DUP3 PUSH2 0x103D JUMP JUMPDEST DUP7 SSTORE POP PUSH2 0x111F JUMP JUMPDEST PUSH1 0x1F NOT DUP5 AND PUSH2 0x10CE DUP7 PUSH2 0xEB8 JUMP JUMPDEST PUSH0 JUMPDEST DUP3 DUP2 LT ISZERO PUSH2 0x10F5 JUMPI DUP5 DUP10 ADD MLOAD DUP3 SSTORE PUSH1 0x1 DUP3 ADD SWAP2 POP PUSH1 0x20 DUP6 ADD SWAP5 POP PUSH1 0x20 DUP2 ADD SWAP1 POP PUSH2 0x10D0 JUMP JUMPDEST DUP7 DUP4 LT ISZERO PUSH2 0x1112 JUMPI DUP5 DUP10 ADD MLOAD PUSH2 0x110E PUSH1 0x1F DUP10 AND DUP3 PUSH2 0x1021 JUMP JUMPDEST DUP4 SSTORE POP JUMPDEST PUSH1 0x1 PUSH1 0x2 DUP9 MUL ADD DUP9 SSTORE POP POP POP JUMPDEST POP POP POP POP POP POP JUMP JUMPDEST PUSH0 PUSH2 0x1132 DUP4 DUP6 PUSH2 0xB0B JUMP JUMPDEST SWAP4 POP PUSH2 0x113F DUP4 DUP6 DUP5 PUSH2 0xDE4 JUMP JUMPDEST PUSH2 0x1148 DUP4 PUSH2 0xB29 JUMP JUMPDEST DUP5 ADD SWAP1 POP SWAP4 SWAP3 POP POP POP JUMP JUMPDEST PUSH0 PUSH1 0x80 DUP3 ADD SWAP1 POP DUP2 DUP2 SUB PUSH0 DUP4 ADD MSTORE PUSH2 0x116C DUP2 DUP9 DUP11 PUSH2 0x1127 JUMP JUMPDEST SWAP1 POP DUP2 DUP2 SUB PUSH1 0x20 DUP4 ADD MSTORE PUSH2 0x1181 DUP2 DUP7 DUP9 PUSH2 0x1127 JUMP JUMPDEST SWAP1 POP PUSH2 0x1190 PUSH1 0x40 DUP4 ADD DUP6 PUSH2 0xB7A JUMP JUMPDEST PUSH2 0x119D PUSH1 0x60 DUP4 ADD DUP5 PUSH2 0xBB9 JUMP JUMPDEST SWAP8 SWAP7 POP POP POP POP POP POP POP JUMP JUMPDEST PUSH0 DUP2 SWAP1 POP SWAP3 SWAP2 POP POP JUMP JUMPDEST PUSH0 PUSH2 0x11BD DUP4 DUP6 PUSH2 0x11A8 JUMP JUMPDEST SWAP4 POP PUSH2 0x11CA DUP4 DUP6 DUP5 PUSH2 0xDE4 JUMP JUMPDEST DUP3 DUP5 ADD SWAP1 POP SWAP4 SWAP3 POP POP POP JUMP JUMPDEST PUSH0 PUSH2 0x11E2 DUP3 DUP5 DUP7 PUSH2 0x11B2 JUMP JUMPDEST SWAP2 POP DUP2 SWAP1 POP SWAP4 SWAP3 POP POP POP JUMP JUMPDEST PUSH32 0x566572696669636174696F6E2049442072657175697265640000000000000000 PUSH0 DUP3 ADD MSTORE POP JUMP JUMPDEST PUSH0 PUSH2 0x1222 PUSH1 0x18 DUP4 PUSH2 0xB0B JUMP JUMPDEST SWAP2 POP PUSH2 0x122D DUP3 PUSH2 0x11EE JUMP JUMPDEST PUSH1 0x20 DUP3 ADD SWAP1 POP SWAP2 SWAP1 POP JUMP JUMPDEST PUSH0 PUSH1 0x20 DUP3 ADD SWAP1 POP DUP2 DUP2 SUB PUSH0 DUP4 ADD MSTORE PUSH2 0x124F DUP2 PUSH2 0x1216 JUMP JUMPDEST SWAP1 POP SWAP2 SWAP1 POP JUMP JUMPDEST PUSH32 0x566572696669636174696F6E20494420616C7265616479207573656400000000 PUSH0 DUP3 ADD MSTORE POP JUMP JUMPDEST PUSH0 PUSH2 0x128A PUSH1 0x1C DUP4 PUSH2 0xB0B JUMP JUMPDEST SWAP2 POP PUSH2 0x1295 DUP3 PUSH2 0x1256 JUMP JUMPDEST PUSH1 0x20 DUP3 ADD SWAP1 POP SWAP2 SWAP1 POP JUMP JUMPDEST PUSH0 PUSH1 0x20 DUP3 ADD SWAP1 POP DUP2 DUP2 SUB PUSH0 DUP4 ADD MSTORE PUSH2 0x12B7 DUP2 PUSH2 0x127E JUMP JUMPDEST SWAP1 POP SWAP2 SWAP1 POP JUMP JUMPDEST PUSH0 DUP3 SWAP1 POP SWAP3 SWAP2 POP POP JUMP JUMPDEST PUSH2 0x12D2 DUP4 DUP4 PUSH2 0x12BE JUMP JUMPDEST PUSH8 0xFFFFFFFFFFFFFFFF DUP2 GT ISZERO PUSH2 0x12EB JUMPI PUSH2 0x12EA PUSH2 0xE2E JUMP JUMPDEST JUMPDEST PUSH2 0x12F5 DUP3 SLOAD PUSH2 0xE88 JUMP JUMPDEST PUSH2 0x1300 DUP3 DUP3 DUP6 PUSH2 0xFCF JUMP JUMPDEST PUSH0 PUSH1 0x1F DUP4 GT PUSH1 0x1 DUP2 EQ PUSH2 0x132D JUMPI PUSH0 DUP5 ISZERO PUSH2 0x131B JUMPI DUP3 DUP8 ADD CALLDATALOAD SWAP1 POP JUMPDEST PUSH2 0x1325 DUP6 DUP3 PUSH2 0x103D JUMP JUMPDEST DUP7 SSTORE POP PUSH2 0x138C JUMP JUMPDEST PUSH1 0x1F NOT DUP5 AND PUSH2 0x133B DUP7 PUSH2 0xEB8 JUMP JUMPDEST PUSH0 JUMPDEST DUP3 DUP2 LT ISZERO PUSH2 0x1362 JUMPI DUP5 DUP10 ADD CALLDATALOAD DUP3 SSTORE PUSH1 0x1 DUP3 ADD SWAP2 POP PUSH1 0x20 DUP6 ADD SWAP5 POP PUSH1 0x20 DUP2 ADD SWAP1 POP PUSH2 0x133D JUMP JUMPDEST DUP7 DUP4 LT ISZERO PUSH2 0x137F JUMPI DUP5 DUP10 ADD CALLDATALOAD PUSH2 0x137B PUSH1 0x1F DUP10 AND DUP3 PUSH2 0x1021 JUMP JUMPDEST DUP4 SSTORE POP JUMPDEST PUSH1 0x1 PUSH1 0x2 DUP9 MUL ADD DUP9 SSTORE POP POP POP JUMPDEST POP POP POP POP POP POP POP JUMP JUMPDEST PUSH0 PUSH1 0x40 DUP3 ADD SWAP1 POP DUP2 DUP2 SUB PUSH0 DUP4 ADD MSTORE PUSH2 0x13AE DUP2 DUP6 DUP8 PUSH2 0x1127 JUMP JUMPDEST SWAP1 POP PUSH2 0x13BD PUSH1 0x20 DUP4 ADD DUP5 PUSH2 0xB7A JUMP JUMPDEST SWAP5 SWAP4 POP POP POP POP JUMP INVALID LOG2 PUSH5 0x6970667358 0x22 SLT KECCAK256 0xCD PUSH25 0x23C58F8AE13F1D10D82097B6C0C14B1BAB0F05471BA3A21751 SWAP8 SHL PUSH0 PUSH32 0x1E64736F6C634300081E00330000000000000000000000000000000000000000 "
				},
				"gasEstimates": {
					"creation": {
						"codeDepositCost": "1023000",
						"executionCost": "1059",
						"totalCost": "1024059"
					},
					"external": {
						"checkDocumentExists(string,string)": "infinite",
						"getHash(string,string)": "infinite",
						"lookupVerification(string)": "infinite",
						"recordVerification(string,string)": "infinite",
						"storeHash(string,string,string)": "infinite",
						"verifyHash(string,string,string)": "infinite"
					}
				},
				"methodIdentifiers": {
					"checkDocumentExists(string,string)": "532c13c2",
					"getHash(string,string)": "27cf399a",
					"lookupVerification(string)": "dee0b9b2",
					"recordVerification(string,string)": "8a723575",
					"storeHash(string,string,string)": "138bbbfd",
					"verifyHash(string,string,string)": "5c2949f1"
				}
			},
			"storageLayout": {
				"storage": [
					{
						"astId": 18,
						"contract": "AcademicVerification.sol:AcademicVerification",
						"label": "documents",
						"offset": 0,
						"slot": "0",
						"type": "t_mapping(t_string_memory_ptr,t_mapping(t_string_memory_ptr,t_struct(Document)11_storage))"
					},
					{
						"astId": 22,
						"contract": "AcademicVerification.sol:AcademicVerification",
						"label": "verificationIndex",
						"offset": 0,
						"slot": "1",
						"type": "t_mapping(t_string_memory_ptr,t_string_storage)"
					}
				],
				"types": {
					"t_address": {
						"encoding": "inplace",
						"label": "address",
						"numberOfBytes": "20"
					},
					"t_bool": {
						"encoding": "inplace",
						"label": "bool",
						"numberOfBytes": "1"
					},
					"t_mapping(t_string_memory_ptr,t_mapping(t_string_memory_ptr,t_struct(Document)11_storage))": {
						"encoding": "mapping",
						"key": "t_string_memory_ptr",
						"label": "mapping(string => mapping(string => struct AcademicVerification.Document))",
						"numberOfBytes": "32",
						"value": "t_mapping(t_string_memory_ptr,t_struct(Document)11_storage)"
					},
					"t_mapping(t_string_memory_ptr,t_string_storage)": {
						"encoding": "mapping",
						"key": "t_string_memory_ptr",
						"label": "mapping(string => string)",
						"numberOfBytes": "32",
						"value": "t_string_storage"
					},
					"t_mapping(t_string_memory_ptr,t_struct(Document)11_storage)": {
						"encoding": "mapping",
						"key": "t_string_memory_ptr",
						"label": "mapping(string => struct AcademicVerification.Document)",
						"numberOfBytes": "32",
						"value": "t_struct(Document)11_storage"
					},
					"t_string_memory_ptr": {
						"encoding": "bytes",
						"label": "string",
						"numberOfBytes": "32"
					},
					"t_string_storage": {
						"encoding": "bytes",
						"label": "string",
						"numberOfBytes": "32"
					},
					"t_struct(Document)11_storage": {
						"encoding": "inplace",
						"label": "struct AcademicVerification.Document",
						"members": [
							{
								"astId": 4,
								"contract": "AcademicVerification.sol:AcademicVerification",
								"label": "fileHash",
								"offset": 0,
								"slot": "0",
								"type": "t_string_storage"
							},
							{
								"astId": 6,
								"contract": "AcademicVerification.sol:AcademicVerification",
								"label": "timestamp",
								"offset": 0,
								"slot": "1",
								"type": "t_uint256"
							},
							{
								"astId": 8,
								"contract": "AcademicVerification.sol:AcademicVerification",
								"label": "uploadedBy",
								"offset": 0,
								"slot": "2",
								"type": "t_address"
							},
							{
								"astId": 10,
								"contract": "AcademicVerification.sol:AcademicVerification",
								"label": "exists",
								"offset": 20,
								"slot": "2",
								"type": "t_bool"
							}
						],
						"numberOfBytes": "96"
					},
					"t_uint256": {
						"encoding": "inplace",
						"label": "uint256",
						"numberOfBytes": "32"
					}
				}
			},
			"userdoc": {
				"kind": "user",
				"methods": {
					"checkDocumentExists(string,string)": {
						"notice": "Check whether a document has been stored for a given student and type. "
					},
					"getHash(string,string)": {
						"notice": "Return the stored hash, block timestamp, and uploader address. "
					},
					"lookupVerification(string)": {
						"notice": "Return the studentId associated with a verificationId (empty string if not found). "
					},
					"recordVerification(string,string)": {
						"notice": "Record a final verification certificate on-chain. Each verificationId can only be registered once."
					},
					"storeHash(string,string,string)": {
						"notice": "Store a SHA-256 hash for a student document. Overwrites any previous hash for the same (studentId, docType) pair."
					},
					"verifyHash(string,string,string)": {
						"notice": "Compare a supplied hash against the stored hash. Returns false if no document has been stored yet."
					}
				},
				"notice": "Academic Integrity Verification System Stores SHA-256 document hashes on-chain and issues verification records.",
				"version": 1
			}
		}
	}
}